:020000040800F2
:10000000E80400204501000811040008A7030008C7
:100010000D0400088D0100085F0A000800000000C0
:100020000000000000000000000000009105000832
:10003000910100080000000099040008A5060008CE
:100040005F0100085F0100085F0100085F01000810
:100050005F0100085F010008950100085F010008CA
:10006000D101000809020008390200085F010008F8
:100070005F0100085F0100085F0100085F010008E0
:100080005F0100085F0100085F0100085F010008D0
:100090005F0100085F0100085F0100085F010008C0
:1000A0005F0100085F0100085F0100085F010008B0
:1000B0005F0100085F010008090700085F010008F0
:1000C0005F0100085F0100085F0100085F01000890
:1000D0005F010008790700085F0100085F01000860
:1000E0005F0100085F0100085F0100085F01000870
:1000F0005F0100085F0100085F0100085F01000860
:100100005F0100085F0100085F0100085F0100084F
:100110005F0100085F0100085F0100085F0100083F
:100120005F0100085F0100085F0100085F0100082F
:10013000DFF80CD000F018F800480047CD0A00089E
:10014000E80400200648804706480047FEE7FEE72F
:10015000FEE7FEE7FEE7FEE7FEE7FEE7FEE7FEE777
:10016000A906000831010008064C074D06E0E068CA
:1001700040F0010394E8070098471034AC42F6D3EE
:10018000FFF7DAFF980B0008B80B000800BFFEE786
:100190007047000010B5012000F06CF801280CD168
:1001A0000A2000F06DFC07480068012805D10020F6
:1001B000054908600549C1F89401012000F054F890
:1001C00010BD000000012142948121420000234221
:1001D00010B5042000F04EF801280BD10A2000F0E1
:1001E0004FFC0648006828B9012005490860054908
:1001F000C1F89401042000F037F810BD0801234233
:10020000948121420000234210B5082000F032F80A
:10021000012808D10A2000F033FC0548006810B915
:10022000012004490860082000F01EF810BD0000FD
:100230000C012342A081214210B5102000F01AF8D1
:10024000012808D10A2000F01BFC0548006810B9FD
:10025000002004490860102000F006F810BD0000DE
:1002600010012342A081214201490860704700002B
:100270001404014001460020034A12680A400AB1F2
:10028000012000E000207047140401402DE9F041F6
:10029000024600250026002000230024002791F8B4
:1002A00003C00CF00F0591F803C00CF0100CBCF16A
:1002B000000F03D091F802C04CEA050591F800C088
:1002C000BCF1000F31D0146800202BE04FF0010C7E
:1002D0000CFA00F3B1F800C00CEA03069E4220D1EC
:1002E00083004FF00F0C0CFA03F7BC4305FA03FC34
:1002F0004CEA040491F803C0BCF1280F06D14FF07A
:10030000010C0CFA00FCC2F814C00AE091F803C01A
:10031000BCF1480F05D14FF0010C0CFA00FCC2F8FB
:1003200010C0401C0828D1D31460B1F800C0BCF143
:10033000FF0F34DD546800202EE000F1080C4FF070
:10034000010808FA0CF3B1F800C00CEA03069E425B
:1003500021D183004FF00F0C0CFA03F7BC4305FAD0
:1003600003FC4CEA040491F803C0BCF1280F05D14A
:1003700000F1080C08FA0CF8C2F8148091F803C0D8
:10038000BCF1480F07D100F1080C4FF0010808FA42
:100390000CF8C2F81080401C0828CED35460BDE889
:1003A000F0810161704700BFFEE700001CB501212C
:1003B000082000F073F80121402000F06FF82020A1
:1003C000ADF8040003208DF8060010208DF807001A
:1003D0002020ADF8000003208DF8020010208DF8D9
:1003E000030001A90748FFF751FF01A90648FFF7DD
:1003F0004DFF20210348FFF7D4FF20210248FFF7DB
:10040000D0FF1CBD000C01400018014000BFFEE7FA
:100410007047000070B5002100230F22C47804B398
:10042000154C246804F4E064C4F5E064210AC1F1C9
:100430000403CA40447804FA03F184781440214349
:1004400009010E4C0678A155047804F01F0501241B
:10045000AC4005786D11AD0005F1E025C5F800410F
:1004600009E0047804F01F050124AC40044D06782F
:10047000761145F8264070BD0CED00E000E400E088
:1004800080E100E002490143024A11607047000028
:100490000000FA050CED00E07047000029B1064AA3
:1004A00092690243044B9A6104E0034A92698243D1
:1004B000014B9A61704700000010024030B50021E6
:1004C0000022002400232D4D6D6805F00C0121B1A0
:1004D000042905D0082923D105E0294D056022E033
:1004E000274D05601FE0254D6D6805F47012234D02
:1004F0006D6805F48034022505EB92421CB9214D4C
:10050000554305600BE01D4D6D6805F400351DB1C8
:100510001C4D5543056002E0194D5543056002E04E
:10052000174D056000BF00BF144D6D6805F0F00168
:100530000909154D6B5C0568DD4045600F4D6D6820
:1005400005F4E061090A104D6B5C4568DD4085608B
:100550000A4D6D6805F46051C90A0B4D6B5C456826
:10056000DD40C560054D6D6805F44041890B074DC0
:100570006B5CC568B5FBF3F5056130BD001002404A
:1005800000127A0000093D00000000201000002049
:10059000704710B500F002F810BD00000CB5002047
:1005A000019000903348006840F480303149086081
:1005B00000BF3048006800F4003000900198401CF3
:1005C0000190009818B90198B0F5A06FF1D12948B1
:1005D000006800F4003010B10120009001E000201C
:1005E00000900098012843D12348006840F0100093
:1005F000214908600846006820F0030008600846AA
:10060000006840F0020008601A48406819494860D4
:100610000846406848600846406840F4806048608A
:100620000846406820F47C1048600846406840F462
:10063000E81048600846006840F08070086000BF1D
:100640000C48006800F000700028F9D009484068A4
:1006500020F00300074948600846406840F0020067
:10066000486000BF0348406800F00C000828F9D13A
:100670000CBD00000010024000200240042808D1F8
:100680004FF0E021096941F004014FF0E0221161CF
:1006900007E04FF0E021096921F004014FF0E0226A
:1006A000116170477047000010B51348006840F0B2
:1006B00001001149086008464068104908400E4989
:1006C0004860084600680E4908400B490860084623
:1006D000006820F4802008600846406820F4FE008E
:1006E00048604FF41F008860FFF753FF4FF0006031
:1006F0000449086010BD0000001002400000FFF82F
:10070000FFFFF6FE08ED00E010B501210C4800F0F7
:1007100022F880B10B48006808B9012000E00020F1
:10072000084908600848D0F8940108B9012000E0A1
:100730000020064908600121014800F009F810BDB9
:10074000000800409481214200002342940123428A
:10075000CA430282704730B50246002000230024BD
:10076000158A05EA0103958905EA010413B10CB164
:10077000012000E0002030BD10B5002440F22551DA
:100780001C4800F0A8F810B31A4800F05FF9C4B292
:100790001948008800F40040C8B91748008800F4E0
:1007A000804060B10A2C03D000201349088020E06B
:1007B0001148008840F400400F49088019E00D2CD2
:1007C00006D10D48008840F480400B49088010E0B5
:1007D00009480088C0F30D0008490C5406480088F9
:1007E000401C0549088008460088C72801DD002014
:1007F000088010BD003801401C00002020000020AF
:1008000010B586B0044601210420FFF747FE012100
:100810008803FFF743FE18208DF817004FF400708F
:10082000ADF8140003208DF8160005A91B48FFF74A
:100830002DFD04208DF817000002ADF8140005A965
:100840001648FFF723FD01940C20ADF80E000020A0
:10085000ADF80C00ADF80A00ADF80800ADF81000D6
:1008600001A90F4800F086F801210D4800F01AF8A0
:10087000012240F225510A4800F057F825208DF852
:10088000000001208DF8030003208DF801008DF891
:1008900002006846FFF7BEFD06B010BD000801402B
:1008A0000038014021B1828942F40052828104E083
:1008B00082894DF6FF731A408281704702460020FC
:1008C000B1F5007F00D100BF13880B400BB10120B0
:1008D00000E00020704770B5024600240023002588
:1008E000002040F66A16B14200D100BFC1F34215A4
:1008F00001F01F03012606FA03F3012D02D19689A8
:10090000334006E0022D02D1168A334001E0968A78
:1009100033400C12012606FA04F41688344013B151
:100920000CB1012000E0002070BDF0B503460024AA
:1009300000260025002040F66A17B94200D100BF0A
:100940001846C1F3421401F01F06012707FA06F505
:10095000012C01D10C3004E0022C01D1103000E058
:1009600014301AB107682F43076002E00768AF43ED
:100970000760F0BD2DE9F04786B005460E4600241D
:10098000A24600BFA1460027B08900B100BF2F4694
:100990002C8A4CF6FF700440F08804432C82AC890A
:1009A0004EF6F3100440B08831890843718908433A
:1009B0000443AC81AC8A4FF6FF400440B089044345
:1009C000AC8201A8FFF77AFD1F48874202D1DDF80B
:1009D00010A001E0DDF80CA0A88900F4004040B1AF
:1009E0000AEBCA0000EB0A1031684900B0FBF1F8CD
:1009F00007E00AEBCA0000EB0A1031688900B0FB7F
:100A0000F1F86420B8FBF0F004012009642101FB37
:100A10001089A88900F4004040B1322000EBC900E1
:100A2000B0FBF1F000F00700044308E0322000EBD7
:100A300009106421B0FBF1F000F00F0004432C8199
:100A400006B0BDE8F0870000003801400146888804
:100A5000C0F308007047C1F308028280704700BFEE
:100A6000FEE702E008C8121F08C1002AFAD1704749
:100A70007047002001E001C1121F002AFBD170471E
:100A80000146114A12684A434FF0E0235A6100229E
:100A90009A611A46126942F001021A6100BF4FF0D2
:100AA000E022106900F001021AB100F48032002A3D
:100AB000F5D04FF0E022126922F001024FF0E0235E
:100AC0001A6100229A617047180000200025002456
:100AD0000026482000F046F84FF4A060FFF7D2FC53
:100AE000FFF764FC4FF4E130FFF78AFE30E019486D
:100AF000008800F40040C0B116480088C0F30D061D
:100B000000240DE01448015D1448FFF7A4FF00BF66
:100B100040211248FFF7D2FE0028F9D0601C84B2B1
:100B2000B442EFDB00200B490880322095FBF0F146
:100B300000FB115038B90A48006808B9012000E0EC
:100B40000020074908600A20FFF79AFF681CC5B219
:100B5000CDE700001C0000202000002000380140EC
:100B60009401234210B504466FF00400FFF786FDA0
:100B7000E11704EB5171C1F3C701054A117010462A
:100B800000784FF47A7148430249086010BD0000B4
:100B90001400002018000020B80B000800000020FE
:100BA00020000000620A0008D80B00082000002086
:100BB000C8040000720A00080000000001020304DB
:100BC00001020304060708090204060800000000E9
:080BD00000000000000000001D
:0400000508000131BD
:00000001FF
