:020000040800F2
:10000000F8040020450100080D050008A3040008BD
:1000100009050008B90100087B0B0008000000007A
:10002000000000000000000000000000AD06000815
:100030008F0200080000000095050008C1070008B5
:100040005F0100085F0100085F0100085F01000810
:100050005F0100085F010008910200085F010008CD
:10006000CD02000805030008350300085F01000801
:100070005F0100085F0100085F0100085F010008E0
:100080005F0100085F0100085F0100085F010008D0
:100090005F0100085F0100085F0100085F010008C0
:1000A0005F0100085F0100085F0100085F010008B0
:1000B0005F0100085F010008250800085F010008D3
:1000C0005F0100085F0100085F0100085F01000890
:1000D0005F010008950800085F0100085F01000843
:1000E0005F0100085F0100085F0100085F01000870
:1000F0005F0100085F0100085F0100085F01000860
:100100005F0100085F0100085F0100085F0100084F
:100110005F0100085F0100085F0100085F0100083F
:100120005F0100085F0100085F0100085F0100082F
:10013000DFF80CD000F02EF800480047850D0008CD
:10014000F80400200648804706480047FEE7FEE71F
:10015000FEE7FEE7FEE7FEE7FEE7FEE7FEE7FEE777
:10016000C50700083101000830B50B4601460020E4
:100170002022012409E021FA02F59D4205D303FA69
:1001800002F5491B04FA02F52844151EA2F10102EA
:10019000F1DC30BD064C074D06E0E06840F001039D
:1001A00094E8070098471034AC42F6D3FFF7C4FF39
:1001B000180F0008380F000800BFFEE700F080515C
:1001C00011B10349086001E002494860704700002E
:1001D000040402400000024021B1026842F0010222
:1001E000026004E002684FF6FE731A400260704736
:1001F00001460020002201F0805313B1054B1A681C
:1002000001E0054B1A6802EA01030BB1012000E08E
:1002100000207047000402400000024010B5002298
:10022000026847F6F0739A430C6A8B6823430C69A3
:1002300023434C6923438C692343CC6923434C6A91
:1002400023438C6A23431A430260CB6843600B68E4
:1002500083604B68C36010BD4160704770B5044651
:100260000D4600212046FFF7B7FF29462046FFF73D
:10027000F3FF01212046FFF7AFFF00BF0220FFF789
:10028000B7FF0028FAD00220FFF798FF70BD704733
:1002900010B5012000F06CF801280CD10A2000F004
:1002A00039FD07480068012805D10020054908608C
:1002B0000549C1F89401012000F054F810BD000078
:1002C00000012142948121420000234210B5042004
:1002D00000F04EF801280BD10A2000F01BFD064863
:1002E000006828B90120054908600549C1F8940152
:1002F000042000F037F810BD080123429481214208
:100300000000234210B5082000F032F8012808D17F
:100310000A2000F0FFFC0548006810B901200449DC
:100320000860082000F01EF810BD00000C012342F8
:10033000A081214210B5102000F01AF8012808D140
:100340000A2000F0E7FC0548006810B900200449C5
:100350000860102000F006F810BD000010012342D4
:10036000A081214201490860704700001404014047
:1003700001460020034A12680A400AB1012000E049
:1003800000207047140401402DE9F0410246002589
:100390000026002000230024002791F803C00CF061
:1003A0000F0591F803C00CF0100CBCF1000F03D046
:1003B00091F802C04CEA050591F800C0BCF1000FAD
:1003C00031D0146800202BE04FF0010C0CFA00F340
:1003D000B1F800C00CEA03069E4220D183004FF022
:1003E0000F0C0CFA03F7BC4305FA03FC4CEA0404B7
:1003F00091F803C0BCF1280F06D14FF0010C0CFAA4
:1004000000FCC2F814C00AE091F803C0BCF1480F28
:1004100005D14FF0010C0CFA00FCC2F810C0401CD2
:100420000828D1D31460B1F800C0BCF1FF0F34DD4F
:10043000546800202EE000F1080C4FF0010808FA83
:100440000CF3B1F800C00CEA03069E4221D18300F0
:100450004FF00F0C0CFA03F7BC4305FA03FC4CEA0F
:10046000040491F803C0BCF1280F05D100F1080C79
:1004700008FA0CF8C2F8148091F803C0BCF1480FD8
:1004800007D100F1080C4FF0010808FA0CF8C2F887
:100490001080401C0828CED35460BDE8F081016173
:1004A000704700BFFEE700001CB50121082000F0E6
:1004B00083F80121402000F07FF82020ADF80400EF
:1004C00003208DF8060010208DF807002020ADF8DD
:1004D000000003208DF8020010208DF8030001A910
:1004E0000748FFF751FF01A90648FFF74DFF2021FC
:1004F0000348FFF7D4FF20210248FFF7D0FF1CBDBF
:10050000000C01400018014000BFFEE770470000EA
:1005100070B5002100230F22C47804B3154C246861
:1005200004F4E064C4F5E064210AC1F10403CA40A4
:10053000447804FA03F184781440214309010E4CF5
:100540000678A155047804F01F050124AC40057815
:100550006D11AD0005F1E025C5F8004109E0047812
:1005600004F01F050124AC40044D0678761145F8CF
:10057000264070BD0CED00E000E400E080E100E00A
:1005800002490143024A1160704700000000FA0569
:100590000CED00E07047000029B1064A52690243A1
:1005A000044B5A6104E0034A52698243014B5A6189
:1005B000704700000010024029B1064A92690243C8
:1005C000044B9A6104E0034A92698243014B9A61A9
:1005D000704700000010024030B5002100220024C6
:1005E00000232D4D6D6805F00C0121B1042905D0C3
:1005F000082923D105E0294D056022E0274D05603B
:100600001FE0254D6D6805F47012234D6D6805F4EB
:100610008034022505EB92421CB9214D55430560FB
:100620000BE01D4D6D6805F400351DB11C4D5543A3
:10063000056002E0194D5543056002E0174D056065
:1006400000BF00BF144D6D6805F0F0010909154D9C
:100650006B5C0568DD4045600F4D6D6805F4E06139
:10066000090A104D6B5C4568DD4085600A4D6D6878
:1006700005F46051C90A0B4D6B5C4568DD40C560EF
:10068000054D6D6805F44041890B074D6B5CC568ED
:10069000B5FBF3F5056130BD0010024000127A0091
:1006A00000093D000800002018000020704710B528
:1006B00000F002F810BD00000CB500200190009081
:1006C0003348006840F480303149086000BF30484A
:1006D000006800F4003000900198401C01900098E0
:1006E00018B90198B0F5A06FF1D12948006800F45D
:1006F000003010B10120009001E00020009000982F
:10070000012843D12348006840F0100021490860C7
:100710000846006820F0030008600846006840F0C2
:10072000020008601A484068194948600846406855
:1007300048600846406840F4806048600846406869
:1007400020F47C1048600846406840F4E810486097
:100750000846006840F08070086000BF0C480068E0
:1007600000F000700028F9D00948406820F003002C
:10077000074948600846406840F00200486000BFF2
:100780000348406800F00C000828F9D10CBD0000B7
:100790000010024000200240042808D14FF0E02160
:1007A000096941F004014FF0E022116107E04FF0C8
:1007B000E021096921F004014FF0E0221161704746
:1007C0007047000010B51348006840F0010011495F
:1007D000086008464068104908400E4948600846CD
:1007E00000680E4908400B4908600846006820F47C
:1007F000802008600846406820F4FE0048604FF4FE
:100800001F008860FFF753FF4FF000600449086045
:1008100010BD0000001002400000FFF8FFFFF6FED0
:1008200008ED00E010B501210C4800F022F880B17D
:100830000B48006808B9012000E000200849086062
:100840000848D0F8940108B9012000E000200649CA
:1008500008600121014800F009F810BD00080040BF
:10086000948121420000234294012342CA43028220
:10087000704730B50246002000230024158A05EA9F
:100880000103958905EA010413B10CB1012000E0D0
:10089000002030BD10B5002440F225511C4800F066
:1008A000A8F810B31A4800F05FF9C4B219480088DC
:1008B00000F40040C8B91748008800F4804060B1D7
:1008C0000A2C03D000201349088020E0114800883A
:1008D00040F400400F49088019E00D2C06D10D4866
:1008E000008840F480400B49088010E009480088E7
:1008F000C0F30D0008490C5406480088401C054907
:10090000088008460088C72801DD0020088010BD47
:1009100000380140240000202C00002010B586B0D3
:10092000044601210420FFF747FE01218803FFF759
:1009300043FE18208DF817004FF40070ADF8140036
:1009400003208DF8160005A91B48FFF71DFD0420A4
:100950008DF817000002ADF8140005A91648FFF73E
:1009600013FD01940C20ADF80E000020ADF80C0032
:10097000ADF80A00ADF80800ADF8100001A90F4865
:1009800000F086F801210D4800F01AF8012240F22B
:1009900025510A4800F057F825208DF80000012065
:1009A0008DF8030003208DF801008DF802006846E1
:1009B000FFF7AEFD06B010BD000801400038014051
:1009C00021B1828942F40052828104E082894DF68D
:1009D000FF731A408281704702460020B1F5007F04
:1009E00000D100BF13880B400BB1012000E00020B4
:1009F000704770B50246002400230025002040F611
:100A00006A16B14200D100BFC1F3421501F01F03C5
:100A1000012606FA03F3012D02D19689334006E040
:100A2000022D02D1168A334001E0968A33400C121F
:100A3000012606FA04F41688344013B10CB10120E3
:100A400000E0002070BDF0B503460024002600251C
:100A5000002040F66A17B94200D100BF1846C1F322
:100A6000421401F01F06012707FA06F5012C01D1F7
:100A70000C3004E0022C01D1103000E014301AB127
:100A800007682F43076002E00768AF430760F0BDC7
:100A90002DE9F04786B005460E460024A24600BF69
:100AA000A1460027B08900B100BF2F462C8A4CF622
:100AB000FF700440F08804432C82AC894EF6F3109A
:100AC0000440B08831890843718908430443AC81EC
:100AD000AC8A4FF6FF400440B0890443AC8201A8C1
:100AE000FFF77AFD1F48874202D1DDF810A001E030
:100AF000DDF80CA0A88900F4004040B10AEBCA0060
:100B000000EB0A1031684900B0FBF1F807E00AEB8E
:100B1000CA0000EB0A1031688900B0FBF1F86420CC
:100B2000B8FBF0F004012009642101FB1089A889B9
:100B300000F4004040B1322000EBC900B0FBF1F0FE
:100B400000F00700044308E0322000EB09106421A4
:100B5000B0FBF1F000F00F0004432C8106B0BDE8BB
:100B6000F08700000038014001468888C0F3080083
:100B70007047C1F308028280704700BFFEE70000A3
:100B80000FB4054B10B503A9044A029800F018F8F9
:100B900010BC5DF814FB0000610D00082800002067
:100BA00002E008C8121F08C1002AFAD17047704736
:100BB000002001E001C1121F002AFBD17047000094
:100BC0002DE9FF4F89B09B460446002506E0252805
:100BD0000BD05A460B999047641C6D1C2078002856
:100BE000F5D10DB02846BDE8F08F0027B8460122A8
:100BF000474900E0074314F8013F203B02FA03F0A5
:100C00000842F7D120782E2819D114F8010F47F0A7
:100C100004072A280ED06FF02F022078A0F13001AF
:100C200009290CD808EB880102EB410100EB01080F
:100C3000641CF2E70A98641C50F8048B0A90207830
:100C40000028CED0642808D0692806D075281ED088
:100C50005A460B9990476D1C58E00A994FF00A09C3
:100C600001C90A91002802DA40422D2102E039052B
:100C700004D52B218DF82010012103E0F90704D0C1
:100C80002021F7E78A4608AE0DE00021FAE70A992D
:100C90004FF00A0901C90A91F7E74946FFF764FADC
:100CA000303106F8011D0028F7D1ADEB060000F148
:100CB0002009780701D44FF00108C84502DDA8EBF0
:100CC000090000E000208046002706E008A85A46F8
:100CD000C05D0B9990476D1C7F1C5745F6DB04E007
:100CE00030205A460B9990476D1CB8F10001A8F1CD
:100CF0000108F5DC05E016F8010B5A460B99904700
:100D00006D1CB9F10001A9F10109F4DC641C65E76F
:100D1000092801000146114A12684A434FF0E023B6
:100D20005A6100229A611A46126942F001021A6160
:100D300000BF4FF0E022106900F001021AB100F488
:100D40008032002AF5D04FF0E022126922F0010231
:100D50004FF0E0231A6100229A61704720000020C2
:100D600070B504460D46A1B20548FFF702FF00BF6B
:100D700080210348FFF730FE0028F9D0204670BDDF
:100D80000038014008B50024482000F0ABF84FF4CB
:100D9000A060FFF7F5FBFFF787FB4FF4E130FFF7AB
:100DA000BDFD04232C4A2D492D4800F071F851E077
:100DB000204604EBD0714910A4EB410139B9294810
:100DC000006808B9012000E0002026490860601C86
:100DD000C4B22248C07800902048837842780178D5
:100DE00021A0FFF7CDFE1C48C07800901A488378F8
:100DF0004278017821A0FFF7C3FE4FF47A70FFF725
:100E000089FF04211648FFF729FA1448C07800909A
:100E1000124883784278017813A0FFF7B1FE0E489C
:100E2000C07800900C4883784278017813A0FFF7CF
:100E3000A7FE0A480078401C084908700846407818
:100E4000401C487008468078401C88700846C0786E
:100E5000401CC870ACE70000040000200000002027
:100E6000080002409401234264617461413A2564A0
:100E70002025642025642025640D0A0064617461C6
:100E8000423A25642025642025642025640D0A004B
:100E9000F0B58BB007460C4615461E4601210846A4
:100EA000FFF77AFB00940020069040200490019503
:100EB00000200790802005900396002002904FF4B8
:100EC00080400A90002008904FF4805009906946B5
:100ED0003846FFF7A3F900213846FFF77DF90BB03C
:100EE000F0BD000010B504466FF00400FFF754FC9D
:100EF000E11704EB5171C1F3C701054A11701046A7
:100F000000784FF47A7148430249086010BD000030
:100F10001C00002020000020380F000800000020E6
:100F20002C000000A00B0008640F00082C0000201B
:100F3000CC040000B00B0008010203040000000014
:100F4000000000000102030401020304060708096F
:100F5000020406080000000000000000000000007D
:040F6000000000008D
:0400000508000131BD
:00000001FF
