:0D049E004164642020436F6D6D616E640049
:100440000A093F065B4F666D7D077F6F011500014E
:0504500008000113008B
:1001540012046A12050C7BFF7A04799E7D017F01EB
:100164001203FA752702E4FBFA7D017F02120341B0
:10017400752702E4FBFA7D067F021203411204B8DC
:10018400EF70061204C5EF60281205128F161205CF
:10019400158F14E516FB7A007527027D017F021284
:1001A4000341E514FB7A007527027D067F021203E2
:1001B40041E514641570041513F514E5146409700D
:1001C400040513F514E51314600F1460111460137F
:1001D40024037012E4F508800D7508328008750850
:1001E4004B8003750864AF13EF3395E0FED3EF94AF
:1001F40003EE648094804003E4F513AF13EF33956A
:10020400E0C3648094805003E4F513AF13120490A8
:10021400E4F515C3E51594647480948040030201E9
:1002240081E50895154004D2908002C2900515809E
:01023400E2E7
:0E049000D2A4D2A3D2A274092FF8E6F58022DE
:10047E00C2A6C2A58F80D2A77F0A7E001204E8C250
:02048E00A722A3
:10045600C2A7D2A6C2A58F80D2A77F0A7E001204A9
:04046600E8C2A7221F
:10046A007F3812047E7F0C12047E7F0612047E7F80
:04047A008002047E7A
:100420008F2B8D2CEF64017008E52C247FFF1204C4
:100430007EE52B64027008E52C24BFFF12047E22A7
:0A04F3008B37120420AF37020456C5
:0703D10024FFFDEE34FFFCE8
:0803D8008E2B8F2C8C2D8D2E35
:1003E0007F017E00E4FBEBC3952EE4952D500AAC13
:0903F0002BAD2C1202DA0B80ED9A
:0103F90022E1
:04038E008A318B32F3
:10039200120420853334AF347E00D3EF940074808E
:1003A2009480402AEF7F0A1203D1AC31AD32CFCD17
:1003B200CFCECCCE1202EC7C007D0A1202EC8C3540
:0E03C2008D36E5362430FF120456153480C8FF
:0103D000220A
:040341008A258B2658
:10034500120420852728AF287E00D3EF94007480FF
:1003550094804034EF7F101203D1AC25AD26CFCD6C
:10036500CFCECCCE1202EC752900EF540FF52AC37F
:10037500940AE5299400E52A5004243080022437A4
:08038500FF120456152880BE8A
:01038D00224D
:1003FA008B238A248925120420AB23AA24A9251237
:10040A0002C1FF601012045674012525F525E43552
:06041A0024F52480E42219
:0D04AB00758901E4F58CF58AC28DC28C22A2
:0B04D200AD07AC068C8CAF058F8A22B2
:0904FD00AF8CEFFEAD8AEDFF2289
:06050600EF24FF928C229D
:0B04DD00D288C289D2B8D2A8D2AF22C8
:0B04E800EF1FAC0670011E4C70F622E6
:06050C001204AB0204DD45
:0D04B800E5216006E4F5217F01227F00228E
:0D04C500E51D6006E4F51D7F01227F002289
:03051200AF1722FE
:03051500AF2222F0
:03000300020006F2
:10000600C0E0C0F0C083C082C0D075D000C000C0C0
:1000160001C002C003C004C005C006C007E52070C9
:100026000CFFFE1204D27F011205068049E520640A
:100036000170491204FD8E1E8F1FE4FFFE1204D2CA
:10004600D3E51F9438E51E94314010E51F9440E532
:100056001E94385006752002020139D3E51F946EAE
:10006600E51E94284010E51F9476E51E942F500651
:10007600751D01020131752001020139E520640276
:1000860060030201391204FD8E1E8F1FE4FFFE126B
:1000960004D2D3E51F946CE51E9402402BE51F9411
:1000A60054E51E94065021E518131313541F241902
:1000B600F8C000E6FFE5185407FEF8740108800250
:1000C600C333D8FCF45F8033D3E51F94D6E51E9482
:1000D60006402FE51F94BEE51E940A5025E5181329
:1000E6001313541F2419F8C000E6FFE5185407FE41
:1000F600F87401088002C333D8FC4FD000F6051807
:100106008006751800752001C3E518942074809444
:10011600804020751800E51AF4B5190FE51CF4B5F2
:100126001B09851917851B22752101E4FF12050697
:10013600752000D007D006D005D004D003D002D059
:0E01460001D000D0D0D082D083D0F0D0E032F3
:03000000020235C4
:0C023500787FE4F6D8FD75813702027C6A
:1002C100BB010689828A83E0225002E722BBFE023B
:0902D100E32289828A83E493226E
:1002DA00EF8DF0A4A8F0CF8CF0A428CE8DF0A42E38
:0202EA00FE22F2
:1002EC00BC000BBE0029EF8DF084FFADF022E4CCF6
:1002FC00F875F008EF2FFFEE33FEEC33FCEE9DECBF
:10030C00984005FCEE9DFE0FD5F0E9E4CEFD22ED04
:10031C00F8F5F0EE8420D21CFEADF075F008EF2F4E
:10032C00FFED33FD4007985006D5F0F222C398FD3F
:05033C000FD5F0EA22DC
:10024100020154E493A3F8E493A34003F68001F27E
:1002510008DFF48029E493A3F85407240CC8C333BE
:10026100C4540F4420C8834004F456800146F6DF8D
:10027100E4800B0102040810204080900440E47ED9
:10028100019360BCA3FF543F30E509541FFEE49382
:10029100A360010ECF54C025E060A840B8E493A349
:1002A100FAE493A3F8E493A3C8C582C8CAC583CA74
:1002B100F0A3C8C582C8CAC583CADFE9DEE780BE2C
:0104550000A6
:00000001FF
