:10028C00E4F50812064E1205DB0508E50875F03298
:10029C0084E5F07014120322E4FBFA792078411201
:1002AC0000031201478E098F0AC3E509648094800C
:1002BC005014C3E4950AF50AE49509F5097B2D7DE4
:1002CC00017F02120644C3E5096480948040097BD7
:1002DC002B7D017F02120644AE09AF0A7C007D0A19
:1002EC00120248AA06AB07750F027D027F021204A8
:1002FC00417B2E7D047F02120644AE09AF0A7C00BE
:10030C007D0A120248AA04AB05750F017D057F0218
:06031C00120441020295EB
:0A05C600C2A58F80D2A77F0A7E0035
:0B05D000EF1FAC0670011E4C70F622FD
:10056F00D3EF9400EE940040147D6E7C00ED1D706F
:0D057F00011CED4C70F7EF1F70E61E80E3CD
:01058C00224C
:0E061100C2A61205C6C2A77F0A7E000205D04F
:0E061F00D2A61205C6C2A77F0A7E000205D031
:1005DB007F381206117F0C1206117F061206117F4F
:0405EB008002061173
:1005AB00AB07EB64017007ED247FFF120611EB64C0
:0B05BB00027007ED24BFFF12061122A2
:100529008B1A8A1B891C1205ABAB1AAA1BA91C12B0
:1005390001C8FF601012061F7401251CF51CE43563
:060549001BF51B80E422FB
:0804D0008E118F128C138D14A4
:1004D8007F017E00E4FBFAC3EB9514E5136480F812
:1004E800EA648098500EAC11AD121201E10BBB000A
:0404F800010A80E392
:0104FC0022DD
:040441008A0D8B0E87
:100445001205AB850F10AF107E00D3EF94007480BA
:1004550094804031EF24FFFDEE34FFFC7F0A120447
:10046500D0AC0DAD0ECFCDCFCECCCE1202487C0098
:100475007D0A1202488C838D82E5822430FF1206A4
:050485001F151080C1ED
:01048A00224F
:0A064400AA031205ABAF0202061F65
:0403F4008A178B18C1
:1003F8001205AB851982758300D3E5829400E583E5
:1004080094004034E58224FFFDE58334FFFC7F023D
:100418007E001204D0AC17AD18CFCDCFCECCCE1203
:1004280001F3EF5401FB7A002430FF12061FE58226
:08043800158270C5158380C117
:010440002299
:1005EF00C2B77F4B7E00120639D2B77F027E000260
:0205FF000639BB
:10039D00E4F51230B716C3E51294147480948050AE
:1003AD000B05127F017E0012063980E7C3E512941A
:1003BD00147480948040037F0122E4F51220B71657
:1003CD00C3E512941474809480500B05127F017E46
:1003DD000012063980E7C3E51294147480948040AE
:0603ED00037F01227F00E6
:0103F30022E7
:10054F00E4F514C2B70000D2B7000030B705751438
:0F055F00018003E4F5147F057E00120639AF1406
:01056E00226A
:1004FD00E4F512F513FFF512E512C3940874809418
:10050D0080501612054FEFC43333335480FEE5137C
:0B051D00C3134EF513051280DFAF136F
:0105280022B0
:02048B008F12CE
:10048D00E4F513F514F513C3E51394087480948003
:10049D005030E5125401F514E512C313F512E514AD
:1004AD00600FC2B70000D2B77F067E0012063980FA
:1004BD000DC2B77F067E00120639D2B700000513B4
:0204CD0080C5E8
:0104CF00220A
:100601001205EF12039D7FCC12048B7F4402048BF1
:06064E001205EF02039DFE
:10032200E4FFF50FF510F5111206011205EF1203A5
:100332009D7FCC12048B7FBE12048B1204FD8F0FA3
:100342001204FDEFFE7C00E4250FF511EC3EF510E2
:1003520054F8FEEEB4F821E511F4FFE510F4FEEFD7
:100362002401F511E43EF510FCAD11E412010EE496
:10037200FBFA798078BD800FAC10AD11E412010E4A
:10038200E4FBFA7980783D1200038F0E8E0D8D0CFE
:0A0392008C0BAF0EAE0DAD0CAC0BE2
:01039C00223E
:0B063900EF1FAC0670011E4C70F62293
:10058D00D3EF9400EE940040147D6E7C00ED1D7051
:0D059D00011CED4C70F7EF1F70E61E80E3AF
:0105AA00222E
:10000300EC4D6011E8497017ED33EC3304600DE4F7
:10001300FCFFFEFD22E933E8330470F80201B3125A
:10002300017E58046009E4CC24815006285009025B
:1000330001BD2840030201BAC0E0EB4A7044B98015
:1000430006D0E0FB0201A9EF4E701CBD8008EBFF58
:10005300EAFEE9FD80EBE98DF0A4FEE5F00200EC99
:10006300E9CDF9EAFEEBFFEF89F0A4FCE5F0CE89D8
:10007300F0A42EFFE435F0CD89F0A42DFEE435F095
:100083008067EF4E7005BD80D780C3EF8BF0A4ACC3
:10009300F0EE8BF0A42CFCE435F0F8EF8AF0A42CFE
:1000A300E5F038FCE433CB8DF0A42CFCE5F03BF811
:1000B300EE8AF0A42CFCE5F038F8E433CF89F0A401
:1000C3002CFCE5F038CF3400CE89F0A42FFFE5F007
:1000D3003EFEE433C98DF0A42EFEE5F039CD8AF05F
:1000E300A42FFFE5F03EFEE43DFD33D0E0FB5007D7
:1000F3000BBB000F0201BDEC2CFCEF33FFEE33FE14
:06010300ED33FD02019541
:1001090075F020800E75F010800575F0087D007E71
:10011900007F003392D530D50312027EEC334010B4
:10012900EF33FFEE33FEED33FDEC33FCD5F0ED227A
:0E013900E5F0247EA2D513CC92E7CDCEFF22B6
:10014700EDD2E7CD33EC3392D524814006E4FFFEB0
:10015700FDFC22FCE4CFCECDCC24E0501174FF800F
:10016700EDC3CC13CCCD13CDCE13CECF13CF0470AC
:07017700F030D5DE02027E2C
:10017E00E9D2E7C933E833F892D5EDD2E7CD33ECC7
:07018E0033FC5002B2D52240
:10019500EC30E7100FBF000C0EBE00080DBD0004CB
:1001A5000BEB6014A2D5EB13FCED92E7FD2274FF77
:1001B500FCFDFEFF22E480F8A2D574FF13FC7D80D0
:0301C500E480EFE4
:0300000002062DC8
:0C062D00787FE4F6D8FD75811C02028C79
:1001C800BB010689828A83E0225002E722BBFE0235
:0901D800E32289828A83E4932268
:1001E100EF8DF0A4A8F0CF8CF0A428CE8DF0A42E32
:0201F100FE22EC
:1001F300BC000BBE0029EF8DF084FFADF022E4CCF0
:10020300F875F008EF2FFFEE33FEEC33FCEE9DECB8
:10021300984005FCEE9DFE0FD5F0E9E4CEFD22EDFE
:10022300F8F5F0EE8420D21CFEADF075F008EF2F48
:10023300FFED33FD4007985006D5F0F222C398FD39
:050243000FD5F0EA22D6
:10024800C2D5EC30E709B2D5E4C39DFDE49CFCEED1
:1002580030E715B2D5E4C39FFFE49EFE1201F3C355
:10026800E49DFDE49CFC80031201F330D507C3E450
:060278009FFFE49EFE2240
:0E027E00C3E49FFFE49EFEE49DFDE49CFC2291
:00000001FF
