:100CBE0041444A20204E544320205247005475721E
:100CCE006E206F6E2061640A005475726E206F661E
:100CDE00662061640A006572726F720A00B5E7D110
:0B0CEE00B9CAC73A20252E32660A0062
:090E0400011000011200011100AF
:040DE9007F0A7E00FF
:0B0DED00EF1FAC0670011E4C70F622D8
:100A600012000E7BFF7A0C79BE7D017F01120DC151
:100A7000758921758C3C758AB0758DFD758BFDD29D
:100A80008ED2AFD2ACD2A9D29CC29FD29E7F9C12F2
:100A90000BFB8E0A8F0B752603AB0BAA0A7D017F19
:100AA00002120C7B120DE97FDC120BFB8E0A8F0BFE
:100AB000752603AB0BAA0A7D067F02120C7B120D72
:100AC000E97FAC120BFB8E0A8F0B752602AB0BAACB
:100AD0000A7D0B7F02120C7B120DE9E51064017098
:100AE0003DF510C2ACD299E51324FE601414601ECB
:100AF000240270237BFF7A0C79CB120D31D28C80CB
:100B0000167BFF7A0C79D7120D31C28C80097BFFDE
:100B10007A0C79E4120D313099FDC299D2ACE5110D
:100B200064016003020A8DF511D299C2AC7F9C1258
:100B30000BFB8E088F09120DE9AC08AD09E4120118
:100B4000317BA17AA079A0783C1200268F0F8E0EFF
:100B50008D0D8C0C7BFF7A0C79EB8F288E278D26E0
:0F0B60008C251206533099FDC299D2AC020A8D32
:03000B00020DA93A
:100DA900C0E0758C3C758AB00512E51264147005B3
:080DB900F512751101D0E032C2
:03002300020CF9D3
:100CF900C0E0C0D075D000C006C007C2988599145D
:100D0900751001AF147E00EF640170057513018041
:100D19000EEF64024E70057513028003751303D03C
:080D290007D006D0D0D0E03263
:060DF800C2A58F80D2A706
:050DFE00007F19DFFE7B
:010E030022CC
:08000300C2A6120DF8C2A722EB
:080E1800D2A6120DF8C2A722B8
:10000E007F381200037F0C1200037F061200037F5D
:04001E008002000359
:100DD700EF64017005ED247F8003ED24BFFF12004F
:020DE7000322E5
:0A0E0E00AC03120DD7AF04020E185A
:100DC100120DD71204EEFF600C120E18740129F9EE
:060DD100E43AFA80EE2274
:080D5B008E288F298C2A8D2BB4
:100D63007F017E00E4FBFAC3EB952BEA952A500E34
:0E0D7300AC28AD291205460BBB00010A80E931
:010D8100224F
:040C7B008B828A835B
:100C7F00120DD7852627AF277E00D3EF94007480FF
:100C8F009480402AEF24FFFDEE34FFFC7F0A120D03
:100C9F005BAD07AC06AF82AE831205587C007D0AB0
:0E0CAF00120558ED2430FF120E18152780C8CC
:010CBD002214
:020BFB00AD0744
:100BFD00E4F522F523C2B6C2B5FBEBC394087480AD
:100C0D00948050237E007480A803088006CEA2E74E
:100C1D0013CE13D8F8FFEDF582EF558224FF92B471
:100C2D00D2B6C2B60B80D3E4FBEBC39410748094A0
:100C3D0080501ED2B6C2B630B7147E80E4A8030829
:100C4D008005CEC313CE13D8F94223EE42220B807A
:100C5D00D8D2B5ED30E306E522FF7E0022E522C4B1
:0D0C6D00F854F0C868FEE523C4540F48FF9A
:010C7A002257
:10002600EC4D6011E8497017ED33EC3304600DE4D4
:10003600FCFFFEFD22E933E8330470F802019F124B
:10004600016A58046009E4CC24815006285009024C
:1000560001A92840030201A6C0E0EB4A7044B9801A
:1000660006D0E0FB020195EF4E701CBD8008EBFF49
:10007600EAFEE9FD80EBE98DF0A4FEE5F002010F52
:10008600E9CDF9EAFEEBFFEF89F0A4FCE5F0CE89B5
:10009600F0A42EFFE435F0CD89F0A42DFEE435F072
:1000A6008067EF4E7005BD80D780C3EF8BF0A4ACA0
:1000B600F0EE8BF0A42CFCE435F0F8EF8AF0A42CDB
:1000C600E5F038FCE433CB8DF0A42CFCE5F03BF8EE
:1000D600EE8AF0A42CFCE5F038F8E433CF89F0A4DE
:1000E6002CFCE5F038CF3400CE89F0A42FFFE5F0E4
:1000F6003EFEE433C98DF0A42EFEE5F039CD8AF03C
:10010600A42FFFE5F03EFEE43DFD33D0E0FB5007B3
:100116000BBB000F0201A9EC2CFCEF33FFEE33FE04
:06012600ED33FD02018132
:10012C0075F020800E75F010800575F0087D007E4E
:10013C00007F003392D530D5031205ADEC3340105F
:10014C00EF33FFEE33FEED33FDEC33FCD5F0ED2257
:0E015C00E5F0247EA2D513CC92E7CDCEFF2293
:1005F100E5392425F8E605392278223007027825E5
:10060100E475F0011205BB0204EE2000EB7F2ED24F
:10061100008018EF540F2490D43440D4FF30040BE1
:10062100EF24BFB41A0050032461FFE53A600215BC
:100631003A053DE53D7002053C30070D7822E47531
:10064100F0011205BBEF020534020D827403D207DB
:100651008003E4C207F5398B228A238924E4F53A21
:10066100F53CF53DE53A60077F2012062C80F575D3
:100671003BFFC201C200C202C203C205C206C208D8
:100681001205FAFF700D3007057F0012063DAF3DE0
:10069100AE3C22B4255FC2D5C2041205FAFF24D0B4
:1006A100B40A00501A75F00A783A30D50508B6FF39
:1006B1000106C6A426F620D5047002D20380D924EF
:1006C100CFB41A00EF5004C2E5D20402092AD201C4
:1006D10080C6D20080C0D20280BCD2D580BAD205F9
:1006E10080B47F2012062C2002077401B53A004025
:1006F100F11205F1FF12062C020665D208D206801E
:10070100951205F1FB1205F1FA1205F1F94A4B7048
:100711000679217A0A7BFF20022EE53A602A7E00C3
:100721008E8275830012050760060EEE653B70F040
:10073100C2D5EBC0E0EAC0E0E9C0E0EE12098AD020
:10074100E0F9D0E0FAD0E0FB1204EEFF60AAEBC0C2
:10075100E0EAC0E0E9C0E012062CD0E02401F9D0C3
:10076100E03400FAD0E0FBE53B0460DCD53BD98006
:1007710087D20280A212096D60F7E53B7001041275
:1007810001B4A93B600DE53B600914F53B120A1465
:10079100EF60F3EA30E702F404C3995077EAF425F5
:1007A1003B0430E701E404F53B800D12096D60C1A3
:1007B100EA053B253B1201B4EA7838F630E701E45B
:1007C100253B04D53B042005011412098AE4C0E04D
:1007D100120A147838E6601320E70714F61206149B
:1007E100802204F6D0E014C0E07F00120614E53B3D
:1007F100600712060B153B800B30050312060BD068
:10080100E0020665D0E00480C512096D60A0E53BF9
:10081100041201B47838EAF6E53B200502600104D0
:05082100240412098A05
:1008260074FF04C0E0120A14120614E53B20050208
:10083600600312060BD0E0B53BE87F4512061E7832
:1008460038E67F2B30E7047F2DF404C0E012062C37
:10085600D0E075F00A84C0F0120615D0E012061535
:10086600020665791080027908C206C2088008D29D
:10087600D5790A8004790AC2D5E53B047002F53BB6
:10088600E4FAFDFEFF1205F1FC7B082001131205B8
:10089600F1FD7B1030000A1205F1FE1205F1FF7B17
:1008A60020EC3382D592D55013C3E43000069FFF67
:1008B600E49EFEE42001039DFDE49CFCE4CBF8C22B
:1008C60001EC700CCFCECDCCE824F8F870F380178D
:1008D600C3EF33FFEE33FEED33FDEC33FCEB33FBBE
:1008E600994002FB0FD8E9EB300105F8D0E0C44887
:1008F600B201C0E00AEC4D4E4F78207B0070C2EA90
:10090600B53B0040BCC0E012098CD0F0D0E020011D
:1009160004C4C0E0C4B201C0F0120615D0F0D5F090
:10092600EB0206651205CB07025308695806D34C3D
:1009360006CF42086D4F08754408754906E8430816
:100946007B5507AC46080A450776470A415006D745
:100956002D06DB2E06FE2B06DF2306FC200A2A2A9E
:10096600069748000006F6E53BB4FF03753B061202
:1009760005F1FC1205F1FD1205F1FE1205F1FF78F5
:10098600310201E3790AA2D5200314300509B91012
:10099600020404B9080104A2D5200602500104206D
:1009A60002689202B53A005034C0E07F2030031945
:1009B6007F30A20272067205500F1209E3C202C20C
:1009C60006C205C2087F30800F300503E9C0E01279
:1009D600062C300503D0E0F9D0E0B53ACC30051747
:1009E6007F30B9100C12062C7F583004077F7880B0
:1009F60003B9080312062C3002057F2D02062C7F50
:100A0600202008F87F2B2006F322920280CF7F0059
:100A1600B4070050052431F8E6FF22286E756C6C89
:100A26002900D2011205F13001F8C201783A30D519
:100A36000108F60206972D504349581205F1240382
:100A4600B405004001E4900A3C9312061D743A1264
:0A0A5600061DD203753A0402086978
:10016A00E9D2E7C933E833F892D5EDD2E7CD33ECDB
:07017A0033FC5002B2D52254
:10018100EC30E7100FBF000C0EBE00080DBD0004DF
:100191000BEB6014A2D5EB13FCED92E7FD2274FF8B
:1001A100FCFDFEFF22E480F8A2D574FF13FC7D80E4
:0301B100E480EFF8
:1001B400F920E72824F950037907E4F42402FB1812
:1001C400DBFDE624FB5014E9600DE4F618E604F6C2
:0F01D400B40A08E4F6D9F57401F60A22C2D5225E
:1001E300ED33EC3392D5FA602AB4FF33EDC2E77BEB
:1001F300FF60067A027908E4227A02791120D50495
:100203007A02790C224E614E002B494E46002D494D
:100213004E4600E47A08F608DAFC7B00740722E80D
:10022300C0E0ECC0E0EDC0E0EEC0E0EFC0E0EA7596
:10023300F010A4CAABF075F04DA42BFBE435F0FC31
:10024300EA2410FAEB34C5FBEC34D9FCEDC2E7FF2A
:1002530075F056A4F42411C5F0F434C58FF0A42A24
:10026300E5F03BE43CF620E7141204AED0E0FFD007
:10027300E0FED0E0FDD0E0FC1203E18014F40412B0
:1002830004AED0E0FFD0E0FED0E0FDD0E0FC1200F1
:1002930026D0E0F8E6FAEDD2E7CD33EC332482FB47
:1002A300E4C3CF33CFCE33CECD33CD33DBF37B07B4
:1002B30075F00A846004F6081B0AE5F0F6088FF06F
:1002C300740AA4FFACF08EF0740AA42CFEACF050B8
:1002D300010C8DF0740AA42CFDE435F0F608DBDE86
:0302E3007407227B
:1002E60002019FE86480F8E933E83360110460F0A6
:1002F600ED33EC337009E8FCE9FDEAFEEBFF22047E
:1003060060DED3EB9FEA9EE99DE8C2E78CF0C2F778
:1003160095F0400CE8CCF8E9CDF9EACEFAEBCFFB44
:1003260012016A85D0F05804700320D5B3E8047032
:10033600075002B2D50201A992D5EC0460F7E4CCCD
:10034600C0E0C398F8603B94186008400DD0E0FB0D
:10035600020181E4FBFAC9FC8028E830E406E4C91E
:10036600FBE4CAFCE830E305E4C9CACBFCE8540761
:100376006010F8C3E913F9EA13FAEB13FBEC13FC6C
:10038600D8F130F52FC3E49CFCEF9BFFEE9AFEED0F
:1003960099FDD0E0FBEF4E4D4C701222DB030201BB
:1003A600A6EC2CFCEF33FFEE33FEED33FDED30E72C
:1003B600EB020181EF2BFFEE3AFEED39FDD0E0FBBB
:1003C60050130BBB00030201A9ED13FDEE13FEEF64
:0803D60013FFEC13FC0201818E
:1003DE000201A9EC5D046005E85904700302019F57
:1003EE0012016A580460F6EC4860F2EC7004FDFEEF
:1003FE00FF22C860DB2481C85009C39860025006F2
:10040E000201A69850CAF582E9294B4A7005AB82C3
:10041E0002019575F0007C1A7880C3EF9BEE9AED81
:10042E0099400DC3EF9BFFEE9AFEED99FDE842F069
:10043E00DC23ACF0D0E0FFD0E0FED0E0FDAB8220BC
:10044E00E7101BEB60BAEC2CFCEF33FFEE33FEED46
:10045E0033FD020181E803F830E705C0F075F000C6
:10046E00EF2FFFEE33FEED33FD40B830E7C280AA2A
:10047E003F8000004120000042C80000447A000086
:10048E00461C400047C35000497424004B18968008
:10049E004CBEBC205A0E1BCA6753C21C749DC5AEFF
:1004AE00FB60065407601C23231204DCEB543860F7
:1004BE00091204C81204D7120026ECF8EDF9EEFA70
:1004CE00EFCB22EB1204D780F1543803241C900496
:1004DE007EFE93FC0EEE93FD0EEE930ECE93FF2258
:03000000020B6F81
:0C0B6F00787FE4F6D8FD75813D020BB6DE
:1004EE00BB010689828A83E0225002E722BBFE020C
:0904FE00E32289828A83E493223F
:10050700BB010CE58229F582E5833AF583E02250A9
:1005170006E92582F8E622BBFE06E92582F8E222F3
:0D052700E58229F582E5833AF583E493220D
:10053400BB010689828A83F0225002F722BBFE01A6
:02054400F322A0
:10054600EF8DF0A4A8F0CF8CF0A428CE8DF0A42EC9
:02055600FE2283
:10055800BC000BBE0029EF8DF084FFADF022E4CC87
:10056800F875F008EF2FFFEE33FEEC33FCEE9DEC50
:10057800984005FCEE9DFE0FD5F0E9E4CEFD22ED96
:10058800F8F5F0EE8420D21CFEADF075F008EF2FE0
:10059800FFED33FD4007985006D5F0F222C398FDD1
:0505A8000FD5F0EA226E
:0E05AD00C3E49FFFE49EFEE49DFDE49CFC225F
:1005BB00FAE6FB0808E6F925F0F618E6CA3AF62241
:1005CB00D083D082F8E4937012740193700DA3A3BF
:1005DB0093F8740193F5828883E4737402936860D3
:0605EB00EFA3A3A380DFD3
:100D8200EFB40A07740D120D8D740A309811A899E8
:100D9200B8130CC2983098FDA899C298B811F630D1
:070DA20099FDC299F59922A9
:100D31001204EE601CFF09E970010AC0E0EAC0E09C
:100D4100EBC0E0120D82D0E0FBD0E0FAD0E0F980F8
:0A0D5100DF7F0A120D82E4FEFF228C
:100B7B00020A60E493A3F8E493A34003F68001F226
:100B8B0008DFF48029E493A3F85407240CC8C3337B
:100B9B00C4540F4420C8834004F456800146F6DF4A
:100BAB00E4800B0102040810204080900E04E47EC8
:100BBB00019360BCA3FF543F30E509541FFEE4933F
:100BCB00A360010ECF54C025E060A840B8E493A306
:100BDB00FAE493A3F8E493A3C8C582C8CAC583CA31
:100BEB00F0A3C8C582C8CAC583CADFE9DEE780BEE9
:010E0D0000E4
:00000001FF
