:020000040800F2
:10000000F804002045010008C9060008E9050008B9
:10001000C50600082F020008170D000800000000A8
:100020000000000000000000000000004908000877
:100030003302000800000000510700085D090008B5
:100040005F0100085F0100085F0100085F01000810
:100050005F0100085F010008350200085F01000829
:1000600071020008A9020008D90200085F01000817
:100070005F0100085F0100085F0100085F010008E0
:100080005F0100085F0100085F0100085F010008D0
:100090005F0100085F0100085F0100080903000814
:1000A0005F0100085F0100085F0100085F010008B0
:1000B0005F0100085F010008C10900085F01000836
:1000C0005F0100085F0100085F0100085F01000890
:1000D0005F010008310A00085F0100085F010008A5
:1000E0005F0100085F0100085F0100085F01000870
:1000F0005F0100085F0100085F0100085F01000860
:100100005F0100085F0100085F0100085F0100084F
:100110005F0100085F0100085F0100085F0100083F
:100120005F0100085F0100085F0100085F0100082F
:10013000DFF80CD000F04AF800480047D91000085A
:10014000F80400200648804706480047FEE7FEE71F
:10015000FEE7FEE7FEE7FEE7FEE7FEE7FEE7FEE777
:1001600061090008310100082DE9F05F0546002013
:1001700092469B4688460646814640241BE0284618
:1001800041464746224600F042F853465A46C01AB6
:10019000914110D311461846224600F029F82D1A35
:1001A00067EB01084F4622460120002100F020F8AD
:1001B00017EB00094E41201EA4F10104DFDC484684
:1001C00031462A464346BDE8F09F0000064C074DE5
:1001D00006E0E06840F0010394E807009847103417
:1001E000AC42F6D3FFF7A8FFB8110008D8110008F9
:1001F000202A04DB203A00FA02F1002070479140E7
:10020000C2F1200320FA03F3194390407047202ADB
:1002100004DB203A21FA02F00021704721FA02F3B0
:10022000D040C2F12002914008431946704700BFF8
:10023000FEE7704710B5012000F0B2F801280CD19C
:100240000A2000F0EBFE07480068012805D10020D5
:10025000054908600549C1F89401012000F09AF8A9
:1002600010BD000000012142948121420000234280
:1002700010B5042000F094F801280BD10A2000F0FA
:10028000CDFE0648006828B90120054908600549E7
:10029000C1F89401042000F07DF810BD080123424C
:1002A000948121420000234210B5082000F078F824
:1002B000012808D10A2000F0B1FE0548006810B9F5
:1002C000012004490860082000F064F810BD000017
:1002D0000C012342A081214210B5102000F060F8EB
:1002E000012808D10A2000F099FE0548006810B9DD
:1002F000002004490860102000F04CF810BD0000F8
:1003000010012342A08121422DE9F0410025002463
:100310000026002730E04FF400711B4800F041F93F
:10032000012829D100F048F90446FA2C00DB24E02A
:10033000C82C03DBFA2C01DA01260AE03C2C03DD91
:100340005A2C01DA012704E00A2C02DD322C00DAF3
:100350000027012E0ED10D48006840000B490860AF
:100360000846006838440860202D03DB0120084956
:10037000087002E0681CC5B2CDE700BF4FF4007002
:1003800000F008F8BDE8F081000C014020000020DA
:100390002400002001490860704700001404014057
:1003A00001460020034A12680A400AB1012000E019
:1003B0000020704714040140002123498279002A5B
:1003C0003AD00A46126803689A430B461A600A1D1F
:1003D000126803689A430B1D1A60027911440A6877
:1003E00003681A430A60184A0832126803689A437D
:1003F000154B08331A601A1D126803689A43124B92
:100400000C331A604279102A0ED11A1F1268036841
:100410001A430D4B08331A601A1D126803681A43F9
:10042000094B0C331A600DE00749427911440A6800
:1004300003681A430A6005E0027911440A680368F8
:100440009A430A60704700000004014030B5002262
:100450008B071C0F0F2303FA04F20B4B8C1053F87D
:1004600024309343084C8D1044F8253023468C10DB
:1004700053F824308C07240F00FA04F42343024C71
:100480008D1044F8253030BD080001402DE9F041C1
:10049000024600250026002000230024002791F8B2
:1004A00003C00CF00F0591F803C00CF0100CBCF168
:1004B000000F03D091F802C04CEA050591F800C086
:1004C000BCF1000F31D0146800202BE04FF0010C7C
:1004D0000CFA00F3B1F800C00CEA03069E4220D1EA
:1004E00083004FF00F0C0CFA03F7BC4305FA03FC32
:1004F0004CEA040491F803C0BCF1280F06D14FF078
:10050000010C0CFA00FCC2F814C00AE091F803C018
:10051000BCF1480F05D14FF0010C0CFA00FCC2F8F9
:1005200010C0401C0828D1D31460B1F800C0BCF141
:10053000FF0F34DD546800202EE000F1080C4FF06E
:10054000010808FA0CF3B1F800C00CEA03069E4259
:1005500021D183004FF00F0C0CFA03F7BC4305FACE
:1005600003FC4CEA040491F803C0BCF1280F05D148
:1005700000F1080C08FA0CF8C2F8148091F803C0D6
:10058000BCF1480F07D100F1080C4FF0010808FA40
:100590000CF8C2F81080401C0828CED35460BDE887
:1005A000F0810246002093680B400BB1012000E06F
:1005B000002070470161704710B5002408E0601CFE
:1005C000C4B2142000F050FDFA2C01DB204610BD0F
:1005D0004FF400710348FFF7E4FF0128EFD02046F5
:1005E000F5E70000000C014000BFFEE71FB5012148
:1005F000082000F0AFF80121084600F0ABF809210F
:100600000120FFF723FF4FF40070ADF800004820F1
:100610008DF8030069461248FFF738FF4FF4007069
:10062000019001208DF80A0000208DF808000C20B0
:100630008DF8090001A8FFF7BFFE17208DF80C0008
:1006400001208DF80F008DF80D0000208DF80E00B0
:1006500003A800F03BF84FF40070FFF79BFE1FBDAE
:10066000000C01401CB50121082000F073F80121A5
:10067000402000F06FF82020ADF8040003208DF832
:10068000060010208DF807002020ADF800000320A0
:100690008DF8020010208DF8030001A90748FFF72C
:1006A000F5FE01A90648FFF7F1FE20210348FFF7F8
:1006B00081FF20210248FFF77DFF1CBD000C014097
:1006C0000018014000BFFEE77047000070B5002130
:1006D00000230F22C47804B3154C246804F4E064AA
:1006E000C4F5E064210AC1F10403CA40447804FA65
:1006F00003F184781440214309010E4C0678A1557A
:10070000047804F01F050124AC4005786D11AD009C
:1007100005F1E025C5F8004109E0047804F01F0563
:100720000124AC40044D0678761145F8264070BD92
:100730000CED00E000E400E080E100E0024901434C
:10074000024A1160704700000000FA050CED00E05D
:100750007047000029B1064A92690243044B9A612E
:1007600004E0034A92698243014B9A61704700009A
:100770000010024030B500210022002400232D4D3E
:100780006D6805F00C0121B1042905D0082923D199
:1007900005E0294D056022E0274D05601FE0254D4D
:1007A0006D6805F47012234D6D6805F480340225E0
:1007B00005EB92421CB9214D554305600BE01D4DE0
:1007C0006D6805F400351DB11C4D5543056002E010
:1007D000194D5543056002E0174D056000BF00BF8D
:1007E000144D6D6805F0F0010909154D6B5C056845
:1007F000DD4045600F4D6D6805F4E061090A104D5C
:100800006B5C4568DD4085600A4D6D6805F460519C
:10081000C90A0B4D6B5C4568DD40C560054D6D68D0
:1008200005F44041890B074D6B5CC568B5FBF3F5DA
:10083000056130BD0010024000127A0000093D0041
:100840000000002010000020704710B500F002F8F2
:1008500010BD00000CB500200190009033480068E6
:1008600040F480303149086000BF3048006800F42F
:10087000003000900198401C0190009818B9019830
:10088000B0F5A06FF1D12948006800F4003010B134
:100890000120009001E0002000900098012843D141
:1008A0002348006840F010002149086008460068AD
:1008B00020F0030008600846006840F0020008606D
:1008C0001A48406819494860084640684860084628
:1008D000406840F4806048600846406820F47C101E
:1008E00048600846406840F4E810486008460068E0
:1008F00040F08070086000BF0C48006800F0007095
:100900000028F9D00948406820F0030007494860F2
:100910000846406840F00200486000BF0348406855
:1009200000F00C000828F9D10CBD000000100240B6
:1009300000200240042808D14FF0E021096941F06D
:1009400004014FF0E022116107E04FF0E021096956
:1009500021F004014FF0E022116170477047000060
:1009600010B51348006840F00100114908600846BE
:100970004068104908400E494860084600680E4922
:1009800008400B4908600846006820F48020086091
:100990000846406820F4FE0048604FF41F0088605D
:1009A000FFF753FF4FF000600449086010BD0000DE
:1009B000001002400000FFF8FFFFF6FE08ED00E027
:1009C00010B501210C4800F022F880B10B480068F6
:1009D00008B9012000E00020084908600848D0F864
:1009E000940108B9012000E00020064908600121B7
:1009F000014800F009F810BD000800409481214230
:100A00000000234294012342CA430282704730B55A
:100A10000246002000230024158A05EA0103958977
:100A200005EA010413B10CB1012000E0002030BD43
:100A300010B5002440F225511C4800F0A8F810B36E
:100A40001A4800F05FF9C4B21948008800F4004069
:100A5000C8B91748008800F4804060B10A2C03D060
:100A600000201349088020E01148008840F400402D
:100A70000F49088019E00D2C06D10D48008840F47C
:100A800080400B49088010E009480088C0F30D0041
:100A900008490C5406480088401C0549088008464F
:100AA0000088C72801DD0020088010BD0038014003
:100AB0001C0000202C00002010B586B00446012147
:100AC0000420FFF747FE01218803FFF743FE1820AB
:100AD0008DF817004FF40070ADF8140003208DF866
:100AE000160005A91B48FFF7D1FC04208DF817005C
:100AF0000002ADF8140005A91648FFF7C7FC0194E1
:100B00000C20ADF80E000020ADF80C00ADF80A0086
:100B1000ADF80800ADF8100001A90F4800F086F804
:100B200001210D4800F01AF8012240F225510A482F
:100B300000F057F825208DF8000001208DF8030003
:100B400003208DF801008DF802006846FFF7BEFD16
:100B500006B010BD000801400038014021B1828973
:100B600042F40052828104E082894DF6FF731A40FC
:100B70008281704702460020B1F5007F00D100BF9E
:100B800013880B400BB1012000E00020704770B5C6
:100B90000246002400230025002040F66A16B142D8
:100BA00000D100BFC1F3421501F01F03012606FA70
:100BB00003F3012D02D19689334006E0022D02D1C4
:100BC000168A334001E0968A33400C12012606FA59
:100BD00004F41688344013B10CB1012000E0002069
:100BE00070BDF0B50346002400260025002040F625
:100BF0006A17B94200D100BF1846C1F3421401F090
:100C00001F06012707FA06F5012C01D10C3004E07C
:100C1000022C01D1103000E014301AB107682F43C4
:100C2000076002E00768AF430760F0BD2DE9F047B9
:100C300086B005460E460024A24600BFA146002706
:100C4000B08900B100BF2F462C8A4CF6FF700440DB
:100C5000F08804432C82AC894EF6F3100440B0882F
:100C600031890843718908430443AC81AC8A4FF64B
:100C7000FF400440B0890443AC8201A8FFF77AFD2D
:100C80001F48874202D1DDF810A001E0DDF80CA07A
:100C9000A88900F4004040B10AEBCA0000EB0A103A
:100CA00031684900B0FBF1F807E00AEBCA0000EB3D
:100CB0000A1031688900B0FBF1F86420B8FBF0F04D
:100CC00004012009642101FB1089A88900F4004077
:100CD00040B1322000EBC900B0FBF1F000F007009A
:100CE000044308E0322000EB09106421B0FBF1F06E
:100CF00000F00F0004432C8106B0BDE8F08700002F
:100D00000038014001468888C0F308007047C1F3ED
:100D100008028280704700BFFEE700000FB4054B59
:100D200010B503A9044A029800F018F810BC5DF849
:100D300014FB0000B51000082800002002E008C8DD
:100D4000121F08C1002AFAD170477047002001E045
:100D500001C1121F002AFBD1704700002DE9FF4F8F
:100D60008DB09B460F460446002606E025280BD092
:100D70005A460F999047641C761C20780028F5D1BC
:100D800011B03046BDE8F08F0025A84601229849F1
:100D900000E0054314F8013F203B02FA03F008424B
:100DA000F7D120782E2817D114F8010F45F004054B
:100DB0002A280ED06FF02F022078A0F130010929E7
:100DC0000AD808EB880102EB410100EB0108641C22
:100DD000F2E757F8048B641C20786C280DD004DCF3
:100DE0004C2812D06A2811D104E074280DD07A283A
:100DF0000CD10AE045F4001507E0617845F4801550
:100E0000814202D1641C05F58015641C2278692A90
:100E100045D008DC002AB3D0582A69D0632A10D004
:100E2000642A08D13BE0702A67D0732A13D0752A50
:100E30005CD0782A5CD010465A460F999047761CB1
:100E4000D3E017F8040B8DF8000000208DF80100A6
:100E5000E946012003E057F8049B4FF0FF30690793
:100E60004FF0000501D40AE06D1C45450DDA8542BE
:100E7000FADB19F805100029F6D106E06D1C854251
:100E8000FCDB19F805100029F8D12E4404E019F80C
:100E9000010B5A460F9990476D1EF8D2A5E00A2023
:100EA0000021CDE90801C5F3025002280DD001CF81
:100EB000C117031E71F100030DDA4FF0000CD0EBE7
:100EC0000C006CEB01012D2308E0FF1D27F0070744
:100ED000F7E80201EDE72B0504D52B238DF8283028
:100EE00001233BE0EB0739D02023F7E70A2000E09D
:100EF00010200021CDE9080107E01020002145F075
:100F00000405CDE908014FF00808C5F30250022896
:100F10000FD001CF00214FF0000A2B071FD5702AF8
:100F20000DD0DDE908C38CF0100C5CEA030C0CD08A
:100F300015E0FF1D27F00707F7E80201EBE7402265
:100F40008DF828204FF0010A0BE050EA010306D08B
:100F500030238DF828308DF8292002239A46582A0C
:100F600004D024A20DF120090B9209E026A2F9E792
:100F7000DDE90823FFF7F8F80B9B9B5C09F8013DBE
:100F800050EA0102F4D1ADEB090020300890680767
:100F900001D44FF001080899884502DDA8EB010053
:100FA00000E000208046002506E00AA85A46405D81
:100FB0000F9990476D1C761C5545F6DB04E03020F8
:100FC0005A460F999047761CB8F10001A8F1010824
:100FD000F5DC05E019F8010B5A460F999047761C8D
:100FE0000899481E08900029F4DC641CC5E600003E
:100FF00009280100303132333435363738396162EF
:1010000063646566000000003031323334353637B2
:101010003839414243444546000000000146114A28
:1010200012684A434FF0E0235A6100229A611A463F
:10103000126942F001021A6100BF4FF0E02210690C
:1010400000F001021AB100F48032002AF5D04FF00E
:10105000E022126922F001024FF0E0231A6100221F
:101060009A617047180000200146114A12784A43DD
:101070004FF0E0235A6100229A611A46126942F049
:1010800001021A6100BF4FF0E022106900F0010276
:101090001AB100F48032002AF5D04FF0E022126934
:1010A00022F001024FF0E0231A6100229A6170479A
:1010B0001400002070B504460D46A1B20548FFF7A4
:1010C00026FE00BF80210348FFF754FD0028F9D019
:1010D000204670BD00380140002400BF00BF4820FA
:1010E00000F050F84FF4A060FFF728FBFFF7BAFAC2
:1010F0004FF4E130FFF7E0FCFFF778FA2EE0142020
:1011000094FBF0F100FB114038B91548006808B9AC
:10111000012000E00020124908600A20FFF77EFF4E
:10112000601CC4B20F480078012817D10E4801682E
:101130000EA0FFF7F3FD00200A4908700A48006876
:101140000D49884202D100200C4908600648006819
:101150000B49884202D1012008490860CFE700000E
:10116000940123422400002020000020CAFDBEDD9F
:101170003A25780D0A0000009D62FF00948121420B
:10118000FD02FF0010B504466FF00400FFF7D2FB2C
:10119000E11704EB5171C1F3C701054A1170104604
:1011A00000784FF47A7148430249086010BD00008E
:1011B0001400002018000020D811000800000020B2
:1011C0002C0000003C0D0008041200082C00002038
:1011D000CC0400004C0D00080000000001020304D4
:1011E00001020304060708090204060800000000C3
:1011F00000000000000000000000000000000000EF
:0412000000000000EA
:0400000508000131BD
:00000001FF
