:03000000020003F8
:0C000300787FE4F6D8FD75811802004AF1
:1001570010083C42A98585A9423C3C42A58989A54E
:02016700423C18
:10016A00E4FDFCC3ED9FEC9E50070DBD00010C8021
:01017A00F292
:01017B002261
:02012100AD0728
:10012300E4FBEBC394087480948050237E007480B6
:10013300A803088006CEA2E713CE13D8F8FFEDF587
:1001430082EF558224FF92B4D2B6C2B60B80D3D2CB
:03015300B5C2B57D
:010156002286
:10008F00AE05AC07AF06120121ECB40800503E904C
:10009F0000A5F82828730200BD0200C10200C502A6
:1000AF0000C90200CD0200D10200D50200D975802F
:1000BF007F227580BF227580DF227580EF227580C9
:0E00CF00F7227580FB227580FD227580FE22CF
:1000DD00E4F518F9C2B5C2B6E4FAEAC3940874801F
:1000ED009480500FAF02EA292408F8E6FD12008F24
:1000FD000A80E70518D3E518941E7480948040D8C3
:10010D00E4F518740829F9D394097480948040C8D3
:04011D00E4F980C4BD
:10000F000200DDE493A3F8E493A34003F68001F22A
:10001F0008DFF48029E493A3F85407240CC8C333F2
:10002F00C4540F4420C8834004F456800146F6DFC1
:10003F00E4800B0102040810204080900157E47EF9
:10004F00019360BCA3FF543F30E509541FFEE493B6
:10005F00A360010ECF54C025E060A840B8E493A37D
:10006F00FAE493A3F8E493A3C8C582C8CAC583CAA8
:10007F00F0A3C8C582C8CAC583CADFE9DEE780BE60
:010169000095
:00000001FF
