:0702A200012000021E000014
:08029A0012022F1202C080FEC7
:06026500C2A58F80D2A7A4
:05026B00007F19DFFE19
:01027000226B
:0802AA00C2A6120265C2A722E0
:0802B200D2A6120265C2A722C8
:10022F007F381202AA7F0C1202AA7F061202AA7F3F
:04023F00800202AA8D
:10024300EF64017005ED247F8003ED24BFFF1202EC
:02025300AA22DD
:0A028700AC03120243AF040202B2FE
:1002190012024312012FFF600C1202B2740129F974
:06022900E43AFA80EE2227
:0801F2008E1A8F1B8C1C8D1D61
:1001FA007F017E00E4FBFAC3EB951DEA951C500EC5
:0E020A00AC1AAD1B1201480BBB00010A80E9C3
:0102180022C3
:0401AF008B828A8332
:1001B300120243851819AF197E00D3EF940074809F
:1001C3009480402AEF24FFFDEE34FFFC7F0A1201E6
:1001D300F2AD07AC06AF82AE8312015A7C007D0AF2
:0E01E30012015AED2430FF1202B2151980C825
:0101F10022EB
:0B027100D288C289D2A8D2AFD2B82236
:100255005389F0438901E4F58AF58CC28CC28D225D
:0B027C00AD07AC068C8CAF058F8A220A
:09029100AF8CEFFEAD8AEDFF22F7
:0602BA00EF24FF928C22EC
:0602C0001202550202715A
:03000300020006F2
:10000600C0E0C0F0C083C082C0D075D000C000C0C0
:1000160001C002C003C004C005C006C007E51070D9
:100026000CFFFE12027C7F011202BA8052E51064B8
:1000360001704F1202918E098F0AE4FFFE12027CB4
:10004600D3E50A94C8E5099432400FE50A94B0E571
:1000560009943650057510028028D3E50A94FEE50A
:10006600099429401AE50A94E6E509942D5010757D
:10007600A000750F01E4FF1202BA75100080037527
:100086001001D007D006D005D004D003D002D0018D
:0D009600D000D0D0D082D083D0F0D0E032A6
:030000000200A358
:0C00A300787FE4F6D8FD7581200200EAA9
:10012F00BB010689828A83E0225002E722BBFE02CE
:09013F00E32289828A83E4932201
:10014800EF8DF0A4A8F0CF8CF0A428CE8DF0A42ECB
:02015800FE2285
:10015A00BC000BBE0029EF8DF084FFADF022E4CC89
:10016A00F875F008EF2FFFEE33FEEC33FCEE9DEC52
:10017A00984005FCEE9DFE0FD5F0E9E4CEFD22ED98
:10018A00F8F5F0EE8420D21CFEADF075F008EF2FE2
:10019A00FFED33FD4007985006D5F0F222C398FDD3
:0501AA000FD5F0EA2270
:1000AF0002029AE493A3F8E493A34003F68001F2CB
:1000BF0008DFF48029E493A3F85407240CC8C33352
:1000CF00C4540F4420C8834004F456800146F6DF21
:1000DF00E4800B01020408102040809002A2E47E0D
:1000EF00019360BCA3FF543F30E509541FFEE49316
:1000FF00A360010ECF54C025E060A840B8E493A3DD
:10010F00FAE493A3F8E493A3C8C582C8CAC583CA07
:10011F00F0A3C8C582C8CAC583CADFE9DEE780BEBF
:0102A9000054
:00000001FF
