:020000040800F2
:100000001811002045010008190E00084D0D0008C8
:10001000150E000855070008CB1F0008000000005F
:100020000000000000000000000000008511000832
:100030005907000800000000A10E000899120008EE
:100040005F0100085F0100085F0100085F01000810
:100050005F0100085F0100085F0100085F01000800
:100060005F0100085F0100085F0100085F010008F0
:100070005F0100085F0100085F0100085F010008E0
:100080005F0100085F0100085F0100085F010008D0
:100090005F0100085F0100085F0100085F010008C0
:1000A0005F0100085F0100085F0100085F010008B0
:1000B0005F0100085F010008311900085F010008B6
:1000C0005F0100085F0100085F0100085F01000890
:1000D0005F010008F91A00085F010008391C0008D8
:1000E0005F0100085F0100085F0100085F01000870
:1000F0005F0100085F0100085F0100085F01000860
:100100005F0100085F0100085F0100085F0100084F
:100110005F0100085F0100085F0100086119000825
:100120005F0100085F0100085F0100085F0100082F
:10013000DFF80CD000F02CFA00480047F129000845
:10014000181100200648804706480047FEE7FEE7F2
:10015000FEE7FEE7FEE7FEE7FEE7FEE7FEE7FEE777
:100160009D12000831010008421C10F8011B0029F3
:10017000FBD1801A704710B5002200E0521C835C4E
:100180008C5CA34201D1002BF8D1D8B2E1B2401A65
:1001900010BD30B50B46014600202022012409E0A5
:1001A00021FA02F59D4205D303FA02F5491B04FA30
:1001B00002F52844151EA2F10102F1DC30BD2DE943
:1001C000F05F0546002092469B46884606468146DB
:1001D00040241BE0284641464746224600F0F9F9F4
:1001E00053465A46C01A914110D31146184622462A
:1001F00000F0E0F92D1A67EB01084F462246012076
:10020000002100F0D7F917EB00094E41201EA4F1A0
:100210000104DFDC484631462A464346BDE8F09FEC
:100220002DE9FE4F804681EA0300C00F0C46009086
:1002300021F0004123F00045B8EB0200A94105D2AE
:100240004046214690461C460B46024623F000409D
:10025000104347D0270DC7F30A00C3F30A51029099
:10026000401A019040286BDAC3F3130040F4801B5E
:100270000098924620B10023D2EB030A63EB0B0BEC
:1002800001985946C0F14002504600F093F90646E5
:100290000D4650465946019A00F0ABF910EB0800A4
:1002A0006141002487EA115284EAE7731A4340D07F
:1002B000009A62B3019A012A4FEA075215DC001B2B
:1002C00061EB02014FF0004202EA0752CDE9004221
:1002D000001C41F5801132462B4600F0ABF903B00B
:1002E000BDE8F08F40462146F9E7001B61EB0201B3
:1002F000001C41F5801300185B412018A2F500177F
:1003000047EB030140EAD570B6196D4111E06D0865
:100310004FEA360645EAC0754FEA0752001B61EB0B
:100320000201001C41F5801149084FEA3000001914
:10033000514132462B4603B0BDE8F04F00F06BB997
:100340000098012240000023D0EB020263EBE0732F
:10035000009821464FEAE074B8EB000061EB04011D
:10036000E9E783F000435BE781F0004158E72DE9BE
:10037000FE4F81EA030404F0004421F000410094A0
:100380004FF0000B23F0004350EA01045ED052EA24
:1003900003045BD0C3F30A54C1F30A552C44A4F2FE
:1003A000F3340194A0FB0254C1F3130141F4801112
:1003B000C3F3130343F4801301FB024400FB034E19
:1003C000840A970A44EA815447EA8357A4FB0768E2
:1003D00002958D0A05FB07854FEA932C04FB0C540C
:1003E0002705029D4FEA065847EA1637B5EB080580
:1003F0006EEB070C870E920E47EA811742EA8312D2
:10040000A7FB0201B6EB0B0164EB00042B0D43EAE2
:100410000C335E1844EB1C50DA465146E7FB0201F0
:10042000C5F313044FEA0B3343EA14534FEA043283
:10043000019C43EA0603A4F10C040294009CCDE95C
:1004400000B400F0F7F803B0BDE8F08F00200146DB
:10045000F9E72DE9F04D81EA030404F0004B21F0A7
:10046000004514464FF0000A23F0004150EA05020F
:1004700020D054EA01021DD0C5F30A570246C5F345
:100480001303C1F31300C1F30A5640F4801543F47B
:100490008013A7EB0608101BD64608F2FD3873EB55
:1004A000050002D308F1010801E092185B41B8F1A0
:1004B000000F03DA00200146BDE8F08D00204FF464
:1004C0008011064684460EE0171B73EB050705D323
:1004D000121B63EB050306434CEA010C49084FEA83
:1004E000300092185B4150EA0107EDD152EA030057
:1004F00012D082EA040083EA0501084305D0101BEC
:10050000AB4106D20122002306E000224FF0004357
:1005100002E06FF0010253101AEB06004CEB085199
:1005200010EB0A0041EB0B01BDE8F04D00F073B891
:10053000C1F30A52C1F3130140F2FF3341F48011B9
:100540009A4202DA00200146704740F233439A4251
:10055000A2F2334202DC524200F03BB800F02AB86B
:1005600030B5041E71F1000404DB4FF0004440423A
:1005700064EB0101141E73F1000405DB1C464FF00F
:100580000043524263EB0403994208BF904230BDDE
:10059000064C074D06E0E06840F0010394E80700D0
:1005A00098471034AC42F6D3FFF7C6FDC82C0008BC
:1005B000E82C0008202A04DB203A00FA02F100208F
:1005C00070479140C2F1200320FA03F31943904091
:1005D0007047202A04DB203A21FA02F000217047FC
:1005E00021FA02F3D040C2F120029140084319469B
:1005F0007047202A06DBCB17203A41FA02F043EA83
:10060000E07306E041FA02F3D040C2F120029140CB
:1006100008431946704710B5141E73F1000408DA38
:10062000401C41F1000192185B411A4301D120F0B6
:10063000010010BD2DE9F04D92469B4611B1B1FA73
:1006400081F202E0B0FA80F220329046FFF7B2FF6A
:1006500004460F4640EA0A0041EA0B0153465A4657
:10066000084313D0114653EA010019D0C8F14002E3
:100670005046FFF7AEFF05460E46504659464246E5
:10068000FFF798FF084305D0012004E020463946D3
:10069000BDE8F08D0020054346EAE0762C43374361
:1006A0000A986305E40AA0EB08000022FD0A44EA68
:1006B00047540A3002D500200146E9E70105101928
:1006C0006941DDE9084500196941BDE8F04DA2E73F
:1006D00070B58C1810F8015B15F0070301D110F804
:1006E000013B2A1106D110F8012B03E010F8016B31
:1006F00001F8016B5B1EF9D12B0705D40023521EB4
:100700000DD401F8013BFAE710F8013BCB1A921C1B
:1007100003E013F8015B01F8015B521EF9D5A14219
:10072000D8D3002070BD000008B50121082000F0DA
:10073000E9FB4FF48070ADF8000003208DF8020053
:1007400010208DF803006946014800F0C5F808BD87
:10075000000C014000BFFEE77047000051B182006D
:10076000A2F1C042126842F001038200A2F1C0422D
:10077000136009E08200A2F1C0421268034B1A40E4
:100780008300A3F1C0431A6070470000FEFF0F0012
:10079000D0E901121143C268114302691143426951
:1007A000114382691143C2691143026A1143426ACB
:1007B0001143826A1143C26A1143026B11430268FA
:1007C0009200A2F1C0421160816808290BD1016832
:1007D0008900A1F1C041096841F040020168890027
:1007E000A1F1C0410A60416B0968426B526841EA5D
:1007F0000211426B926841EA0221426B928941EAFE
:100800000241426B128A41EA0251426B127D41EA77
:100810000261426B926911430268521C9200A2F17C
:10082000C0421160C16AB1F5804F1BD1816B09686C
:10083000826B526841EA0211826B926841EA02219E
:10084000826B128A41EA0251826B127D41EA026197
:10085000826B9269114302689200A2F1C042C2F811
:10086000041107E06FF0704201688900A1F1C041F6
:10087000C1F80421704700B502464FF416332A2010
:1008800000F08EFA002000F08FFA002000F08CFAC1
:10089000012000F089FA3F2000F086FA2B2000F0BA
:1008A0007FFA002000F080FA002000F07DFA01209D
:1008B00000F07AFADF2000F077FA2C2000F070FACE
:1008C00005E0100A00F070FAD0B200F06DFA181EC0
:1008D000A3F10103F5D100BD2DE9F0410246002549
:1008E0000026002000230024002791F803C00CF00C
:1008F0000F0591F803C00CF0100CBCF1000F03D0F1
:1009000091F802C04CEA050591F800C0BCF1000F57
:1009100031D0146800202BE04FF0010C0CFA00F3EA
:10092000B1F800C00CEA03069E4220D183004FF0CC
:100930000F0C0CFA03F7BC4305FA03FC4CEA040461
:1009400091F803C0BCF1280F06D14FF0010C0CFA4E
:1009500000FCC2F814C00AE091F803C0BCF1480FD3
:1009600005D14FF0010C0CFA00FCC2F810C0401C7D
:100970000828D1D31460B1F800C0BCF1FF0F34DDFA
:10098000546800202EE000F1080C4FF0010808FA2E
:100990000CF3B1F800C00CEA03069E4221D183009B
:1009A0004FF00F0C0CFA03F7BC4305FA03FC4CEABA
:1009B000040491F803C0BCF1280F05D100F1080C24
:1009C00008FA0CF8C2F8148091F803C0BCF1480F83
:1009D00007D100F1080C4FF0010808FA0CF8C2F832
:1009E0001080401C0828CED35460BDE8F081000080
:1009F000F0B50A46002300240021002500F000463F
:100A0000B6F1004F02D11D4EF16901E01B4E716835
:100A1000C0F3034583B200F44016B6F5401F08D179
:100A200021F07061154E766826F07066134F7E6077
:100A300012E000F48016B6F5801F06D1032606FAF0
:100A400005F4A14341F0706106E0460D360103FA5A
:100A500006F6B14341F0706122B1460D360103FA4A
:100A600006F6314300F00046B6F1004F02D1034EC6
:100A7000F16101E0014E7160F0BD00000000014035
:100A80000246002093680B400BB1012000E00020DB
:100A9000704701617047000070B50F2600240125E2
:100AA00031E001201D4908600A2001F021FF1CA04F
:100AB00002F0E2F800240AE00A2001F019FF1B48C6
:100AC000008800F4004000B103E0601CC4B2142CA4
:100AD000F2DB00BF0020114908601448008800F4D0
:100AE000004080B111480088C5B200200F4908803D
:100AF0000D2D08D10E4800782B2804D10C488079A0
:100B00003038C5B204E0301EA6F10101CEB2C8D122
:100B100000BF06B9FF25284670BD000090012142A4
:100B200041542B524F4C453F0D0A000094070020C2
:100B300064080020F8B50A260024012501210420BC
:100B400000F0E0F910208DF80300ADF8000003205C
:100B50008DF8020069462E48FFF7BEFE48208DF84A
:100B60000300E803ADF8000003208DF80200694699
:100B70002748FFF7B1FE10212548FFF78AFF012122
:100B80002448FFF735FF0120234908602349C1F8B5
:100B90003C014FF4165001F087F82FE001201E4968
:100BA00008600A2001F0A4FE1DA002F065F80024F0
:100BB0000AE01D48008800F4004000B106E005206E
:100BC00001F096FE601CC4B20A2CF2DB00BF16488E
:100BD000008800F4004088B113480088C5B20020A6
:100BE00011490880042D09D1104800784F2805D1FB
:100BF0000E4840784B2801D1002504E0301EA6F1B4
:100C00000101CEB2CAD100BF06B901252846F8BD00
:100C10000008014000023000900121420000214202
:100C200041540D0A000000009407002064080020D1
:100C300010B5FFF731FF012806D1102306A28C2141
:100C40000A2000F04DFE05E0102306A28C210A20A8
:100C500000F046FE10BD0000524F4C453A4D617306
:100C600074657200524F4C453A536C6176652000B2
:100C70002DE9F04104460F27002501262CE0012034
:100C80001B4908600A2001F033FE214619A001F03B
:100C9000F3FF00250AE0052001F02AFE174800882E
:100CA00000F4004000B103E0681CC5B2142DF2DB73
:100CB00000BF1248008800F4004068B10F48008867
:100CC000C6B200200D490880042E05D10C480078DA
:100CD0004F2801D1002604E0381EA7F10101CFB250
:100CE000CDD100BF07B9FF263046BDE8F081000036
:100CF0009001214225730D0A000000009407002096
:100D00006408002010B50848006830B1102307A21D
:100D10008C216E2000F0E4FD05E0102307A28C2159
:100D20006E2000F0DDFD10BD3C0121425354413ADC
:100D3000436F6E6E65637465642000005354413ADE
:100D4000646973436F6E6E656374000000BFFEE7F5
:100D500008B50121042000F0D5F80121402000F061
:100D6000D1F80120ADF8000028208DF80300032001
:100D70008DF8020069460848FFF7AEFD1C20ADF86B
:100D8000000048208DF8030003208DF8020069461A
:100D90000248FFF7A1FD08BD00080140001801400E
:100DA0004FF0D84108807047014908807047000023
:100DB0000008006C1CB50121082000F0A3F80121F7
:100DC000402000F09FF82020ADF8040003208DF8AB
:100DD000060010208DF807002020ADF80000032049
:100DE0008DF8020010208DF8030001A90748FFF7D5
:100DF00073FD01A90648FFF76FFD20210348FFF7A7
:100E000048FE20210248FFF744FE1CBD000C0140B3
:100E10000018014000BFFEE77047000070B50021D8
:100E200000230F22C47804B3154C246804F4E06452
:100E3000C4F5E064210AC1F10403CA40447804FA0D
:100E400003F184781440214309010E4C0678A15522
:100E5000047804F01F050124AC4005786D11AD0045
:100E600005F1E025C5F8004109E0047804F01F050C
:100E70000124AC40044D0678761145F8264070BD3B
:100E80000CED00E000E400E080E100E002490143F5
:100E9000024A1160704700000000FA050CED00E006
:100EA0007047000029B1064A52690243044B5A6157
:100EB00004E0034A52698243014B5A6170470000C3
:100EC0000010024029B1064AD2690243044BDA619C
:100ED00004E0034AD2698243014BDA6170470000A3
:100EE0000010024029B1064A12690243044B1A61FC
:100EF00004E0034A12698243014B1A617047000003
:100F00000010024029B1064A92690243044B9A61DB
:100F100004E0034A92698243014B9A6170470000E2
:100F20000010024029B1064AD2680243044BDA603D
:100F300004E0034AD2688243014BDA607047000044
:100F40000010024030B500210022002400232D4D66
:100F50006D6805F00C0121B1042905D0082923D1C1
:100F600005E0294D056022E0274D05601FE0254D75
:100F70006D6805F47012234D6D6805F48034022508
:100F800005EB92421CB9214D554305600BE01D4D08
:100F90006D6805F400351DB11C4D5543056002E038
:100FA000194D5543056002E0174D056000BF00BFB5
:100FB000144D6D6805F0F0010909154D6B5C05686D
:100FC000DD4045600F4D6D6805F4E061090A104D84
:100FD0006B5C4568DD4085600A4D6D6805F46051C5
:100FE000C90A0B4D6B5C4568DD40C560054D6D68F9
:100FF00005F44041890B074D6B5CC568B5FBF3F503
:10100000056130BD0010024000127A0000093D0069
:10101000000000201000002010B500F00FF800F0D4
:1010200087F810BD21B1028842F04002028004E03E
:1010300002884FF6BF731A400280704708B501213D
:101040008803FFF73FFF01210820FFF75BFF012125
:101050000802FFF757FF18208DF803004FF40050E7
:10106000ADF8000003208DF8020069461E48FFF726
:1010700033FC18208DF803004FF40040ADF8000059
:1010800003208DF8020069461748FFF725FC182059
:101090008DF803004FF48040ADF800006946124817
:1010A000FFF71AFC10208DF803000002ADF80000D5
:1010B00003208DF8020069460B48FFF70DFC012064
:1010C0000A4908608020ADF8000010208DF8030068
:1010D00003208DF8020069460548FFF7FDFB8021DB
:1010E0000348FFF7D6FC08BD000C0140B081214247
:1010F0000020014010B50022028802F441520B8802
:101100004C8823438C882343CC8823430C89234376
:101110004C8923438C892343CC8923431A4302807F
:10112000838B4FF2FF74234083830B8A038210BDAD
:1011300000B585B00020ADF80C000120ADF8080026
:101140000220ADF806000720ADF810000020ADF831
:101150000400ADF80000ADF80E004FF48270ADF859
:1011600002004FF40070ADF80A0069460448FFF72A
:10117000C1FF01210248FFF755FF05B000BD000087
:1011800000380040704710B500F002F810BD0000B4
:101190000CB50020019000903348006840F4803086
:1011A0003149086000BF3048006800F4003000900A
:1011B0000198401C0190009818B90198B0F5A06FF3
:1011C000F1D12948006800F4003010B101200090EE
:1011D00001E0002000900098012843D123480068D6
:1011E00040F01000214908600846006820F0030024
:1011F00008600846006840F0020008601A4840682D
:10120000194948600846406848600846406840F40C
:10121000806048600846406820F47C1048600846BA
:10122000406840F4E81048600846006840F080706C
:10123000086000BF0C48006800F000700028F9D07A
:101240000948406820F003000749486008464068A4
:1012500040F00200486000BF0348406800F00C0006
:101260000828F9D10CBD0000001002400020024007
:10127000042808D14FF0E021096941F004014FF042
:10128000E022116107E04FF0E021096921F004013B
:101290004FF0E022116170477047000010B513480D
:1012A000006840F001001149086008464068104994
:1012B00008400E494860084600680E4908400B493E
:1012C00008600846006820F48020086008464068EE
:1012D00020F4FE0048604FF41F008860FFF753FFC2
:1012E0004FF000600449086010BD0000001002408B
:1012F0000000FFF8FFFFF6FE08ED00E070B50546C0
:101300000E46144633462A463146284600F003FA74
:10131000200AFFF749FDE0B2FFF746FD70BD00006F
:1013200008B501214FF49470FFF7ECFD18208DF8FB
:1013300003004FF48050ADF8000003208DF8020048
:1013400069465548FFF7C8FA1020ADF80000694615
:101350005248FFF7C1FA2020ADF8000069464F4817
:10136000FFF7BAFA0120ADF8000069464A48FFF7D6
:10137000B3FA01216020FFF7C5FD4FF48040ADF8BE
:10138000000069464548FFF7A7FA4FF40040ADF862
:10139000000069464148FFF79FFA0120ADF80000C0
:1013A00069463E48FFF798FA0220ADF8000069460A
:1013B0003A48FFF791FA8020ADF8000069463848B6
:1013C000FFF78AFA4FF48070ADF8000069463448A0
:1013D000FFF782FA4FF40070ADF80000694630481C
:1013E000FFF77AFA4FF48060ADF8000069462C48A8
:1013F000FFF772FA4FF40060ADF800006946284824
:10140000FFF76AFA4FF48050ADF8000069462448AF
:10141000FFF762FA4FF40050ADF80000694620482B
:10142000FFF75AFA4FF48040ADF8000069461C48B7
:10143000FFF752FA4FF40040ADF800006946184833
:10144000FFF74AFA4FF48070ADF800006946134880
:10145000FFF742FA4FF40070ADF8000069460F48FC
:10146000FFF73AFA4FF48060ADF8000069460B4888
:10147000FFF732FA0120ADF8000010208DF80300CC
:1014800003208DF8020069460648FFF725FA01207F
:101490000549086008BD000000200140001401401B
:1014A00000180140000C01408081214210B5002449
:1014B000FFF736FF00F0F2F8142001F019FADA20F5
:1014C000FFF76EFC7048048800884FF6FF7101EA50
:1014D0000024DB20FFF764FC6B48008804436A4863
:1014E00000880443214669A000F072FDE020FFF768
:1014F00057FC0020FFF758FC1320FFF755FC18207D
:10150000FFF752FC0420FFF74FFC0F20FFF74CFCC5
:101510000620FFF749FC3A20FFF746FC5620FFF76C
:1015200043FC4D20FFF740FC0320FFF73DFC0A2061
:10153000FFF73AFC0620FFF737FC3020FFF734FCBA
:101540003E20FFF731FC0F20FFF72EFCE120FFF7D4
:1015500027FC0020FFF728FC1320FFF725FC1820AC
:10156000FFF722FC0120FFF71FFC1120FFF71CFCF6
:101570000620FFF719FC3820FFF716FC3420FFF790
:1015800013FC4D20FFF710FC0620FFF70DFC0D208B
:10159000FFF70AFC0B20FFF707FC3120FFF704FCE4
:1015A0003720FFF701FC0F20FFF7FEFBC020FFF7FD
:1015B000F7FB1820FFF7F8FB1720FFF7F5FBC1201A
:1015C000FFF7EEFB4120FFF7EFFBC520FFF7E8FB3D
:1015D0000020FFF7E9FB1A20FFF7E6FB8020FFF76A
:1015E000E3FB3620FFF7DCFB0820FFF7DDFB3A20AA
:1015F000FFF7D6FB5520FFF7D7FBB020FFF7D0FB56
:101600000020FFF7D1FBB120FFF7CAFBA020FFF7B6
:10161000CBFBB420FFF7C4FB0220FFF7C5FBB620CD
:10162000FFF7BEFB0020FFF7BFFB2220FFF7BCFB4C
:101630003B20FFF7B9FBE920FFF7B2FB0020FFF7E3
:10164000B3FBF720FFF7ACFBA920FFF7ADFB512060
:10165000FFF7AAFB2C20FFF7A7FB8220FFF7A4FBD4
:101660001120FFF79DFB782001F042F92920FFF7B8
:1016700097FB2C20FFF794FB002000F09FF84FF61B
:10168000FF70FFF7F8F810BD0008006C4C434420D1
:1016900049443A307825780D0A00000000B59DB025
:1016A00001210802FFF7FEFB00200D9008900120A9
:1016B000079000200A900B900C900F2009900020BA
:1016C0000690152001900090002003900490059052
:1016D000052002904FF48050179006200E904FF492
:1016E00080401990102011900020109012900F90BF
:1016F00018901690149015901A901390CDF870D001
:1017000007A81B900EA8FFF743F801210620FFF75A
:1017100025F81DB000BD70B504460D462A20FFF720
:101720003FFB2646E11704EB1161C1F30F20FFF7E1
:101730003BFBE11704EB11610912A4EB012188B214
:10174000FFF732FB1646D11702EB1161C1F30F20F0
:10175000FFF72AFB1646D11702EB11610912A2EB23
:10176000012188B2FFF720FB2B20FFF719FB2E4643
:10177000E91705EB1161C1F30F20FFF715FBE9171E
:1017800005EB11610912A5EB012188B2FFF70CFBF3
:101790001E46D91703EB1161C1F30F20FFF704FBBD
:1017A0001E46D91703EB11610912A3EB012188B280
:1017B000FFF7FAFA2C20FFF7F3FA70BD00B50246E6
:1017C00092B13620FFF7ECFA2820FFF7EDFAB620A9
:1017D000FFF7E6FA0020FFF7E7FA0220FFF7E4FA46
:1017E0003B20FFF7E1FA05E03620FFF7D9FA0820A1
:1017F000FFF7DAFA00BD00002DE9F84F06460D4666
:1018000017461C464FF00009C846C246AB46204664
:10181000E31704EB5373DB1021464FEAE47C04EB3F
:101820005C7C4FEAEC0CA4EBCC0CBCF1000F02D0BA
:101830004FF0010C01E04FF0000C6344224604EB32
:10184000D27C4FEA6C0C03FB0CF3DBB20093A7F1E4
:101850002000C7B24FF000083BE0204800EB071023
:1018600010F808904FF0000A2BE009F0800028B132
:10187000002229463046FFF741FD07E00A9828B9C3
:101880004FF6FF7229463046FFF738FD4FEA4960B0
:101890004FEA1069681C85B2B5F5F07F01DBBDE841
:1018A000F88FA5EB0B00A04207D15D46701C86B2F5
:1018B000B6F5A07F00DBF2E706E00AF1010000F0D8
:1018C000FF0ABAF1080FD0DB00BF08F1010000F0F9
:1018D000FF0800988045C0DB00BFE0E71E00002045
:1018E0002DE9F84104460F4615461E46A04618E06D
:1018F000002000902A78334639462046FFF77CFFC7
:101900006D1C304606EBD07104EB61018CB2B4F56E
:10191000A07F02DB4446B81987B2B7F5F07F00DB41
:1019200002E028780028E3D100BFBDE8F88100007C
:1019300010B50121084800F070F838B10748006878
:1019400008B9012000E00020044908600121024894
:1019500000F054F810BD000000080040940123423C
:1019600010B50121094800F058F868B1084800880E
:1019700040F40040064908800121044800F03EF888
:101980000021024800F03DF810BD000000140040A6
:10199000940700207FB505460C4601212020FFF763
:1019A00091FAADF80850ADF804400020ADF80A00F7
:1019B000ADF8060001A9104800F04CF801221146CC
:1019C0000D4800F03BF801210B4800F01AF8012106
:1019D000094800F013F837208DF8000001208DF839
:1019E000030000208DF8010002208DF802006846F7
:1019F000FFF714FA7FBD000000140040CA430282C2
:101A0000704721B1028842F00102028004E002889E
:101A10004FF6FE731A400280704730B50246002030
:101A200000230024158A05EA0103958905EA0104CB
:101A300013B10CB1012000E0002030BD1AB1838940
:101A40000B43838102E083898B43838170478184C8
:101A500070470000002202881D4B98420ED01D4B9B
:101A600098420BD0B0F1804F08D01B4B984205D064
:101A70001A4B984202D01A4B984204D14FF68F73FA
:101A80001A404B881A43174B984207D0164B98427E
:101A900004D04FF6FF431A40CB881A4302808B884C
:101AA00083850B8803850A4B98420BD0094B9842DB
:101AB00008D00E4B984205D00D4B984202D00D4BEA
:101AC000984201D10B7A038601238382704700007C
:101AD000002C014000340140000400400008004098
:101AE000000C004000100040001400400040014085
:101AF000004401400048014010B5002440F2255147
:101B00001F4800F09EF9002838D01D4800F054FA14
:101B1000C4B221461BA000F05BFA1C48008800F408
:101B2000004058BB1948008800F4804060B10A2C7E
:101B300003D000201549088020E01448008840F4B4
:101B400000401249088019E00D2C06D10F4800888A
:101B500040F480400D49088010E00C480088C0F334
:101B60000D000B490C5409480088401C07490880A7
:101B700008460088C72801DD0020088010BD00004D
:101B80000038014025640D0A000000001C00002000
:101B90009C07002010B586B0044601210420FFF701
:101BA000B1F901218803FFF7ADF918208DF817006E
:101BB0004FF40070ADF8140003208DF8160005A94D
:101BC0001B48FEF789FE04208DF817000002ADF8CF
:101BD000140005A91648FEF77FFE01940C20ADF80D
:101BE0000E000020ADF80C00ADF80A00ADF80800BA
:101BF000ADF8100001A90F4800F072F901210D485D
:101C000000F0B8F8012240F225510A4800F043F9EB
:101C100025208DF8000001208DF8030003208DF8A9
:101C200001008DF802006846FFF7F8F806B010BD15
:101C3000000801400038014010B5002440F2255151
:101C4000154800F0FEF8F8B1134800F0B5F9C4B239
:101C50001248008800F40040B0B910480088B0F580
:101C6000167F12DA00210E48FFF7F1FE0B480088BC
:101C700018B901210A48FFF7C4FE08490888411C29
:101C8000064A118007490C5405E00448008840F4D6
:101C900000400249088010BD004800409407002021
:101CA000001400406408002010B586B004460121ED
:101CB0000820FFF727F901218804FFF703F92948D5
:101CC00000F064F818208DF817004FF48060ADF82C
:101CD000140003208DF8160005A92348FEF7FCFD2B
:101CE00004208DF817004002ADF8140005A91E4825
:101CF000FEF7F2FD01940C20ADF80E000020ADF8C7
:101D00000C00ADF80A00ADF80800ADF8100001A90C
:101D1000144800F0E5F80121124800F02BF80122E8
:101D200040F225510F4800F0B6F827208DF800004A
:101D300001208DF8030002208DF8010003208DF8AA
:101D400002006846FFF76AF841F61F416320FFF77B
:101D500021FE00200549088000210548FFF751FEBB
:101D600006B010BD00480040000C01409407002060
:101D70000014004021B1828942F40052828104E0C3
:101D800082894DF6FF731A408281704710B5044670
:101D90002048844209D101218803FFF7C3F80021BC
:101DA0004FF48040FFF7BEF832E01B48844209D16F
:101DB00001214804FFF796F800214FF40030FFF7A7
:101DC00091F825E01548844209D101218804FFF7E4
:101DD00089F800214FF48020FFF784F818E01048BC
:101DE000844209D10121C804FFF77CF800214FF497
:101DF0000020FFF777F80BE00A48844208D1012160
:101E00000805FFF76FF800214FF48010FFF76AF81C
:101E100010BD000000380140004400400048004070
:101E2000004C00400050004002460020B1F5007F09
:101E300000D100BF13880B400BB1012000E000204F
:101E4000704770B50246002400230025002040F6AC
:101E50006A16B14200D100BFC1F3421501F01F0361
:101E6000012606FA03F3012D02D19689334006E0DC
:101E7000022D02D1168A334001E0968A33400C12BB
:101E8000012606FA04F41688344013B10CB101207F
:101E900000E0002070BDF0B50346002400260025B8
:101EA000002040F66A17B94200D100BF1846C1F3BE
:101EB000421401F01F06012707FA06F5012C01D193
:101EC0000C3004E0022C01D1103000E014301AB1C3
:101ED00007682F43076002E00768AF430760F0BD63
:101EE0002DE9F04786B005460E460024A24600BF05
:101EF000A1460027B08900B100BF2F462C8A4CF6BE
:101F0000FF700440F08804432C82AC894EF6F31035
:101F10000440B08831890843718908430443AC8187
:101F2000AC8A4FF6FF400440B0890443AC8201A85C
:101F3000FFF708F81F48874202D1DDF810A001E042
:101F4000DDF80CA0A88900F4004040B10AEBCA00FB
:101F500000EB0A1031684900B0FBF1F807E00AEB2A
:101F6000CA0000EB0A1031688900B0FBF1F8642068
:101F7000B8FBF0F004012009642101FB1089A88955
:101F800000F4004040B1322000EBC900B0FBF1F09A
:101F900000F00700044308E0322000EB0910642140
:101FA000B0FBF1F000F00F0004432C8106B0BDE857
:101FB000F08700000038014001468888C0F308001F
:101FC0007047C1F308028280704700BFFEE700003F
:101FD0000FB4054B10B503A9044A029800F0ECF8C1
:101FE00010BC5DF814FB00003D2900089807002094
:101FF00037B514460846064B6A46214600F0DCF821
:1020000004466946002000F06EFC20463EBD0000FC
:10201000E728000802E008C8121F08C1002AFAD108
:1020200070477047002001E001C1121F002AFBD158
:10203000704700002DE9FF5F82B00021DDE9043028
:10204000020DDDF840B0034318D044F61050A2F260
:10205000FF3242431514119801281FD0A5EB0B0045
:10206000401C5FEA000A4FF000064E4FDFF838913F
:10207000B046504615D5CAF1000413E0119801246A
:102080004AA3012801D16FEA0B010298119AC0E915
:102090000031C0E9024206B0BDE8F09FCBF100007C
:1020A000DFE704460021404A491842EB0450CDE9DD
:1020B000001012E0E00707D032463B464046494652
:1020C000FEF755F98046894632463B46104619468A
:1020D000FEF74DF906460F466410002CEAD1DDE903
:1020E0000401DDE90023BAF1000F06DAFEF73FF93B
:1020F00042464B46FEF73BF905E0FEF7AAF9424699
:102100004B46FEF7A6F904460E460022284BFEF782
:1021100027FA03D84FF0FF30014607E00022254B95
:1021200020463146FEF77CF8FEF702FA102409E05B
:10213000002C0ADB0A220023FEF741F8039B303211
:102140001A55641E50EA0102F2D1641C039AC4F1CC
:1021500011031444119A012A03D0012208430DD11E
:102160000AE0084304D000204FF0110B119072E7F1
:10217000A3EB0B056D1E0DE05B4504DD4FF0000287
:1021800005F1010504E003DA4FF00002A5F10105B5
:10219000002AECD002981199C0E90231C0E900454B
:1021A00079E70000000014400000F03F300000001C
:1021B0000000F0430000E03F2DE9FF4F95B09B4643
:1021C0008946064600250FE2252877D100242746B8
:1021D000F84A0121059400E0044316F8013F203B32
:1021E00001FA03F01042F7D130782A2811D06FF0AD
:1021F0002F033078A0F13002092A16D8059A44F04E
:10220000020402EB820203EB42021044761C0590AA
:10221000EFE759F8042B0592002A03DA504244F400
:102220000054059044F00204761C30782E2816D114
:1022300016F8010F44F004042A280DD06FF02F0285
:102240003078A0F13003092B09D807EB870302EBA4
:102250004303C718761CF3E759F8047B761C3078E3
:102260006C280FD006DC4C2817D068280DD06A28BF
:1022700014D104E0742810D07A280FD10DE044F472
:1022800000140AE044F4801401E044F4401472782D
:10229000824202D104F58014761C761C30786628C0
:1022A0000BD013DC582877D009DC002875D04528DE
:1022B000F6D04628F4D047281AD19DE118E06328CB
:1022C00035D0642879D0652812D195E1702873D073
:1022D00008DC6728F1D069286FD06E280DD06F28F0
:1022E00006D1B5E073282CD0752875D0782874D025
:1022F0005A46179990476D1C75E1C4F302500228A5
:1023000009D003280DD0D9F8001004280DD00D6095
:1023100009F1040967E1D9F80010EA17C1E9005290
:10232000F6E7D9F800100D80F2E70D70F0E719F824
:10233000041B8DF8001000208DF80100EA460120F2
:1023400003E059F804AB4FF0FF3061074FF0000194
:1023500002D40DE008F101018846B9420FDA804548
:10236000F8DB1AF808100029F4D108E008F101019F
:1023700088468142FADB1AF808100029F6D1059840
:102380005B46A0EB080721463846179A00F094FAFE
:10239000284400EB080507E04DE029E10DE01AF8BC
:1023A000010B5A4617999047B8F10108F7D25B46DE
:1023B00021463846179A13E142E00A220092C4F3FC
:1023C00002524FF0000A022A08D059F804CB032A1F
:1023D0004FEAEC710AD00DE029E02AE009F107018B
:1023E00021F00702F2E802C1914609E00FFA8CFCE5
:1023F0004FEAEC71042A03D14FFA8CFC4FEAEC71DE
:10240000002907DA0A460021DCF1000C61EB020129
:102410002D2202E0220504D52B228DF80420012272
:1024200003E0E20701D02022F7E7904659E00A21B5
:1024300002E010220DE010214FF0000A00910BE0A5
:1024400010224FF0000A44F004040827009203E031
:1024500008224FF0000A0092C4F30252022A05D06B
:1024600059F804CB0021032A08D009E009F107013B
:1024700021F00702F2E802C1914605E01FFA8CFC48
:10248000042A01D10CF0FF0C4FF00008220728D5D8
:10249000702806D0009B83F0100353EA0A0305D08E
:1024A0000EE040228DF80420012208E05CEA0102DF
:1024B00006D030228DF804208DF8050002229046C7
:1024C000009B83F0080353EA0A030AD15CEA010285
:1024D00001D1620705D530228DF804204FF00108A4
:1024E0007F1E582804D034A003900EA802900DE05F
:1024F00036A0F9E753466046009AFDF760FE844631
:102500000398825C0298401E029002705CEA01000F
:10251000F0D1029806A9081A00F1200A600702D536
:1025200024F4803400E00127574502DDA7EB0A00C0
:1025300000E0002000EB0A01009005984144401A99
:102540000590E00306D45B462146179A059800F0F3
:10255000B3F90544002706E001A85A46C05D179963
:1025600090476D1C7F1C4745F6DBE0030CD55B46AE
:102570002146179A059800F09FF9054404E03020A1
:102580005A46179990476D1C0099481E00900029E3
:10259000F5DC08E0029802995A460078491C02913D
:1025A000179990476D1CBAF10001AAF1010AF1DCFC
:1025B00065E1000009280100303132333435363707
:1025C000383961626364656600000000303132337F
:1025D000343536373839414243444546000000001F
:1025E00000F058F90544761C307800287FF4ECADF3
:1025F00019B02846BDE8F08F620700D4062709F11C
:10260000070222F0070CFCE80223E14603F0004831
:102610005FEA080C02D00FF2702C0DE05FEA045C58
:1026200002D50FF2682C07E05FEAC47C02D00FF2FB
:10263000602C01E0AFF2700C4FF0FF3823F0004344
:10264000CDF850C065280CD006DC452809D04628B6
:102650001DD047283DD13DE0662818D067287ED19F
:1026600038E00021112F01DB112000E0781CCDE9BA
:10267000000106A90EA8FFF7DDFCDDE90F010E9AA7
:1026800003910021009207F1010A04914DE04FF0FF
:1026900000400097CDE9011006A90EA8FFF7CAFC7B
:1026A000DDE90F0203920E9B11990022DDF80CA0C8
:1026B0000093049211B9791C00EB010AB7EB0A00F0
:1026C00004D4C0F1FF3007F1010A0490AAEB07001F
:1026D000019044E0012F00DA01270021112F01DDD4
:1026E000112000E03846CDE9000106A90EA8FFF749
:1026F000A1FCDDE90F010E9A0391002104910092E3
:10270000BA4621070CD40399514500DA8A46BAF13A
:10271000010F05DD009AAAF10101515C302908D0B2
:10272000B84202DA10F1040F06DA0121CDE90110F6
:1027300015E0AAF10101E9E7002805DC049901444C
:102740000491AAEB000102E0411C514500DD8A46DC
:102750000499401A401C01904FF00040029020075D
:1027600004D40198504501DBCDF8048000208DF899
:102770004F0002980DF14F07B0F1004F25D02B20EC
:102780000E9002984FF0020800280CDA40420290A6
:102790002D200E9007E00A210298FDF7FAFC303157
:1027A000029007F8011DB8F10001A8F10108F2DC60
:1027B00002980028EFD1791E0E980870307800F04A
:1027C000200040F0450007F8020D12A8C01B00F1E0
:1027D00007081498007800B1012000EB0A01019865
:1027E00001EBE07105984144401A401E0590E0035A
:1027F00006D45B462146179A059800F05DF805441B
:102800001498007818B15A46179990476D1CE00348
:1028100024D55B462146179A059800F04DF80544EB
:102820001CE00498002807DBDDE90301884203DD92
:102830000098405C179901E0179930205A4690475C
:10284000049805F10105401C04900198401E019078
:1028500004D12E205A46179990476D1CBAF10001F9
:10286000AAF1010ADDDC05E017F8010B5A461799B9
:1028700090476D1CB8F10001A8F10108F4DC5B463B
:102880002146179A0598ABE62D0000002B000000AA
:10289000200000002DE9F041044600251E461746A1
:1028A000880404D405E039462020B0476D1C641E1E
:1028B000F9D52846BDE8F0812DE9F0410446002510
:1028C0001E469046C80301D5302700E02027880423
:1028D00004D505E041463846B0476D1C641EF9D565
:1028E0002846BDE8F0810A68531C0B6010707047E1
:1028F0000146114A12684A434FF0E0235A61002210
:102900009A611A46126942F001021A6100BF4FF043
:10291000E022106900F001021AB100F48032002AAE
:10292000F5D04FF0E022126922F001024FF0E023CF
:102930001A6100229A6170471800002070B50446A1
:102940000D46A1B20548FFF73CFB00BF80210348BC
:10295000FFF76AFA0028F9D0204670BD0038014020
:1029600010B510212148FEF78BF880B90A20FFF737
:10297000BFFF10211D48FEF783F840B900BF1021AA
:102980001A48FEF77DF80028F9D0012010BD082173
:102990001648FEF775F880B90A20FFF7A9FF08214D
:1029A0001248FEF76DF840B900BF08210F48FEF746
:1029B00067F80028F9D00220E8E704210B48FEF769
:1029C0005FF880B90A20FFF793FF04210748FEF75C
:1029D00057F840B900BF04210448FEF751F8002819
:1029E000F9D00320D2E70020D0E700000018014012
:1029F000002600250024482000F024F94FF4A060B0
:102A0000FEF744FAFEF7D6F9FEF706FB4FF4E13085
:102A1000FFF7C0F8FEF79CF9FDF786FEFEF746FDCE
:102A20004FF47A70FFF764FF13E0102354A25A2189
:102A30000A20FEF755FF4FF4FA70FFF759FF1023F5
:102A400053A25A210A20FEF74BFF4FF4FA70FFF70A
:102A50004FFFFEF76FF80028E7D1102350A25A214C
:102A60000A20FEF73DFFFEF7E3F86420FFF740FF82
:102A700000204F49088081E0FFF772FF0446012CD7
:102A800019D1FEF709F80446FF2C14D00CB9012027
:102A900000E0002004461CB946A0FEF7E9F802E079
:102AA00047A0FEF7E5F8FEF7C3F848A0FEF7E0F808
:102AB000C820FFF71DFF322E0AD1002646480068C5
:102AC00008B9012000E0002043490860FEF71AF928
:102AD0003748008800F4004000284DD03448008872
:102AE000C0F30E0500203D4948550B2D01D00A2D9D
:102AF00039D13BA13948FDF73EFB40B900203B49A5
:102B0000086010233AA2A0210A20FEF7E9FE3BA1AB
:102B10003248FDF730FB40B90120344908601023EA
:102B200039A2A0210A20FEF7DBFE3AA12B48FDF7CF
:102B300022FB48B901202D490C310860102338A22E
:102B4000A0216E20FEF7CCFE38A12448FDF713FB30
:102B500048B9102338A2A0216E20FEF7C1FE002044
:102B600022490C31086010231C4ABE211420FEF7B4
:102B7000B7FE00200E490880701CC6B27CE700003A
:102B800048433035204572726F722020202020008B
:102B9000506C6561736520436865636B212121007A
:102BA000484330352073756363657373000000001C
:102BB0009407002041542B524F4C453D30000000FB
:102BC00041542B524F4C453D3100000041542B5293
:102BD000455345540000000094012342640800203E
:102BE0002B4C454431204F4E0D0A00009481214268
:102BF0004C4544313A204F4E000000002B4C4544D8
:102C000031204F46460D0A004C4544313A4F464666
:102C1000000000002B42454550204F4E0D0A000099
:102C2000424545503A204F4E000000002B4245459A
:102C300050204F46460D0A00424545503A4F464601
:102C40000000000010B504466FF00400FEF710FB12
:102C5000E11704EB5171C1F3C701054A1170104629
:102C600000784FF47A7148430249086010BD0000B3
:102C700014000020180000200FB438B505A80090FB
:102C80000F48009A0499FFF7B3F9002000900C4810
:102C9000FDF76AFA85B200240DE000BF4021094823
:102CA000FFF7C2F80028F9D00548015D0548FFF795
:102CB00088F9601C84B2AC42EFDB38BC5DF814FBD1
:102CC000BC0A002000480040E82C0008000000205A
:102CD0009C070000D0060008503100089C07002027
:102CE0007C09000024200008412D01020304040097
:102CF00009200607080902040608131FCC820C12DB
:102D00000812305A6006216F022003FC1E20064183
:102D1000400B0E1811043FFF10840C78120F151091
:102D2000840F3816C0077818842912100A780F8487
:102D300010C411240E9812E41284130808126802B9
:102D40001170400907E01818200440026009400291
:102D50002004181807E0280B0240024001800FF001
:102D600001800A312A80024B0FF80829DB11120D6D
:102D7000D20E491A6902218A0CCC51120612182C63
:102D80006001800729C1380D07F0080810041004FD
:102D9000080807F0F0160408041FFC1A0402513852
:102DA0000C0E0C10141024104411840E481E0C1824
:102DB000100411024C12880CC91808E003200424E6
:102DC00008243442242D1F981084203C10881020A1
:102DD00019602A88104B1888F9121C12103C10FC3C
:102DE000130839601E3811441084343C440E3830C6
:102DF000114809088C1044104408889041AC030C19
:102E000003C4AC010106F02F014002200410C621CA
:102E1000AB0220024129DA170410022001403A8057
:102E2000701112122808100C106C10800F5A300EFE
:102E3000E00C1813E4142417C4082807D012041057
:102E4000083C03C41C4007401AE4A32E0410041FCE
:102E5000FCBE3C11040EC029301A101619021B08C2
:102E60001CC1292049102B0808B069301B17C41257
:102E70007A1810111417C0105A0870393014441CF5
:102E8000785A40401A849A2C8010844A2912695436
:102E900049FB111B011002141FFE10196F59504FEE
:102EA00003801464181C2E393649024A0C10221F64
:102EB0001904694E261FFC0C04031CE010181211A3
:102EC000ED07F00808B02D1084108002320F192091
:102ED0001C181024028E1C080A07F2C01F11C01112
:102EE000300E0C64111D0E1C1104321A84C22238DB
:102EF0001A189659B0190C1930114B1FF890191661
:102F00002AF8B4121E1311E0121C2D7013801C1E1F
:102F100014C0103C1AE0A22EE0103C1FC060280D27
:102F2000180C163401C001C01634180C46121C13BC
:102F300013042CFC13042E2118090804101C10641F
:102F40001084102B041061512D7FFE400202411AA3
:102F500030F71303801A603919E721491AA37FFE5D
:102F600012203A40024220DA0102891A812E980189
:102F700024014402111AFCC611131FFC1688010417
:102F80000104128852704A7010391299101B1108EE
:102F90002A32044AF83E19403AC871191C1D0FFC28
:102FA0001104021139C13CD601290224C901061BB2
:102FB0001004363A848B19F629402E01041904199D
:102FC0000A294C4112033F010101190119D239307C
:102FD00012241E4001B4010C32391239145930192F
:102FE0006E1AFC04114906112906D96019A039BED0
:102FF00019101AF830140101FF0A1385E01A051A96
:103000003A010A2942295452805CCC0124023A98A0
:103010007219023A0754590E3AF88C1C0401083808
:103020003936130170120C1C1001600A111501F0E1
:10303000010C1C3001C0041A0C0C49B2128C2E7405
:103040000170018C42199014810171120E4A1830DE
:1030500019121A842A2C34014408A11201873EFC5B
:103060004002400283FFFF29162B3EFC3A611260AA
:103070001A80021A40021A20020321B3F02318E03A
:1030800013F8E01B7FF00413CCFF10083F9FFF8074
:10309000199FFF1C0198E6CC4AC6044B81CE044B15
:1030A000838E0413870F180B018F0F0201BE07FEDA
:1030B00001F804168003FC01800214F8031DD6BE3B
:1030C0002A03047A80041E07FFFFE00F045A0C1045
:1030D0001E01FFFF8003041A01D4111381CC1409CF
:1030E000E19E1419F91C14183E38143807E01678BC
:1030F00001F80670147FFE701A1F7E1A07EE031087
:1031000001C0031EC5F432043A0C04180C0FBE7F34
:10311000E00FBEFFE00DB660042D6CC00FBE041EB4
:1031200067C00CB66304180B67800FBE60180FB63B
:103130007FFC2010101C0DA6401C19E6FFDC38E7B0
:10314000C01879C61D38F18607821A0382011A0059
:0400000508000131BD
:00000001FF
