:020000040800F2
:10000000900400204501000835030008DD020008C7
:1000100031030008B9010008D30F000800000000F8
:10002000000000000000000000000000D5040008EF
:10003000BD01000800000000BD030008E90500083C
:100040005F0100085F0100085F0100085F01000810
:100050005F0100085F0100085F0100085F01000800
:100060005F0100085F0100085F0100085F010008F0
:100070005F0100085F0100085F0100085F010008E0
:100080005F0100085F0100085F0100085F010008D0
:100090005F0100085F0100085F0100085F010008C0
:1000A0005F0100085F0100085F0100085F010008B0
:1000B0005F0100085F0100085F0100085F010008A0
:1000C0005F0100085F0100085F0100085F01000890
:1000D0005F010008E10C00085F0100085F010008F3
:1000E0005F0100085F0100085F0100085F01000870
:1000F0005F0100085F0100085F0100085F01000860
:100100005F0100085F0100085F0100085F0100084F
:100110005F0100085F0100085F0100085F0100083F
:100120005F0100085F0100085F0100085F0100082F
:10013000DFF80CD000F02EF800480047E11100086D
:10014000900400200648804706480047FEE7FEE787
:10015000FEE7FEE7FEE7FEE7FEE7FEE7FEE7FEE777
:10016000ED0500083101000830B50B4601460020BE
:100170002022012409E021FA02F59D4205D303FA69
:1001800002F5491B04FA02F52844151EA2F10102EA
:10019000F1DC30BD064C074D06E0E06840F001039D
:1001A00094E8070098471034AC42F6D3FFF7C4FF39
:1001B0007C1200089C12000800BFFEE770472DE982
:1001C000F0410246002500260020002300240027DD
:1001D00091F803C00CF00F0591F803C00CF0100C5F
:1001E000BCF1000F03D091F802C04CEA050591F86C
:1001F00000C0BCF1000F31D0146800202BE04FF09C
:10020000010C0CFA00F3B1F800C00CEA03069E42A0
:1002100020D183004FF00F0C0CFA03F7BC4305FA12
:1002200003FC4CEA040491F803C0BCF1280F06D18A
:100230004FF0010C0CFA00FCC2F814C00AE091F86F
:1002400003C0BCF1480F05D14FF0010C0CFA00FCC3
:10025000C2F810C0401C0828D1D31460B1F800C007
:10026000BCF1FF0F34DD546800202EE000F1080CD3
:100270004FF0010808FA0CF3B1F800C00CEA0306CD
:100280009E4221D183004FF00F0C0CFA03F7BC43C0
:1002900005FA03FC4CEA040491F803C0BCF1280FF2
:1002A00005D100F1080C08FA0CF8C2F8148091F896
:1002B00003C0BCF1480F07D100F1080C4FF0010852
:1002C00008FA0CF8C2F81080401C0828CED35460FD
:1002D000BDE8F081416170470161704700BFFEE7F2
:1002E00008B50121082000F07BF80121402000F032
:1002F00077F810208DF803002020ADF800000320CF
:100300008DF8020069460848FFF759FF694607481B
:10031000FFF755FF20210448FFF7DEFF20210348A7
:10032000FFF7DAFF08BD0000000C01400018014093
:1003300000BFFEE77047000070B5002100230F22C8
:10034000C47804B3154C246804F4E064C4F5E06494
:10035000210AC1F10403CA40447804FA03F1847805
:100360001440214309010E4C0678A155047804F08D
:100370001F050124AC4005786D11AD0005F1E025A5
:10038000C5F8004109E0047804F01F050124AC40E1
:10039000044D0678761145F8264070BD0CED00E05E
:1003A00000E400E080E100E002490143024A1160FC
:1003B000704700000000FA050CED00E070470000F7
:1003C00029B1064AD2690243044BDA6104E0034AC8
:1003D000D2698243014BDA6170470000001002408D
:1003E00029B1064A92690243044B9A6104E0034A28
:1003F00092698243014B9A617047000000100240ED
:1004000030B500210022002400232D4D6D6805F039
:100410000C0121B1042905D0082923D105E0294D7B
:10042000056022E0274D05601FE0254D6D6805F44D
:100430007012234D6D6805F48034022505EB92425D
:100440001CB9214D554305600BE01D4D6D6805F449
:1004500000351DB11C4D5543056002E0194D554353
:10046000056002E0174D056000BF00BF144D6D68C8
:1004700005F0F0010909154D6B5C0568DD4045602C
:100480000F4D6D6805F4E061090A104D6B5C45681D
:10049000DD4085600A4D6D6805F46051C90A0B4D59
:1004A0006B5C4568DD40C560054D6D6805F44041F5
:1004B000890B074D6B5CC568B5FBF3F5056130BD75
:1004C0000010024000127A0000093D0000000020E8
:1004D00010000020704710B500F002F810BD0000B9
:1004E0000CB50020019000903348006840F4803043
:1004F0003149086000BF3048006800F400300090C7
:100500000198401C0190009818B90198B0F5A06FAF
:10051000F1D12948006800F4003010B101200090AA
:1005200001E0002000900098012843D12348006892
:1005300040F01000214908600846006820F00300E0
:1005400008600846006840F0020008601A484068E9
:10055000194948600846406848600846406840F4C9
:10056000806048600846406820F47C104860084677
:10057000406840F4E81048600846006840F0807029
:10058000086000BF0C48006800F000700028F9D037
:100590000948406820F00300074948600846406861
:1005A00040F00200486000BF0348406800F00C00C3
:1005B0000828F9D10CBD00000010024000200240C4
:1005C000042808D14FF0E021096941F004014FF0FF
:1005D000E022116107E04FF0E021096921F00401F8
:1005E0004FF0E022116170477047000010B51348CA
:1005F000006840F001001149086008464068104951
:1006000008400E494860084600680E4908400B49FA
:1006100008600846006820F48020086008464068AA
:1006200020F4FE0048604FF41F008860FFF753FF7E
:100630004FF000600449086010BD00000010024047
:100640000000FFF8FFFFF6FE08ED00E0F0B50C46F5
:10065000154600220021068C4FF6FE773E400684A8
:10066000028B018C4FF60C7632407E1C06EA031694
:100670002E433243104EB0420ED0104EB0420BD03B
:10068000B0F1804F08D00E4EB04205D00D4EB042B2
:1006900002D00D4EB04206D14FF6FD76314044F007
:1006A0000106314305E04FF6F576314044F001068E
:1006B000314302830184F0BD002C0140003401402D
:1006C0000004004000080040000C0040F0B50C465B
:1006D0001546002200210026078C4FF6EF7C07EA22
:1006E0000C070784028B018C4FF6FF7707EA04168C
:1006F00040F6FF473A404FF6FF7707EA03373A43A1
:100700004FF6FF7707EA05273A43114FB8420ED05C
:10071000104FB8420BD0B0F1804F08D00E4FB84206
:1007200005D00E4FB84202D00D4FB84206D14FF659
:10073000DF77394046F01007394305E04FF65F7721
:10074000394044F01007394302830184F0BD0000B2
:10075000002C01400034014000040040000800402B
:10076000000C0040F0B50C46154600220021002682
:10077000078C4FF6FF6C07EA0C070784828B018C0D
:100780004FF6FF7707EA04264FF60C773A404FF60C
:10079000FF7707EA03172F433A43114FB8420ED0B1
:1007A000104FB8420BD0B0F1804F08D00E4FB84276
:1007B00005D00E4FB84202D00D4FB84206D14FF6C9
:1007C000FF57394046F48077394305E04FF2FF5731
:1007D000394044F48077394382830184F0BD0000BE
:1007E000002C01400034014000040040000800409B
:1007F000000C0040F0B50C461546002200210026F2
:10080000078C4EF6FF7C07EA0C070784828B018C6D
:100810004FF6FF7707EA043640F6FF473A404FF6B7
:10082000FF7707EA05273A434FF6FF7707EA0337D2
:100830003A43114FB8420ED0104FB8420BD0B0F12E
:10084000804F08D00E4FB84205D00E4FB84202D0AC
:100850000D4FB84206D14DF6FF77394046F4805728
:10086000394305E047F6FF57394044F48057394390
:1008700082830184F0BD0000002C0140003401405F
:100880000004004000080040000C004030B587B074
:1008900005460C4601210420FFF7A2FD0121082096
:1008A000FFF78EFD04208DF81B000220ADF8180024
:1008B00006A91348FFF783FC0020ADF81200ADF83D
:1008C0000E00ADF81050ADF80C4003A90D4800F033
:1008D000BDF80420ADF800000020ADF80800ADF828
:1008E0000200ADF806000120ADF804006946054895
:1008F00000F028F80121034800F009F807B030BDE6
:1009000000080140000C0040CA430282704721B138
:10091000028842F00102028004E002884FF6FE7372
:100920001A40028070470146088F70470146888C44
:10093000704702460020138A0B400BB1012000E0F3
:100940000020704770B505460C46244885420ED0FD
:10095000234885420BD0B5F1804F08D0214885420D
:1009600005D02148854202D02048854200D100E0D0
:1009700000BF208850B92389A28861882846FFF7E4
:1009800065FEE188284600F035F825E02088042837
:100990000AD12389A28861882846FFF797FEE1885B
:1009A000284600F030F817E0208808280AD123896B
:1009B000A28861882846FFF7D5FEE188284600F026
:1009C0002FF809E02389A28861882846FFF712FFE3
:1009D000E188284600F02DF870BD0000002C014091
:1009E000003401400004004000080040000C0040BA
:1009F00081847047028B4FF6F3731A400283028B97
:100A00000A4302837047028B4FF2FF331A4002837E
:100A1000028B4FF6FF7303EA01231A4302837047E8
:100A2000828B4FF6F3731A408283828B0A43828350
:100A30007047828B4FF2FF331A408283828B4FF6CE
:100A4000FF7303EA01231A4382837047002202885E
:100A50001D4B98420ED01D4B98420BD0B0F1804FE9
:100A600008D01B4B984205D01A4B984202D01A4B23
:100A7000984204D14FF68F731A404B881A43174B94
:100A8000984207D0164B984204D04FF6FF431A40C5
:100A9000CB881A4302808B8883850B8803850A4B99
:100AA00098420BD0094B984208D00E4B984205D083
:100AB0000D4B984202D00D4B984201D10B7A038620
:100AC0000123838270470000002C01400034014064
:100AD0000004004000080040000C004000100040EE
:100AE0000014004000400140004401400048014023
:100AF00070B506460024002505E000F00BF804461A
:100B0000AC4200DD2546301EA6F10101CEB2F4D183
:100B1000284670BD10B500F07DF80AE00A48FFF7DE
:100B200005FF4FF60B61884203DD0748FFF7FEFE25
:100B300010BD04210448FFF7FCFE0028EED0024857
:100B4000FFF7F1FEF4E70000000C0040F0B585B0BF
:100B5000074600240025002639464FF6FF70FFF7B0
:100B600095FE00BF08E0FFF7D5FF2DF814000A201E
:100B700000F0FCFA601CC4B20A2CF4DB00241AE07A
:100B8000002512E03DF81510681C3DF81000814268
:100B900009DD3DF81560681C3DF810002DF81500C2
:100BA000681C2DF81060681CC5B2C4F10900A84289
:100BB000E8DC601CC4B2092CE2DB0026022405E05C
:100BC0003DF81400304486B2601CC4B2082CF7DB38
:100BD000062096FBF0F0084908800846018807A027
:100BE00000F0FAF904480088B0F5004F02DB01205C
:100BF00005B0F0BD0020FBE71E000020746F756398
:100C0000685F64656661756C745F76616C3D2564D0
:100C10000D0A000008B510208DF803000220ADF881
:100C2000000003208DF8020069460E48FFF7C7FA5E
:100C300002210C48FFF74EFB052000F097FA052132
:100C40000948FFF761FE00210748FFF7D1FE0420A5
:100C50008DF803000220ADF8000069460148FFF757
:100C6000AEFA08BD00080140000C004070B5054612
:100C7000002400260320FFF73BFF044615B10020A7
:100C800011490870114800886430844217DD0F480C
:100C9000008800EB80004000A04210DD0A48007888
:100CA00028B90A4800886430844200DD01262146C4
:100CB00007A000F091F901200349087002E000202C
:100CC00001490870304670BD200000201E00002041
:100CD000B4A5C3FEB2B6BBF13A25640D0A0000000C
:100CE00010B5002440F225511C4800F0AEF810B3B6
:100CF0001A4800F065F9C4B21948008800F40040B1
:100D0000C8B91748008800F4804060B10A2C06D1A9
:100D10001348008840F40040114908801DE000207D
:100D20000F49088019E00D2C06D10D48008840F4C9
:100D300080400B49088010E00948007800F03F002F
:100D400008490C5406480088401C0549088008469C
:100D50000088632801DD0020088010BD00380140B4
:100D60001C0000202800002010B586B00446012198
:100D70008803FFF735FB01210420FFF731FB182022
:100D80008DF817004FF40070ADF8140003208DF8B3
:100D9000160005A91E48FFF712FA04208DF8170067
:100DA0000002ADF8140003208DF8160005A91848BC
:100DB000FFF705FA01940020ADF810000C20ADF803
:100DC0000E000020ADF80C00ADF80A00ADF80800E8
:100DD00001A9104800F088F801210E4800F01CF825
:100DE000012240F225510B4800F059F825208DF8DA
:100DF000000001208DF8030002208DF80100002082
:100E00008DF802006846FFF797FA06B010BD0000A3
:100E1000000801400038014021B1828942F40052AB
:100E2000828104E082894DF6FF731A408281704707
:100E300002460020B1F5007F00D100BF13880B40AF
:100E40000BB1012000E00020704770B5024600247D
:100E500000230025002040F66A16B14200D100BFF1
:100E6000C1F3421501F01F03012606FA03F3012D19
:100E700002D19689334006E0022D02D1168A334012
:100E800001E0968A33400C12012606FA04F4168813
:100E9000344013B10CB1012000E0002070BDF0B56A
:100EA0000346002400260025002040F66A17B942B8
:100EB00000D100BF1846C1F3421401F01F060127FC
:100EC00007FA06F5012C01D10C3004E0022C01D107
:100ED000103000E014301AB107682F43076002E0B9
:100EE0000768AF430760F0BD2DE9F04786B00546BF
:100EF0000E460024A24600BFA1460027B08900B1DB
:100F000000BF2F462C8A4CF6FF700440F088044343
:100F10002C82AC894EF6F3100440B0883189084326
:100F2000718908430443AC81AC8A4FF6FF4004400A
:100F3000B0890443AC8201A8FFF762FA1F488742D8
:100F400002D1DDF810A001E0DDF80CA0A88900F4C2
:100F5000004040B10AEBCA0000EB0A1031684900BA
:100F6000B0FBF1F807E00AEBCA0000EB0A103168A9
:100F70008900B0FBF1F86420B8FBF0F0040120090F
:100F8000642101FB1089A88900F4004040B132209F
:100F900000EBC900B0FBF1F000F00700044308E0EB
:100FA000322000EB09106421B0FBF1F000F00F00DB
:100FB00004432C8106B0BDE8F087000000380140F2
:100FC00001468888C0F308007047C1F30802828098
:100FD000704700BFFEE700000FB4054B10B503A932
:100FE000044A029800F018F810BC5DF814FB0000E9
:100FF000BD1100082400002002E008C8121F08C12B
:10100000002AFAD170477047002001E001C1121F89
:10101000002AFBD1704700002DE9FF4F89B09B46A5
:101020000446002506E025280BD05A460B99904728
:10103000641C6D1C20780028F5D10DB02846BDE851
:10104000F08F0027B8460122474900E0074314F813
:10105000013F203B02FA03F00842F7D120782E2806
:1010600019D114F8010F47F004072A280ED06FF0A9
:101070002F022078A0F1300109290CD808EB880153
:1010800002EB410100EB0108641CF2E70A98641CC2
:1010900050F8048B0A9020780028CED0642808D01D
:1010A000692806D075281ED05A460B9990476D1CAA
:1010B00058E00A994FF00A0901C90A91002802DA9A
:1010C00040422D2102E0390504D52B218DF8201056
:1010D000012103E0F90704D02021F7E78A4608AE92
:1010E0000DE00021FAE70A994FF00A0901C90A91B7
:1010F000F7E74946FFF738F8303106F8011D0028B8
:10110000F7D1ADEB060000F12009780701D44FF0CC
:101110000108C84502DDA8EB090000E00020804678
:10112000002706E008A85A46C05D0B9990476D1C41
:101130007F1C5745F6DB04E030205A460B99904758
:101140006D1CB8F10001A8F10108F5DC05E016F806
:10115000010B5A460B9990476D1CB9F10001A9F19A
:101160000109F4DC641C65E7092801000146002040
:10117000114A12684A434FF0E0235A6100229A61F3
:101180001A46126942F001021A6100BF4FF0E022D4
:10119000106900F001021AB100F48032002AF5D083
:1011A0004FF0E022126922F001024FF0E0231A61B1
:1011B00000229A61704700001400002070B50446B8
:1011C0000D46A1B20548FFF700FF00BF802103488C
:1011D000FFF72EFE0028F9D0204670BD00380140F0
:1011E0000024482000F032F84FF4A060FFF7DCF84C
:1011F000FFF776F84FF4E130FFF7B6FD0620FFF772
:10120000A5FC1EE00020FFF731FD38B10D48006855
:1012100008B9012000E000200A490860142094FB6E
:10122000F0F100FB114038B90748006808B9012007
:1012300000E0002004490860601CC4B20A20FFF7E7
:1012400095FFDFE7940123429481214210B50446C3
:101250006FF00400FFF7B4F9E11704EB5171C91006
:10126000044A1160104600684FF47A7148430249FD
:10127000086010BD18000020140000209C12000817
:101280000000002028000000F80F0008C412000829
:10129000280000206804000008100008000000007A
:1012A00001020304010203040607080902040608F8
:1012B000000000000000000000000000000000002E
:0412C000000000002A
:0400000508000131BD
:00000001FF
