:020000040800F2
:10000000F0040020450100085D090008F50800081B
:1000100059090008CB06000863150008000000001D
:10002000000000000000000000000000FD0A0008C1
:10003000CF06000800000000E5090008110C0008C8
:10004000751500085F0100085F0100085F010008E6
:100050005F0100085F010008D10600085F01000889
:100060000D07000845070008750700085F01000834
:100070005F0100085F0100085F0100085F010008E0
:100080005F0100085F0100085F0100085F010008D0
:100090005F0100085F0100085F0100085F010008C0
:1000A0005F0100085F0100085F0100085F010008B0
:1000B0005F0100085F010008B50E00085F0100083D
:1000C0005F0100085F0100085F0100085F01000890
:1000D0005F0100087D1200085F0100085F01000851
:1000E0005F0100085F0100085F0100085F01000870
:1000F0005F0100085F0100085F0100085F01000860
:100100005F0100085F010008FD0E00085F010008A4
:100110005F0100085F0100085F0100085F0100083F
:100120005F0100085F0100085F0100085F0100082F
:10013000DFF80CD000F086FA00480047A11F000845
:10014000F00400200648804706480047FEE7FEE727
:10015000FEE7FEE7FEE7FEE7FEE7FEE7FEE7FEE777
:10016000150C0008310100082DE9F04D81EA030467
:1001700004F0004B21F0004514464FF0000A23F034
:10018000004150EA050220D054EA01021DD0C5F317
:100190000A570246C5F31303C1F31300C1F30A560D
:1001A00040F4801543F48013A7EB0608101BD646D5
:1001B00008F2FD3873EB050002D308F1010801E0F5
:1001C00092185B41B8F1000F03DA00200146BDE848
:1001D000F08D00204FF48011064684460EE0171B78
:1001E00073EB050705D3121B63EB050306434CEACB
:1001F000010C49084FEA300092185B4150EA0107B0
:10020000EDD152EA030012D082EA040083EA05012C
:10021000084305D0101BAB4106D20122002306E0A3
:1002200000224FF0004302E06FF0010253101AEB7E
:1002300006004CEB085110EB0A0041EB0B01BDE846
:10024000F04D00F058B80EB5C10F80EAE0700844D8
:10025000CA07002140F233438DE80E000A460B46E0
:1002600000F058F803B000BD30B50B460146002041
:100270002022012409E021FA02F59D4205D303FA68
:1002800002F5491B04FA02F52844151EA2F10102E9
:10029000F1DC30BD2DE9F05F0546002092469B461B
:1002A00088460646814640241BE02846414647468C
:1002B000224600F0E8F953465A46C01A914110D33D
:1002C00011461846224600F0CFF92D1A67EB0108B7
:1002D0004F4622460120002100F0C6F917EB000925
:1002E0004E41201EA4F10104DFDC484631462A4677
:1002F0004346BDE8F09F10B5141E73F1000408DA00
:10030000401C41F1000192185B411A4301D120F0D9
:10031000010010BD2DE9F04D92469B4611B1B1FA96
:1003200081F202E0B0FA80F22032904600F09CF9AF
:1003300004460F4640EA0A0041EA0B0153465A467A
:10034000084313D0114653EA010019D0C8F1400206
:10035000504600F098F905460E465046594642462A
:1003600000F082F9084305D0012004E02046394618
:10037000BDE8F08D0020054346EAE0762C43374384
:100380000A986305E40AA0EB08000022FD0A44EA8B
:1003900047540A3002D500200146E9E7010510194B
:1003A0006941DDE9084500196941BDE8F04DA2E762
:1003B0002DE9FE4F804681EA0300C00F0C460090F5
:1003C00021F0004123F00045B8EB0200A94105D21D
:1003D0004046214690461C460B46024623F000400C
:1003E000104347D0270DC7F30A00C3F30A51029008
:1003F000401A019040286BDAC3F3130040F4801BCD
:100400000098924620B10023D2EB030A63EB0B0B5A
:1004100001985946C0F14002504600F025F90646C1
:100420000D4650465946019A00F03DF910EB080080
:100430006141002487EA115284EAE7731A4340D0ED
:10044000009A62B3019A012A4FEA075215DC001B99
:1004500061EB02014FF0004202EA0752CDE900428F
:10046000001C41F5801132462B46FFF753FF03B0C5
:10047000BDE8F08F40462146F9E7001B61EB020121
:10048000001C41F5801300185B412018A2F50017ED
:1004900047EB030140EAD570B6196D4111E06D08D4
:1004A0004FEA360645EAC0754FEA0752001B61EB7A
:1004B0000201001C41F5801149084FEA3000001983
:1004C000514132462B4603B0BDE8F04FFFF713BF52
:1004D0000098012240000023D0EB020263EBE0739E
:1004E000009821464FEAE074B8EB000061EB04018C
:1004F000E9E783F000435BE781F0004158E72DE92D
:10050000FE4F81EA030404F0004421F0004100940E
:100510004FF0000B23F0004350EA01045ED052EA92
:1005200003045BD0C3F30A54C1F30A552C44A4F26C
:10053000F3340194A0FB0254C1F3130141F4801180
:10054000C3F3130343F4801301FB024400FB034E87
:10055000840A970A44EA815447EA8357A4FB076850
:1005600002958D0A05FB07854FEA932C04FB0C547A
:100570002705029D4FEA065847EA1637B5EB0805EE
:100580006EEB070C870E920E47EA811742EA831240
:10059000A7FB0201B6EB0B0164EB00042B0D43EA51
:1005A0000C335E1844EB1C50DA465146E7FB02015F
:1005B000C5F313044FEA0B3343EA14534FEA0432F2
:1005C000019C43EA0603A4F10C040294009CCDE9CB
:1005D00000B4FFF79FFE03B0BDE8F08F0020014696
:1005E000F9E7C1F30A52C1F3130140F2FF3341F4BA
:1005F00080119A4202DA00200146704740F23343EC
:100600009A42A2F2334202DC524200F03CB800F0BF
:100610002BB8000030B5041E71F1000404DB4FF06C
:100620000044404264EB0101141E73F1000405DB39
:100630001C464FF00043524263EB0403994208BF4B
:10064000904230BD064C074D06E0E06840F00103E3
:1006500094E8070098471034AC42F6D3FFF76CFDDE
:1006600098200008B8200008202A04DB203A00FA6D
:1006700002F1002070479140C2F1200320FA03F3F9
:10068000194390407047202A04DB203A21FA02F0F7
:100690000021704721FA02F3D040C2F120029140BC
:1006A000084319467047202A06DBCB17203A41FA47
:1006B00002F043EAE07306E041FA02F3D040C2F1EF
:1006C0002002914008431946704700BFFEE770477B
:1006D00010B5012000F06CF801280CD10A2001F0BF
:1006E000DFFB07480068012805D1002005490860A4
:1006F0000549C1F89401012000F054F810BD000034
:1007000000012142948121420000234210B50420BF
:1007100000F04EF801280BD10A2001F0C1FB064879
:10072000006828B90120054908600549C1F894010D
:10073000042000F037F810BD0801234294812142C3
:100740000000234210B5082000F032F8012808D13B
:100750000A2001F0A5FB0548006810B901200449F2
:100760000860082000F01EF810BD00000C012342B4
:10077000A081214210B5102000F01AF8012808D1FC
:100780000A2001F08DFB0548006810B900200449DB
:100790000860102000F006F810BD00001001234290
:1007A000A081214201490860704700001404014003
:1007B00001460020034A12680A400AB1012000E005
:1007C00000207047140401402DE9F0410246002545
:1007D0000026002000230024002791F803C00CF01D
:1007E0000F0591F803C00CF0100CBCF1000F03D002
:1007F00091F802C04CEA050591F800C0BCF1000F69
:1008000031D0146800202BE04FF0010C0CFA00F3FB
:10081000B1F800C00CEA03069E4220D183004FF0DD
:100820000F0C0CFA03F7BC4305FA03FC4CEA040472
:1008300091F803C0BCF1280F06D14FF0010C0CFA5F
:1008400000FCC2F814C00AE091F803C0BCF1480FE4
:1008500005D14FF0010C0CFA00FCC2F810C0401C8E
:100860000828D1D31460B1F800C0BCF1FF0F34DD0B
:10087000546800202EE000F1080C4FF0010808FA3F
:100880000CF3B1F800C00CEA03069E4221D18300AC
:100890004FF00F0C0CFA03F7BC4305FA03FC4CEACB
:1008A000040491F803C0BCF1280F05D100F1080C35
:1008B00008FA0CF8C2F8148091F803C0BCF1480F94
:1008C00007D100F1080C4FF0010808FA0CF8C2F843
:1008D0001080401C0828CED35460BDE8F081024649
:1008E000002093680B400BB1012000E0002070470E
:1008F0000161704700BFFEE71CB50121082000F030
:1009000083F80121402000F07FF82020ADF804009A
:1009100003208DF8060010208DF807002020ADF888
:10092000000003208DF8020010208DF8030001A9BB
:100930000748FFF749FF01A90648FFF745FF2021B7
:100940000348FFF7D5FF20210248FFF7D1FF1CBD68
:10095000000C01400018014000BFFEE77047000096
:1009600070B5002100230F22C47804B3154C24680D
:1009700004F4E064C4F5E064210AC1F10403CA4050
:10098000447804FA03F184781440214309010E4CA1
:100990000678A155047804F01F050124AC400578C1
:1009A0006D11AD0005F1E025C5F8004109E00478BE
:1009B00004F01F050124AC40044D0678761145F87B
:1009C000264070BD0CED00E000E400E080E100E0B6
:1009D00002490143024A1160704700000000FA0515
:1009E0000CED00E07047000029B1064AD2690243CD
:1009F000044BDA6104E0034AD2698243014BDA61B5
:100A0000704700000010024029B1064A9269024373
:100A1000044B9A6104E0034A92698243014B9A6154
:100A2000704700000010024030B500210022002471
:100A300000232D4D6D6805F00C0121B1042905D06E
:100A4000082923D105E0294D056022E0274D0560E6
:100A50001FE0254D6D6805F47012234D6D6805F497
:100A60008034022505EB92421CB9214D55430560A7
:100A70000BE01D4D6D6805F400351DB11C4D55434F
:100A8000056002E0194D5543056002E0174D056011
:100A900000BF00BF144D6D6805F0F0010909154D48
:100AA0006B5C0568DD4045600F4D6D6805F4E061E5
:100AB000090A104D6B5C4568DD4085600A4D6D6824
:100AC00005F46051C90A0B4D6B5C4568DD40C5609B
:100AD000054D6D6805F44041890B074D6B5CC56899
:100AE000B5FBF3F5056130BD0010024000127A003D
:100AF00000093D000000002010000020704710B5E4
:100B000000F002F810BD00000CB50020019000902C
:100B10003348006840F480303149086000BF3048F5
:100B2000006800F4003000900198401C019000988B
:100B300018B90198B0F5A06FF1D12948006800F408
:100B4000003010B10120009001E0002000900098DA
:100B5000012843D12348006840F010002149086073
:100B60000846006820F0030008600846006840F06E
:100B7000020008601A484068194948600846406801
:100B800048600846406840F4806048600846406815
:100B900020F47C1048600846406840F4E810486043
:100BA0000846006840F08070086000BF0C4800688C
:100BB00000F000700028F9D00948406820F00300D8
:100BC000074948600846406840F00200486000BF9E
:100BD0000348406800F00C000828F9D10CBD000063
:100BE0000010024000200240042808D14FF0E0210C
:100BF000096941F004014FF0E022116107E04FF074
:100C0000E021096921F004014FF0E02211617047F1
:100C10007047000010B51348006840F0010011490A
:100C2000086008464068104908400E494860084678
:100C300000680E4908400B4908600846006820F427
:100C4000802008600846406820F4FE0048604FF4A9
:100C50001F008860FFF753FF4FF0006004490860F1
:100C600010BD0000001002400000FFF8FFFFF6FE7C
:100C700008ED00E0F0B50C46154600220021068C78
:100C80004FF6FE773E400684028B018C4FF60C76C1
:100C900032407E1C06EA03162E433243104EB04209
:100CA0000ED0104EB0420BD0B0F1804F08D00E4E97
:100CB000B04205D00D4EB04202D00D4EB04206D12A
:100CC0004FF6FD76314044F00106314305E04FF622
:100CD000F576314044F00106314302830184F0BDD2
:100CE000002C014000340140000400400008004096
:100CF000000C0040F0B50C461546002200210026ED
:100D0000078C4FF6EF7C07EA0C070784028B018CF7
:100D10004FF6FF7707EA041640F6FF473A404FF6D2
:100D2000FF7707EA03373A434FF6FF7707EA0527CD
:100D30003A43114FB8420ED0104FB8420BD0B0F129
:100D4000804F08D00E4FB84205D00E4FB84202D0A7
:100D50000D4FB84206D14FF6DF77394046F0100705
:100D6000394305E04FF65F77394044F010073943C7
:100D700002830184F0BD0000002C014000340140DA
:100D80000004004000080040000C0040F0B50C4694
:100D90001546002200210026078C4FF6FF6C07EA5B
:100DA0000C070784828B018C4FF6FF7707EA042635
:100DB0004FF60C773A404FF6FF7707EA03172F43B9
:100DC0003A43114FB8420ED0104FB8420BD0B0F199
:100DD000804F08D00E4FB84205D00E4FB84202D017
:100DE0000D4FB84206D14FF6FF57394046F4807791
:100DF000394305E04FF2FF57394044F480773943D7
:100E000082830184F0BD0000002C014000340140C9
:100E10000004004000080040000C0040F0B50C4603
:100E20001546002200210026078C4EF6FF7C07EABB
:100E30000C070784828B018C4FF6FF7707EA043694
:100E400040F6FF473A404FF6FF7707EA05273A4357
:100E50004FF6FF7707EA03373A43114FB8420ED0F7
:100E6000104FB8420BD0B0F1804F08D00E4FB842AF
:100E700005D00E4FB84202D00D4FB84206D14DF604
:100E8000FF77394046F48057394305E047F6FF576E
:100E9000394044F48057394382830184F0BD000017
:100EA000002C0140003401400004004000080040D4
:100EB000000C004010B501210C4800F0E5F880B1AD
:100EC0000B48006808B9012000E0002008490860CC
:100ED0000848D0F8940108B9012000E00020064934
:100EE00008600121014800F0BDF810BD0008004075
:100EF00094812142000023429401234210B5012134
:100F00002C4800F0C1F8D0B12B48007800F0400028
:100F1000A8B12948007800F03F003F280AD12648B0
:100F2000007840F08000244908704FF6FF70234994
:100F3000088004E020480078401C1F490870022106
:100F40001C4800F0A1F878B31B48007800F040007E
:100F500078B1184800F095F81849088016480078CC
:100F600040F08000144908700021124800F0FDF89C
:100F70001AE0002010490870104908800E480078D7
:100F800040F040000C49087000210A4800F06DF85C
:100F90000021084800F0F2F80221064800F0E5F8C8
:100FA0000121044800F061F80321024800F05AF8DA
:100FB00010BD0000000C00401E000020200000209A
:100FC00030B589B005460C4601210820FFF70CFD1D
:100FD00001210420FFF718FD28208DF823000120AF
:100FE000ADF8200008A91D48FFF7EEFB0020ADF882
:100FF0001A00ADF81600ADF81850ADF8144005A968
:10100000174800F0E9F80020ADF80800ADF810002E
:10101000ADF80A00ADF80E000120ADF80C0002A9F1
:101020000F4800F043F8012203210D4800F094F826
:1010300032208DF8040001208DF8070002208DF881
:10104000050000208DF8060001A8FFF789FC0121AA
:10105000034800F00AF809B030BD00000008014064
:10106000000C0040CA430282704721B1028842F05E
:101070000102028004E002884FF6FE731A400280EB
:1010800070470146888E704730B502460020002325
:101090000024158A05EA0103958905EA010413B1C4
:1010A0000CB1012000E0002030BD000070B5054605
:1010B0000C46244885420ED0234885420BD0B5F11A
:1010C000804F08D02148854205D02148854202D072
:1010D0002048854200D100E000BF208850B9238914
:1010E000A28861882846FFF7C5FDE188284600F000
:1010F00047F825E0208804280AD12389A28861883E
:101100002846FFF7F7FDE188284600F042F817E08F
:10111000208808280AD12389A28861882846FFF7F9
:1011200035FEE188284600F041F809E02389A288CD
:1011300061882846FFF772FEE188284600F03FF8F4
:1011400070BD0000002C014000340140000400404C
:1011500000080040000C00401AB183890B438381D2
:1011600002E083898B43838170470A460021018C0A
:101170004FF6FD7319401143018470478184704715
:10118000028B4FF6F3731A400283028B0A430283E9
:101190007047028B4FF2FF331A400283028B4FF6E7
:1011A000FF7303EA01231A4302837047828B4FF6D1
:1011B000F3731A408283828B0A4382837047828B47
:1011C0004FF2FF331A408283828B4FF6FF7303EA9C
:1011D00001231A4382837047002202881D4B9842E4
:1011E0000ED01D4B98420BD0B0F1804F08D01B4B56
:1011F000984205D01A4B984202D01A4B984204D11B
:101200004FF68F731A404B881A43174B984207D0FA
:10121000164B984204D04FF6FF431A40CB881A432E
:1012200002808B8883850B8803850A4B98420BD0FC
:10123000094B984208D00E4B984205D00D4B98426E
:1012400002D00D4B984201D10B7A03860123838291
:1012500070470000002C01400034014000040040B1
:1012600000080040000C0040001000400014004046
:1012700000400140004401400048014010B50024F6
:1012800040F225511C4800F0A8F810B31A4800F0AD
:101290005FF9C4B21948008800F40040C8B9174883
:1012A000008800F4804060B10A2C03D0002013496C
:1012B000088020E01148008840F400400F49088071
:1012C00019E00D2C06D10D48008840F480400B49F0
:1012D000088010E009480088C0F30D0008490C544C
:1012E00006480088401C0549088008460088C72831
:1012F00001DD0020088010BD003801401C000020E6
:101300002800002010B586B0044601210420FFF714
:101310007BFB01218803FFF777FB18208DF817006E
:101320004FF40070ADF8140003208DF8160005A9E5
:101330001B48FFF749FA04208DF817000002ADF8AA
:10134000140005A91648FFF73FFA01940C20ADF8E8
:101350000E000020ADF80C00ADF80A00ADF8080052
:10136000ADF8100001A90F4800F086F801210D48E2
:1013700000F01AF8012240F225510A4800F057F80F
:1013800025208DF8000001208DF8030003208DF842
:1013900001008DF802006846FFF7E2FA06B010BDC2
:1013A000000801400038014021B1828942F4005216
:1013B000828104E082894DF6FF731A408281704772
:1013C00002460020B1F5007F00D100BF13880B401A
:1013D0000BB1012000E00020704770B502460024E8
:1013E00000230025002040F66A16B14200D100BF5C
:1013F000C1F3421501F01F03012606FA03F3012D84
:1014000002D19689334006E0022D02D1168A33407C
:1014100001E0968A33400C12012606FA04F416887D
:10142000344013B10CB1012000E0002070BDF0B5D4
:101430000346002400260025002040F66A17B94222
:1014400000D100BF1846C1F3421401F01F06012766
:1014500007FA06F5012C01D10C3004E0022C01D171
:10146000103000E014301AB107682F43076002E023
:101470000768AF430760F0BD2DE9F04786B0054629
:101480000E460024A24600BFA1460027B08900B145
:1014900000BF2F462C8A4CF6FF700440F0880443AE
:1014A0002C82AC894EF6F3100440B0883189084391
:1014B000718908430443AC81AC8A4FF6FF40044075
:1014C000B0890443AC8201A8FFF7AEFA1F488742F7
:1014D00002D1DDF810A001E0DDF80CA0A88900F42D
:1014E000004040B10AEBCA0000EB0A103168490025
:1014F000B0FBF1F807E00AEBCA0000EB0A10316814
:101500008900B0FBF1F86420B8FBF0F00401200979
:10151000642101FB1089A88900F4004040B1322009
:1015200000EBC900B0FBF1F000F00700044308E055
:10153000322000EB09106421B0FBF1F000F00F0045
:1015400004432C8106B0BDE8F0870000003801405C
:1015500001468888C0F308007047C1F30802828002
:10156000704700BFFEE70000002001490860704797
:10157000082C004010B500F0CBFC10B97F2000F023
:101580000DF8FFF7F1FF0448006808B9012000E0FA
:1015900000200149086010BD9401234200F07F0142
:1015A000014A116070470000002C00400FB4054B49
:1015B00010B503A9044A029800F0DAF810BC5DF8EF
:1015C00014FB0000ED1E00082400002002E008C803
:1015D000121F08C1002AFAD170477047002001E0AD
:1015E00001C1121F002AFBD1704700002DE9FF5FE7
:1015F00082B00021DDE90430020DDDF840B0034384
:1016000018D044F61050A2F2FF324243151411983C
:1016100001281FD0A5EB0B00401C5FEA000A4FF029
:1016200000064E4FDFF83891B046504615D5CAF146
:10163000000413E0119801244AA3012801D16FEAA4
:101640000B010298119AC0E90031C0E9024206B0CC
:10165000BDE8F09FCBF10000DFE704460021404ADF
:10166000491842EB0450CDE9001012E0E00707D022
:1016700032463B4640464946FEF741FF8046894692
:1016800032463B4610461946FEF739FF06460F46DE
:101690006410002CEAD1DDE90401DDE90023BAF190
:1016A000000F06DAFEF72BFF42464B46FEF727FFF8
:1016B00005E0FEF759FD42464B46FEF755FD044650
:1016C0000E460022284BFEF7A5FF03D84FF0FF304F
:1016D000014607E00022254B20463146FEF768FE12
:1016E000FEF77FFF102409E0002C0ADB0A2200230A
:1016F000FEF7D0FD039B30321A55641E50EA0102FA
:10170000F2D1641C039AC4F111031444119A012A02
:1017100003D0012208430DD10AE0084304D0002081
:101720004FF0110B119072E7A3EB0B056D1E0DE04E
:101730005B4504DD4FF0000205F1010504E003DA2A
:101740004FF00002A5F10105002AECD00298119992
:10175000C0E90231C0E9004579E70000000014400B
:101760000000F03F300000000000F0430000E03FC8
:101770002DE9FF4F95B09B468946064600250FE2AE
:10178000252877D100242746F84A0121059400E056
:10179000044316F8013F203B01FA03F01042F7D151
:1017A00030782A2811D06FF02F033078A0F1300262
:1017B000092A16D8059A44F0020402EB820203EBD0
:1017C00042021044761C0590EFE759F8042B05926D
:1017D000002A03DA504244F40054059044F0020415
:1017E000761C30782E2816D116F8010F44F0040428
:1017F0002A280DD06FF02F023078A0F13003092B8A
:1018000009D807EB870302EB4303C718761CF3E7FD
:1018100059F8047B761C30786C280FD006DC4C28F5
:1018200017D068280DD06A2814D104E0742810D08D
:101830007A280FD10DE044F400140AE044F4801437
:1018400001E044F440147278824202D104F580141D
:10185000761C761C307866280BD013DC582877D09D
:1018600009DC002875D04528F6D04628F4D0472852
:101870001AD19DE118E0632835D0642879D0652815
:1018800012D195E1702873D008DC6728F1D069285F
:101890006FD06E280DD06F2806D1B5E073282CD0FC
:1018A000752875D0782874D05A46179990476D1CC2
:1018B00075E1C4F30250022809D003280DD0D9F8ED
:1018C000001004280DD00D6009F1040967E1D9F872
:1018D0000010EA17C1E90052F6E7D9F800100D80B0
:1018E000F2E70D70F0E719F8041B8DF800100020E6
:1018F0008DF80100EA46012003E059F804AB4FF0EF
:10190000FF3061074FF0000102D40DE008F1010142
:101910008846B9420FDA8045F8DB1AF8081000292A
:10192000F4D108E008F1010188468142FADB1AF897
:1019300008100029F6D105985B46A0EB0807214660
:101940003846179A00F094FA284400EB080507E09F
:101950004DE029E10DE01AF8010B5A46179990471E
:10196000B8F10108F7D25B4621463846179A13E1D1
:1019700042E00A220092C4F302524FF0000A022A07
:1019800008D059F804CB032A4FEAEC710AD00DE0D5
:1019900029E02AE009F1070121F00702F2E802C17B
:1019A000914609E00FFA8CFC4FEAEC71042A03D14E
:1019B0004FFA8CFC4FEAEC71002907DA0A46002145
:1019C000DCF1000C61EB02012D2202E0220504D5BE
:1019D0002B228DF80420012203E0E20701D020220F
:1019E000F7E7904659E00A2102E010220DE01021AD
:1019F0004FF0000A00910BE010224FF0000A44F073
:101A000004040827009203E008224FF0000A009225
:101A1000C4F30252022A05D059F804CB0021032A4C
:101A200008D009E009F1070121F00702F2E802C13C
:101A3000914605E01FFA8CFC042A01D10CF0FF0C42
:101A40004FF00008220728D5702806D0009B83F0AD
:101A5000100353EA0A0305D00EE040228DF804205B
:101A6000012208E05CEA010206D030228DF8042051
:101A70008DF8050002229046009B83F0080353EA8C
:101A80000A030AD15CEA010201D1620705D53022BE
:101A90008DF804204FF001087F1E582804D034A090
:101AA00003900EA802900DE036A0F9E75346604679
:101AB000009AFEF7EFFB84460398825C0298401E72
:101AC000029002705CEA0100F0D1029806A9081A9F
:101AD00000F1200A600702D524F4803400E00127D9
:101AE000574502DDA7EB0A0000E0002000EB0A01E9
:101AF000009005984144401A0590E00306D45B46E7
:101B00002146179A059800F0B3F90544002706E02E
:101B100001A85A46C05D179990476D1C7F1C474528
:101B2000F6DBE0030CD55B462146179A059800F0DA
:101B30009FF9054404E030205A46179990476D1CE0
:101B40000099481E00900029F5DC08E002980299EF
:101B50005A460078491C0291179990476D1CBAF1BA
:101B60000001AAF1010AF1DC65E100000928010089
:101B70003031323334353637383961626364656603
:101B800000000000303132333435363738394142C5
:101B9000434445460000000000F058F90544761C17
:101BA000307800287FF4ECAD19B02846BDE8F08FFE
:101BB000620700D4062709F1070222F0070CFCE8AF
:101BC0000223E14603F000485FEA080C02D00FF25E
:101BD000702C0DE05FEA045C02D50FF2682C07E080
:101BE0005FEAC47C02D00FF2602C01E0AFF2700C0F
:101BF0004FF0FF3823F00043CDF850C065280CD0DB
:101C000006DC452809D046281DD047283DD13DE0B7
:101C1000662818D067287ED138E00021112F01DB1B
:101C2000112000E0781CCDE9000106A90EA8FFF7FD
:101C3000DDFCDDE90F010E9A03910021009207F10E
:101C4000010A04914DE04FF000400097CDE90110EA
:101C500006A90EA8FFF7CAFCDDE90F0203920E9B4E
:101C600011990022DDF80CA00093049211B9791C9F
:101C700000EB010AB7EB0A0004D4C0F1FF3007F112
:101C8000010A0490AAEB0700019044E0012F00DA5A
:101C900001270021112F01DD112000E03846CDE998
:101CA000000106A90EA8FFF7A1FCDDE90F010E9ABD
:101CB0000391002104910092BA4621070CD40399A4
:101CC000514500DA8A46BAF1010F05DD009AAAF102
:101CD0000101515C302908D0B84202DA10F1040F3A
:101CE00006DA0121CDE9011015E0AAF10101E9E7C9
:101CF000002805DC049901440491AAEB000102E0EC
:101D0000411C514500DD8A460499401A401C01904F
:101D10004FF000400290200704D40198504501DBA9
:101D2000CDF8048000208DF84F0002980DF14F0788
:101D3000B0F1004F25D02B200E9002984FF00208F2
:101D400000280CDA404202902D200E9007E00A2174
:101D50000298FEF789FA3031029007F8011DB8F1B8
:101D60000001A8F10108F2DC02980028EFD1791EE9
:101D70000E980870307800F0200040F0450007F819
:101D8000020D12A8C01B00F107081498007800B1DA
:101D9000012000EB0A01019801EBE0710598414434
:101DA000401A401E0590E00306D45B462146179A70
:101DB000059800F05DF805441498007818B15A466B
:101DC000179990476D1CE00324D55B462146179A6E
:101DD000059800F04DF805441CE00498002807DB46
:101DE000DDE90301884203DD0098405C179901E0BA
:101DF000179930205A469047049805F10105401C78
:101E000004900198401E019004D12E205A46179943
:101E100090476D1CBAF10001AAF1010ADDDC05E072
:101E200017F8010B5A46179990476D1CB8F100013D
:101E3000A8F10108F4DC5B462146179A0598ABE649
:101E40002D0000002B000000200000002DE9F041D3
:101E5000044600251E461746880404D405E039468A
:101E60002020B0476D1C641EF9D52846BDE8F081DE
:101E70002DE9F041044600251E469046C80301D5D1
:101E8000302700E02027880404D505E04146384685
:101E9000B0476D1C641EF9D52846BDE8F0810000EE
:101EA0000146114A12684A434FF0E0235A6100226A
:101EB0009A611A46126942F001021A6100BF4FF09E
:101EC000E022106900F001021AB100F48032002A09
:101ED000F5D04FF0E022126922F001024FF0E0232A
:101EE0001A6100229A6170471800002070B50446FC
:101EF0000D46A1B20548FFF730FB00BF8021034823
:101F0000FFF75EFA0028F9D0204670BD0038014086
:101F100010B510212148FEF7E2FC80B90A20FFF736
:101F2000BFFF10211D48FEF7DAFC40B900BF1021A9
:101F30001A48FEF7D4FC0028F9D0012010BD082172
:101F40001648FEF7CCFC80B90A20FFF7A9FF08214C
:101F50001248FEF7C4FC40B900BF08210F48FEF745
:101F6000BEFC0028F9D00220E8E704210B48FEF768
:101F7000B6FC80B90A20FFF793FF04210748FEF75B
:101F8000AEFC40B900BF04210448FEF7A8FC0028BD
:101F9000F9D00320D2E70020D0E70000001801406C
:101FA000002600BF482000F05DF84FF4A060FEF767
:101FB0000FFDFEF7A1FC4FF4E130FFF7A3F948F65F
:101FC0009F414FF47A70FEF7FBFF36E0322096FB1C
:101FD000F0F100FB116038B91848006808B9012019
:101FE00000E0002015490860701CC6B20A20FFF707
:101FF00057FF1348007800F08000F0B110490978CD
:1020000001F03F0101EB4102C2EBC1110D4A128800
:1020100002EB8100FEF717F9074600220A4BFEF794
:10202000A3F804460D4600200649088004490870BC
:1020300022462B4605A0FFF7B9FAC7E794012342D1
:102040001E0000202000002000408F40B8DFB5E7D0
:10205000C6BDCAB1BCE4CEAA3A252E326C66C3EB2B
:102060000D0A000010B504466FF00400FEF7BCFD39
:10207000E11704EB5171C1F3C701054A1170104615
:1020800000784FF47A7148430249086010BD00009F
:102090001400002018000020B820000800000020D4
:1020A00028000000CC150008E020000828000020CF
:1020B000C8040000DC150008000000000102030451
:1020C00001020304060708090204060800000000D4
:1020D0000000000000000000000000000000000000
:0400000508000131BD
:00000001FF
