:020000040800F2
:10000000F804002045010008BD0400081B04000896
:10001000B9040008010200083B10000800000000BD
:100020000000000000000000000000006D0B000850
:10003000050200080000000051050008810C0008BE
:100040005F0100085F0100085F010008D90800088F
:100050005F0100085F010008090200085F01000855
:10006000450200087D020008AD0200085F0100089B
:100070005F0100085F0100085F0100085F010008E0
:100080005F0100085F0100085F0100085F010008D0
:100090005F0100085F0100085F0100085F010008C0
:1000A0005F0100085F0100085F0100085F010008B0
:1000B0005F0100085F010008E50C00085F0100080F
:1000C0005F0100085F0100085F0100085F01000890
:1000D0005F010008550D00085F0100085F0100087E
:1000E0005F0100085F0100085F0100085F01000870
:1000F0005F0100085F0100085F0100085F01000860
:100100005F0100085F0100085F0100085F0100084F
:100110005F0100085F0100085F0100085F0100083F
:100120005F0100085F0100085F0100085F0100082F
:10013000DFF80CD000F02EF8004800474512000808
:10014000F80400200648804706480047FEE7FEE71F
:10015000FEE7FEE7FEE7FEE7FEE7FEE7FEE7FEE777
:10016000850C00083101000830B50B46014600201F
:100170002022012409E021FA02F59D4205D303FA69
:1001800002F5491B04FA02F52844151EA2F10102EA
:10019000F1DC30BD064C074D06E0E06840F001039D
:1001A00094E8070098471034AC42F6D3FFF7C4FF39
:1001B000E01200080013000810B5012000F0EAF971
:1001C000002000F0E7F910BD08B5014600200090BE
:1001D000034800900098084400900098008808BDEB
:1001E000006C004008B500220092044A0092009A78
:1001F00002440092009A116008BD0000006C0040AB
:1002000000BFFEE77047000010B5012000F06CF859
:1002100001280CD10A2000F0DDFF07480068012802
:1002200005D10020054908600549C1F89401012065
:1002300000F054F810BD00000001214294812142D9
:100240000000234210B5042000F04EF801280BD125
:100250000A2000F0BFFF0648006828B901200549C0
:1002600008600549C1F89401042000F037F810BD7A
:1002700008012342948121420000234210B5082046
:1002800000F032F8012808D10A2000F0A3FF054849
:10029000006810B9012004490860082000F01EF829
:1002A00010BD00000C012342A081214210B5102096
:1002B00000F01AF8012808D10A2000F08BFF054849
:1002C000006810B9002004490860102000F006F80A
:1002D00010BD000010012342A081214201490860A5
:1002E000704700001404014001460020034A1268D0
:1002F0000A400AB1012000E00020704714040140C8
:100300002DE9F041024600250026002000230024AC
:10031000002791F803C00CF00F0591F803C00CF012
:10032000100CBCF1000F03D091F802C04CEA050597
:1003300091F800C0BCF1000F31D0146800202BE010
:100340004FF0010C0CFA00F3B1F800C00CEA030600
:100350009E4220D183004FF00F0C0CFA03F7BC43F0
:1003600005FA03FC4CEA040491F803C0BCF1280F21
:1003700006D14FF0010C0CFA00FCC2F814C00AE0E0
:1003800091F803C0BCF1480F05D14FF0010C0CFAF5
:1003900000FCC2F810C0401C0828D1D31460B1F88A
:1003A00000C0BCF1FF0F34DD546800202EE000F1E6
:1003B000080C4FF0010808FA0CF3B1F800C00CEA81
:1003C00003069E4221D183004FF00F0C0CFA03F775
:1003D000BC4305FA03FC4CEA040491F803C0BCF1E9
:1003E000280F05D100F1080C08FA0CF8C2F81480A7
:1003F00091F803C0BCF1480F07D100F1080C4FF091
:10040000010808FA0CF8C2F81080401C0828CED366
:100410005460BDE8F0810161704700BFFEE701460E
:10042000CA1701EB92729210A1EB820292B964207A
:1004300091FBF0F200FB121050B94FF4C87091FB21
:10044000F0F200FB121008B9012070470020FCE711
:100450000120FAE70020F8E71CB50121082000F090
:1004600089F80121402000F085F82020ADF8040033
:1004700003208DF8060010208DF807002020ADF82D
:10048000000003208DF8020010208DF8030001A960
:100490000748FFF735FF01A90648FFF731FF202184
:1004A0000348FFF7B8FF20210248FFF7B4FF1CBD47
:1004B000000C01400018014000BFFEE7704700003B
:1004C00070B5002100230F22C47804B3154C2468B2
:1004D00004F4E064C4F5E064210AC1F10403CA40F5
:1004E000447804FA03F184781440214309010E4C46
:1004F0000678A155047804F01F050124AC40057866
:100500006D11AD0005F1E025C5F8004109E0047862
:1005100004F01F050124AC40044D0678761145F81F
:10052000264070BD0CED00E000E400E080E100E05A
:1005300002490143024A1160704700000000FA05B9
:100540000CED00E0014908627047000000000E4217
:100550007047000029B1064AD2690243044BDA61B0
:1005600004E0034AD2698243014BDA61704700001C
:100570000010024029B1064A92690243044B9A6175
:1005800004E0034A92698243014B9A61704700007C
:1005900000100240014908607047000040044242D8
:1005A00030B500210022002400232D4D6D6805F098
:1005B0000C0121B1042905D0082923D105E0294DDA
:1005C000056022E0274D05601FE0254D6D6805F4AC
:1005D0007012234D6D6805F48034022505EB9242BC
:1005E0001CB9214D554305600BE01D4D6D6805F4A8
:1005F00000351DB11C4D5543056002E0194D5543B2
:10060000056002E0174D056000BF00BF144D6D6826
:1006100005F0F0010909154D6B5C0568DD4045608A
:100620000F4D6D6805F4E061090A104D6B5C45687B
:10063000DD4085600A4D6D6805F46051C90A0B4DB7
:100640006B5C4568DD40C560054D6D6805F4404153
:10065000890B074D6B5CC568B5FBF3F5056130BDD3
:100660000010024000127A0000093D000000002046
:100670001000002010B501460022002300204A117E
:10068000012A02D1094C236806E0022A02D1074C54
:10069000236A01E0054C636A01F01F0201249440C3
:1006A0001C400CB1012000E0002010BD00100240F1
:1006B00000210B4A11700A4A203A82F820100128C2
:1006C00002D0042808D103E00121054A117004E09A
:1006D0000521034A117000E000BF00BF7047000011
:1006E0002010024001490860704700003C0442426B
:1006F0000249096A0143014A116270470010024031
:100700000348008840F0100001490880704700004D
:1007100004280040034800884FF6EF710840014963
:10072000088070470428004070B50026002400258A
:1007300000F07AF806463848B6FBF0F437480088EF
:10074000A0423CD035490C8040F2B27510E02846FA
:10075000FFF765FE40B1B4F5B77F02D3A4F5B774D7
:1007600004E0681C85B206E0A4F26D14681C85B232
:10077000B4F5B67FEBD800BF29488580002516E088
:1007800027498888FFF74BFE30B1012D04D11D2C7D
:1007900001D31D3C09E00CE02248405DA04203D893
:1007A0002048405D241A00E003E0681C85B21C2C40
:1007B000E6D200BF681C1A498871601CC8711648CF
:1007C000B6FBF0F100FB11644FF46160B4FBF0F094
:1007D000134908704FF46160B4FBF0F100FB114065
:1007E0003C21B0FBF1F00E4948704FF46160B4FB5E
:1007F000F0F100FB11403C21B0FBF1F201FB1200D3
:10080000074988700B46DA799979988800F028F8BA
:1008100003490872002070BD805101001E000020B5
:10082000EC000020D4120008002103480188001FBA
:10083000008841EA004070471C2800400146002023
:10084000064A12880A40D0B2044A121F12880A408F
:1008500012B108B1012000E00020704704280040D8
:10086000F0B503460C461546642093FBF0F0C6B283
:10087000642093FBF0F700FB1730C1B2132E02DDAA
:1008800001F16400C1B20846CF1701EB977701EB85
:10089000A707BAB2072092FBF0F700FB172082B23D
:1008A0005719601EDFF82CC01CF80000384482B2D3
:1008B000CF1701EB9777BF10A1EB87071FB9032C68
:1008C00001DA501E82B2072092FBF0F700FB1720DE
:1008D000C0B2F0BDC81200080EB50120FFF7AEFF90
:1008E00088B1FFF721FF0848807807494978064A10
:1008F0001278CDE9002102900348C379827981887A
:1009000002A000F09DFB0EBDEC00002052544320DD
:1009100054696D653A25642D25642D256420256470
:100920003A25643A25640D0A0000000029B1064A00
:1009300012880243044B1A8004E0034A128882435F
:10094000014B1A8070470000002800401CB50024AD
:1009500001210807FFF7FEFD0121C806FFF7FAFD98
:100960000120FFF7EFFD0420FFF72EFC4AF2A00163
:10097000884240D0FFF720FC0120FFF799FE04E0F9
:10098000601CC4B20A2000F025FC4120FFF772FE73
:1009900008B9FA2CF4DBFA2C01DB01201CBD4FF462
:1009A0008070FFF7A5FE0120FFF79CFE00F0C2F863
:1009B00000F0CAF801210846FFF7B8FF00F0BAF8C6
:1009C000FFF79EFE47F6FF7000F0A4F800F0B2F8C3
:1009D00038202D2101231A22CDE90010072140F2F1
:1009E000E67000F025F8FFF795FE4AF2A00104201A
:1009F000FFF7F8FB05E000F0A7F801210846FFF734
:100A000095FF00F004F8FFF78FFE0020C6E708B559
:100A100003208DF8000000208DF801008DF8020001
:100A200001208DF803006846FFF74AFD08BD00006D
:100A30002DE9F05F06460F4690469946DDE90AAB80
:100A4000002440F2B270864203DB40F63300864257
:100A500002DD0120BDE8F09F40F2B2750AE02846B1
:100A6000FFF7DDFC10B12048044401E01F480444B6
:100A7000681C85B2B542F2DB781EC7B2002510E0D3
:100A80001B48405D40F2A321484304EBC0143046AC
:100A9000FFF7C5FC18B1012D01D116480444681CAC
:100AA00085B2BD42ECDBA8F1010040F2A32148432E
:100AB00004EBC014C9EB4910C0EB092004EB00148F
:100AC000CAEB0A1004EB80045C4401214FF0C050D3
:100AD000FFF740FD0120FFF735FD204600F00CF840
:100AE00000F028F80020B5E70085E2018033E1013D
:100AF000D41200088051010000B50246FFF700FE45
:100B0000100C03490880091D0A80FFF703FE00BD91
:100B10001828004000B50246FFF7F2FDC2F303407B
:100B200003490880091D0A80FFF7F4FD00BD00009D
:100B30000828004000BF0348008800F0200000287B
:100B4000F9D0704704280040074800884FF6F77135
:100B500008400549088000BF0348008800F00800ED
:100B60000028F9D07047000004280040704710B5F5
:100B700000F002F810BD00000CB5002001900090BC
:100B80003348006840F480303149086000BF304885
:100B9000006800F4003000900198401C019000981B
:100BA00018B90198B0F5A06FF1D12948006800F498
:100BB000003010B10120009001E00020009000986A
:100BC000012843D12348006840F010002149086003
:100BD0000846006820F0030008600846006840F0FE
:100BE000020008601A484068194948600846406891
:100BF00048600846406840F48060486008464068A5
:100C000020F47C1048600846406840F4E8104860D2
:100C10000846006840F08070086000BF0C4800681B
:100C200000F000700028F9D00948406820F0030067
:100C3000074948600846406840F00200486000BF2D
:100C40000348406800F00C000828F9D10CBD0000F2
:100C50000010024000200240042808D14FF0E0219B
:100C6000096941F004014FF0E022116107E04FF003
:100C7000E021096921F004014FF0E0221161704781
:100C80007047000010B51348006840F0010011499A
:100C9000086008464068104908400E494860084608
:100CA00000680E4908400B4908600846006820F4B7
:100CB000802008600846406820F4FE0048604FF439
:100CC0001F008860FFF753FF4FF000600449086081
:100CD00010BD0000001002400000FFF8FFFFF6FE0C
:100CE00008ED00E010B501210C4800F022F880B1B9
:100CF0000B48006808B9012000E00020084908609E
:100D00000848D0F8940108B9012000E00020064905
:100D100008600121014800F009F810BD00080040FA
:100D2000948121420000234294012342CA4302825B
:100D3000704730B50246002000230024158A05EADA
:100D40000103958905EA010413B10CB1012000E00B
:100D5000002030BD10B5002440F225511C4800F0A1
:100D6000A8F810B31A4800F05FF9C4B21948008817
:100D700000F40040C8B91748008800F4804060B112
:100D80000A2C03D000201349088020E01148008875
:100D900040F400400F49088019E00D2C06D10D48A1
:100DA000008840F480400B49088010E00948008822
:100DB000C0F30D0008490C5406480088401C054942
:100DC000088008460088C72801DD0020088010BD83
:100DD000003801401C0000202400002010B586B01F
:100DE000044601210420FFF7C5FB01218803FFF71A
:100DF000C1FB18208DF817004FF40070ADF81400F7
:100E000003208DF8160005A91B48FFF779FA042086
:100E10008DF817000002ADF8140005A91648FFF779
:100E20006FFA01940C20ADF80E000020ADF80C0014
:100E3000ADF80A00ADF80800ADF8100001A90F48A0
:100E400000F086F801210D4800F01AF8012240F266
:100E500025510A4800F057F825208DF800000120A0
:100E60008DF8030003208DF801008DF8020068461C
:100E7000FFF726FB06B010BD000801400038014016
:100E800021B1828942F40052828104E082894DF6C8
:100E9000FF731A408281704702460020B1F5007F3F
:100EA00000D100BF13880B400BB1012000E00020EF
:100EB000704770B50246002400230025002040F64C
:100EC0006A16B14200D100BFC1F3421501F01F0301
:100ED000012606FA03F3012D02D19689334006E07C
:100EE000022D02D1168A334001E0968A33400C125B
:100EF000012606FA04F41688344013B10CB101201F
:100F000000E0002070BDF0B5034600240026002557
:100F1000002040F66A17B94200D100BF1846C1F35D
:100F2000421401F01F06012707FA06F5012C01D132
:100F30000C3004E0022C01D1103000E014301AB162
:100F400007682F43076002E00768AF430760F0BD02
:100F50002DE9F04786B005460E460024A24600BFA4
:100F6000A1460027B08900B100BF2F462C8A4CF65D
:100F7000FF700440F08804432C82AC894EF6F310D5
:100F80000440B08831890843718908430443AC8127
:100F9000AC8A4FF6FF400440B0890443AC8201A8FC
:100FA000FFF7FEFA1F48874202D1DDF810A001E0EA
:100FB000DDF80CA0A88900F4004040B10AEBCA009B
:100FC00000EB0A1031684900B0FBF1F807E00AEBCA
:100FD000CA0000EB0A1031688900B0FBF1F8642008
:100FE000B8FBF0F004012009642101FB1089A889F5
:100FF00000F4004040B1322000EBC900B0FBF1F03A
:1010000000F00700044308E0322000EB09106421DF
:10101000B0FBF1F000F00F0004432C8106B0BDE8F6
:10102000F08700000038014001468888C0F30800BE
:101030007047C1F308028280704700BFFEE70000DE
:101040000FB4054B10B503A9044A029800F018F834
:1010500010BC5DF814FB00002112000820000020E5
:1010600002E008C8121F08C1002AFAD17047704771
:10107000002001E001C1121F002AFBD170470000CF
:101080002DE9FF4F89B09B460446002506E0252840
:101090000BD05A460B999047641C6D1C2078002891
:1010A000F5D10DB02846BDE8F08F0027B8460122E3
:1010B000474900E0074314F8013F203B02FA03F0E0
:1010C0000842F7D120782E2819D114F8010F47F0E3
:1010D00004072A280ED06FF02F022078A0F13001EB
:1010E00009290CD808EB880102EB410100EB01084B
:1010F000641CF2E70A98641C50F8048B0A9020786C
:101100000028CED0642808D0692806D075281ED0C3
:101110005A460B9990476D1C58E00A994FF00A09FE
:1011200001C90A91002802DA40422D2102E0390566
:1011300004D52B218DF82010012103E0F90704D0FC
:101140002021F7E78A4608AE0DE00021FAE70A9968
:101150004FF00A0901C90A91F7E74946FFF704F879
:10116000303106F8011D0028F7D1ADEB060000F183
:101170002009780701D44FF00108C84502DDA8EB2B
:10118000090000E000208046002706E008A85A4633
:10119000C05D0B9990476D1C7F1C5745F6DB04E042
:1011A00030205A460B9990476D1CB8F10001A8F108
:1011B0000108F5DC05E016F8010B5A460B9990473B
:1011C0006D1CB9F10001A9F10109F4DC641C65E7AB
:1011D000092801000146114A12684A434FF0E023F2
:1011E0005A6100229A611A46126942F001021A619C
:1011F00000BF4FF0E022106900F001021AB100F4C4
:101200008032002AF5D04FF0E022126922F001026C
:101210004FF0E0231A6100229A6170471800002005
:1012200070B504460D46A1B20548FFF702FF00BFA6
:1012300080210348FFF730FE0028F9D0204670BD1A
:10124000003801400024482000F024F84FF4A0604A
:10125000FFF76EF9FFF700F94FF4E130FFF7BEFD3D
:10126000FFF774FB12E0322094FBF0F100FB114019
:1012700038B90748006808B9012000E00020044997
:1012800008600A20FFF7A6FF601CC4B2EBE700006D
:101290009401234210B504466FF00400FFF7DCFC14
:1012A000E11704EB5171C1F3C701054A11701046F3
:1012B00000784FF47A7148430249086010BD00007D
:1012C0001400002018000020000303060104060299
:1012D000050003051F1C1F1E1F1E1F1F1E1F1E1F94
:1012E0000013000800000020240000006010000827
:1012F0002413000824000020D4040000701000080B
:1013000000000000010203040102030406070809AB
:1013100002040608000000000000000000000000B9
:0413200000000000C9
:0400000508000131BD
:00000001FF
