:030000000200EA11
:0C00EA00787FE4F6D8FD75810902000360
:1000C10049204C696B6520594F55005169204A6997
:0500D1006E20426F00EB
:10000300E4F508F5091200D67BFF7A0079C11200E6
:10001300727BFF7A0079CC12008DE4F508F5097F35
:10002300181200F67F907E011200540509E509704D
:10003300020508C39410E5086480948040E180FEC3
:10004300C2A78F807F057E00120054D2A77F057E52
:0100530000AC
:10005400D3EF9400EE940040147D6E7C00ED1D708F
:0D006400011CED4C70F7EF1F70E61E80E3ED
:01007100226C
:0A00F600C2A5C2A6120043C2A72251
:0A010000D2A6C2A5120043C2A72236
:1000D6007F381200F67F0F1200F67F061200F67FB9
:0400E600010200F61D
:100072007F901200F61200A8FF600F12010012001A
:0B00820050740129F9E43AFA80EB22E7
:10008D007FD01200F61200A8FF600F1201001200BF
:0B009D0050740129F9E43AFA80EB22CC
:1000A800BB010689828A83E0225002E722BBFE0256
:0900B800E32289828A83E4932289
:00000001FF
