:03000000020522D4
:0C052200787FE4F6D8FD7581350205698C
:10090600323032322D30342D32320030302D30300C
:040916002D30300050
:1008D500071300161318040716010A00010C00017E
:0B08E5000D00011000011100011200C5
:10092E00E4FDFCC3ED9FEC9E50070DBD00010C8055
:01093E00F2C6
:01093F002295
:1008B80012091A7BFF7A0979067D047F0112083232
:0D08C8007BFF7A0979117D057F020208325D
:1005AE001208B81209871202921203FC120152129B
:1005BE000003E50A70F3120495E513FB7A00752724
:1005CE00027D0B7F02120865E514FB7A0075270287
:1005DE007D087F02120865E515FB7A007527027DFE
:1005EE00057F02120865E516FB7A007527027D0C61
:1005FE007F01120865E517FB7A007527027D097FDA
:10060E0001120865E518FB7A007527017D107F0140
:10061E00120865E519FB7A007527027D067F011227
:04062E000865808556
:10029200E4FD7F8E1206A1E51375F00A84C454F0C2
:1002A200FFE51375F00A84EF25F0FD7F801206A1A9
:1002B200E51475F00A84C454F0FFE51475F00A845D
:1002C200EF25F0FD7F821206A1E51575F00A84C4C0
:1002D20054F0FFE51575F00A84EF25F0FD7F8412D6
:1002E20006A1E51675F00A84C454F0FFE51675F010
:1002F2000A84EF25F0FD7F861206A1E51775F00A44
:1003020084C454F0FFE51775F00A84EF25F0FD7FF1
:10031200881206A1E51875F00A84C454F0FFE518A6
:1003220075F00A84EF25F0FD7F8A1206A1E51975A2
:10033200F00A84C454F0FFE51975F00A84EF25F041
:0D034200FD7F8C1206A17D807F8E0206A13A
:100495007F81120632EFC4540F75F00AA4FEEF54A3
:1004A5000F2EF5137F83120632EFC4540F75F00A31
:1004B500A4FEEF540F2EF5147F85120632EFC454B7
:1004C5000F75F00AA4FEEF540F2EF5157F8712065F
:1004D50032EFC4540F75F00AA4FEEF540F2EF51633
:1004E5007F89120632EFC4540F75F00AA4FEEF544B
:1004F5000F2EF5177F8B120632EFC4540F75F00AD5
:10050500A4FEEF540F2EF5187F8D120632EFC4545A
:0C0515000F75F00AA4FEEF540F2EF5192C
:0105210022B7
:1003FC0030B1030204947F057E0012092E30B10344
:10040C00020494050A30B1FDE50A6401700A7FCB41
:10041C001209647F0F120964E50A6402700A7FC82E
:10042C001209647F0F120964E50A6403700A7FC520
:10043C001209647F0F120964E50A6404700A7F8F45
:10044C001209647F0F120964E50A6405700A7F8C37
:10045C001209647F0F120964E50A6406700A7F8929
:10046C001209647F0F120964E50A6407700A7F861B
:10047C001209647F0F120964E50A6408700AF50A10
:09048C007F0C1209641202922295
:1001520030B003020291AF0AEF7003020291640110
:1001620070278513090509E509643C7002F5093019
:10017200B0FD850913E513FB7A007527027D0B7F1D
:10018200021208657FCB120964E50A6402702785B2
:10019200140C050CE50C643C7002F50C30B0FD85C6
:1001A2000C14E514FB7A007527027D087F02120801
:1001B200657FC8120964E50A6403702785150D0579
:1001C2000DE50D64187002F50D30B0FD850D15E5D5
:1001D20015FB7A007527027D057F021208657FC52F
:1001E200120964E50A6404702785180E050EE50EEF
:1001F20064087002F50E30B0FD850E18E518FB7A22
:10020200007527017D107F011208657F8F12096436
:10021200E50A6405701F85160B050B30B0FD850BD2
:1002220016E516FB7A007527027D0C7F0112086520
:100232007F8C120964E50A6406702785170F050F83
:10024200E50F640D7002F50F30B0FD850F17E5174D
:10025200FB7A007527027D097F011208657F8912EA
:100262000964E50A640770278519080508E508642A
:10027200637002F50830B0FD850819E519FB7A00B4
:100282007527027D067F011208657F8612096422A6
:1000030030B203020151AF0AEF70030201516401E0
:100013007028851309E50960041509800375093BF8
:1000230030B2FD850913E513FB7A007527027D0BBA
:100033007F021208657FCB120964E50A6402702807
:1000430085140CE50C6004150C8003750C3B30B271
:10005300FD850C14E514FB7A007527027D087F02E9
:100063001208657FC8120964E50A640370288515C0
:100073000DE50D6004150D8003750D1730B2FD8578
:100083000D15E515FB7A007527027D057F02120821
:10009300657FC5120964E50A6404702885180EE5B6
:1000A3000E6004150E8003750E0730B2FD850E1821
:1000B300E518FB7A007527017D107F011208657F23
:1000C3008F120964E50A6405702885160BE50B6039
:1000D30004150B8003750B1E30B2FD850B16E51658
:1000E300FB7A007527027D0C7F011208657F8C1255
:1000F3000964E50A6406702885170FE50F60041587
:100103000F8003750F0C30B2FD850F17E517FB7ACF
:10011300007527027D097F011208657F8912096432
:10012300E50A64077028851908E508600415088046
:100133000375086330B2FD850819E519FB7A00756C
:0F01430027027D067F011208657F86120964225C
:08097E007F027EEFDEFEDFFCCC
:01098600224E
:10096400C2A5C2A68F80D2A712097EC2A702097EA1
:10089400CFCDCFCECCCE12038E7C007D0A12038E38
:0408A400ED2430FF10
:1008A800C2A5D2A68F80D2A712097EC2A702097E4E
:10091A007F381209647F0C1209647F061209647F0A
:04092A000102096459
:10094000EF64017005ED247F8003ED24BFFF1209E1
:0209500064221F
:0A097400AC03120940AF040208A80A
:0A0832008F238D248B258A26892749
:10083C001208F1AC07AD24AF23120940E4FDEDC35F
:10084C009C5015AB25AA26A9278D8275830012030F
:08085C004FFF1208A80D80E611
:010864002271
:0C07FA00E58224FFFDE58334FFFC7E0057
:080806008E288F298C2A8D2B0E
:10080E00E4FBFA7F01FEC3EB952BE52A6480F8EA40
:10081E00648098500EAC28AD2912037C0BBB0001EE
:03082E000A80E35A
:0108310022A4
:040865008A258B262F
:10086900120940852782758300D3E5829400E583C8
:10087900940040167F0A1207FAAC25AD2612089497
:0A088900E582158270E3158380DF1D
:010893002242
:10070400120940D3EB9400EA64809480400B7F2B61
:100714001208A88A218B22800E7F2D1208A8C3E418
:100724009BF522E49AF521751F00851E20D3E52050
:100734009400E51F94004022E52024FFFDE51F34CA
:10074400FFFC7F0A7E00120806AC21AD2212089439
:0A075400E520152070D7151F80D393
:01075E002278
:04075F008A2E8B2F24
:10076300120940853082758300D3E5829400E583C6
:10077300940040357F101207FAAC2EAD2FCFCDCFAA
:10078300CECCCE12038EEF540FFD7C00C3940AEC43
:100793009400ED5004243080022437FF1208A8E5AA
:0907A30082158270C4158380C028
:0107AC00222A
:0407AD008A338B34CC
:1007B100120940853582758300D3E5829400E58373
:1007C10094004034E58224FFFDE58334FFFC7F0281
:1007D1007E00120806AC33AD34CFCDCFCECCCE12D5
:1007E100038EEF5401FD7C002430FF1208A8E5823E
:0807F100158270C5158380C15B
:0107F90022DD
:10095200E4FDFCC3ED9FEC9E50070DBD00010C8031
:01096200F2A2
:010963002271
:05098700C2B5C2B6225A
:0206A100A907A7
:1006A300D2B5E4FBEBC394087480948050227E009F
:1006B3007401A803088005C333CE33CED8F9FFE90C
:1006C300F582EF558224FF92B4D2B6C2B60B80D422
:1006D300E4FBEBC394087480948050227E00740181
:1006E300A803088005C333CE33CED8F9FFEDF582D6
:1006F300EF558224FF92B4D2B6C2B60B80D4C2B5F2
:0107030022D3
:02063200A90716
:10063400E4FBD2B5FAEAC3940874809480502A7E0D
:10064400007401A802088005C333CE33CED8F9FF65
:10065400E9FDEF5D24FF92B4C2B67F037E00120968
:1006640052D2B61209520A80CCC2B4E4FAEAC39454
:1006740008748094805021D2B67F037E0012095200
:10068400C2B612095230B40DA8027401088002C324
:0C06940033D8FC42030A80D5C2B5AF0386
:0106A0002237
:10052E000205AEE493A3F8E493A34003F68001F230
:10053E0008DFF48029E493A3F85407240CC8C333CE
:10054E00C4540F4420C8834004F456800146F6DF9D
:10055E00E4800B01020408102040809008D5E47E50
:10056E00019360BCA3FF543F30E509541FFEE49392
:10057E00A360010ECF54C025E060A840B8E493A359
:10058E00FAE493A3F8E493A3C8C582C8CAC583CA84
:10059E00F0A3C8C582C8CAC583CADFE9DEE780BE3C
:0108F0000007
:10034F00BB010CE58229F582E5833AF583E0225063
:10035F0006E92582F8E622BBFE06E92582F8E222AD
:0D036F00E58229F582E5833AF583E49322C7
:10037C00EF8DF0A4A8F0CF8CF0A428CE8DF0A42E95
:02038C00FE224F
:10038E00BC000BBE0029EF8DF084FFADF022E4CC53
:10039E00F875F008EF2FFFEE33FEEC33FCEE9DEC1C
:1003AE00984005FCEE9DFE0FD5F0E9E4CEFD22ED62
:1003BE00F8F5F0EE8420D21CFEADF075F008EF2FAC
:1003CE00FFED33FD4007985006D5F0F222C398FD9D
:0503DE000FD5F0EA223A
:1008F100E4FFFE1203E3600C0FEF70010E09E970D3
:05090100F20A80EF2264
:1003E300BB010689828A83E0225002E722BBFE0218
:0903F300E32289828A83E493224B
:00000001FF
