:020000040800F2
:1000000088040020450100084D030008F50200089F
:1000100049030008B9010008AB090008000000000E
:100020000000000000000000000000004105000882
:10003000BD01000800000000290400085506000862
:100040005F0100085F0100085F0100085F01000810
:100050005F0100085F0100085F0100085F01000800
:100060005F0100085F0100085F0100085F010008F0
:100070005F0100085F0100085F0100085F010008E0
:100080005F0100085F0100085F0100085F010008D0
:100090005F0100085F0100085F0100085F010008C0
:1000A0005F0100085F0100085F0100085F010008B0
:1000B0005F0100085F0100085F0100085F010008A0
:1000C0005F0100085F0100085F0100085F01000890
:1000D0005F010008B90600085F0100085F01000821
:1000E0005F0100085F0100085F0100085F01000870
:1000F0005F0100085F0100085F0100085F01000860
:100100005F0100085F0100085F0100085F0100084F
:100110005F0100085F0100085F0100085F0100083F
:100120005F0100085F0100085F0100085F0100082F
:10013000DFF80CD000F02EF800480047B90B00089B
:10014000880400200648804706480047FEE7FEE78F
:10015000FEE7FEE7FEE7FEE7FEE7FEE7FEE7FEE777
:10016000590600083101000830B50B460146002051
:100170002022012409E021FA02F59D4205D303FA69
:1001800002F5491B04FA02F52844151EA2F10102EA
:10019000F1DC30BD064C074D06E0E06840F001039D
:1001A00094E8070098471034AC42F6D3FFF7C4FF39
:1001B000CC0C0008EC0C000800BFFEE7704710B53F
:1001C0000121080700F032F9012000F027F9012091
:1001D00000F000F900F008F910BD2DE9F0410246E9
:1001E00000250026002000230024002791F803C0EA
:1001F0000CF00F0591F803C00CF0100CBCF1000FCF
:1002000003D091F802C04CEA050591F800C0BCF19A
:10021000000F31D0146800202BE04FF0010C0CFAD5
:1002200000F3B1F800C00CEA03069E4220D183001F
:100230004FF00F0C0CFA03F7BC4305FA03FC4CEA31
:10024000040491F803C0BCF1280F06D14FF0010C53
:100250000CFA00FCC2F814C00AE091F803C0BCF12B
:10026000480F05D14FF0010C0CFA00FCC2F810C089
:10027000401C0828D1D31460B1F800C0BCF1FF0FB6
:1002800034DD546800202EE000F1080C4FF0010826
:1002900008FA0CF3B1F800C00CEA03069E4221D123
:1002A00083004FF00F0C0CFA03F7BC4305FA03FC74
:1002B0004CEA040491F803C0BCF1280F05D100F109
:1002C000080C08FA0CF8C2F8148091F803C0BCF1CD
:1002D000480F07D100F1080C4FF0010808FA0CF89C
:1002E000C2F81080401C0828CED35460BDE8F081CD
:1002F0000161704700BFFEE708B50121082000F04A
:10030000A5F80121402000F0A1F810208DF803008D
:100310002020ADF8000003208DF80200694608484F
:10032000FFF75BFF69460748FFF757FF20210448A6
:10033000FFF7DEFF20210348FFF7DAFF08BD0000CA
:10034000000C01400018014000BFFEE770470000AC
:1003500070B5002100230F22C47804B3154C246823
:1003600004F4E064C4F5E064210AC1F10403CA4066
:10037000447804FA03F184781440214309010E4CB7
:100380000678A155047804F01F050124AC400578D7
:100390006D11AD0005F1E025C5F8004109E00478D4
:1003A00004F01F050124AC40044D0678761145F891
:1003B000264070BD0CED00E000E400E080E100E0CC
:1003C00002490143024A1160704700000000FA052B
:1003D0000CED00E00349096841EA8001014A11601F
:1003E00070470000007000400A48006840F00400B8
:1003F000084908600846006840F0020008600648A6
:10040000006840F004000449086000BF00BF30BF2E
:10041000704700000070004010ED00E001490860E6
:1004200070470000A0000E427047000029B1064A44
:10043000D2690243044BDA6104E0034AD269824381
:10044000014BDA61704700000010024029B1064AF2
:1004500092690243044B9A6104E0034A9269824321
:10046000014B9A61704700000010024030B5002136
:100470000022002400232D4D6D6805F00C0121B1F0
:10048000042905D0082923D105E0294D056022E083
:10049000274D05601FE0254D6D6805F47012234D52
:1004A0006D6805F48034022505EB92421CB9214D9C
:1004B000554305600BE01D4D6D6805F400351DB119
:1004C0001C4D5543056002E0194D5543056002E09F
:1004D000174D056000BF00BF144D6D6805F0F001B9
:1004E0000909154D6B5C0568DD4045600F4D6D6871
:1004F00005F4E061090A104D6B5C4568DD408560DC
:100500000A4D6D6805F46051C90A0B4D6B5C456876
:10051000DD40C560054D6D6805F44041890B074D10
:100520006B5CC568B5FBF3F5056130BD001002409A
:1005300000127A0000093D00000000201000002099
:10054000704710B500F002F810BD00000CB5002097
:10055000019000903348006840F4803031490860D1
:1005600000BF3048006800F4003000900198401C43
:100570000190009818B90198B0F5A06FF1D1294801
:10058000006800F4003010B10120009001E000206C
:1005900000900098012843D12348006840F01000E3
:1005A000214908600846006820F0030008600846FA
:1005B000006840F0020008601A4840681949486025
:1005C0000846406848600846406840F480604860DB
:1005D0000846406820F47C1048600846406840F4B3
:1005E000E81048600846006840F08070086000BF6E
:1005F0000C48006800F000700028F9D009484068F5
:1006000020F00300074948600846406840F00200B7
:10061000486000BF0348406800F00C000828F9D18A
:100620000CBD00000010024000200240042808D148
:100630004FF0E021096941F004014FF0E02211611F
:1006400007E04FF0E021096921F004014FF0E022BA
:10065000116170477047000010B51348006840F002
:1006600001001149086008464068104908400E49D9
:100670004860084600680E4908400B490860084673
:10068000006820F4802008600846406820F4FE00DE
:1006900048604FF41F008860FFF753FF4FF0006081
:1006A0000449086010BD0000001002400000FFF87F
:1006B000FFFFF6FE08ED00E010B5002440F22551E2
:1006C0001C4800F0AEF810B31A4800F065F9C4B247
:1006D0001948008800F40040C8B91748008800F4A1
:1006E000804060B10A2C06D11348008840F40040D5
:1006F000114908801DE000200F49088019E00D2CE9
:1007000006D10D48008840F480400B49088010E075
:100710000948007800F03F0008490C54064800885A
:10072000401C0549088008460088632801DD002038
:10073000088010BD003801401C000020240000206B
:1007400010B586B0044601218803FFF77FFE012122
:100750000420FFF77BFE18208DF817004FF400707F
:10076000ADF8140003208DF8160005A91E48FFF708
:1007700034FD04208DF817000002ADF814000320AA
:100780008DF8160005A91848FFF727FD01940020F1
:10079000ADF810000C20ADF80E000020ADF80C00F4
:1007A000ADF80A00ADF8080001A9104800F088F87B
:1007B00001210E4800F01CF8012240F225510B489F
:1007C00000F059F825208DF8000001208DF8030075
:1007D00002208DF8010000208DF802006846FFF726
:1007E000B7FD06B010BD0000000801400038014010
:1007F00021B1828942F40052828104E082894DF65F
:10080000FF731A408281704702460020B1F5007FD5
:1008100000D100BF13880B400BB1012000E0002085
:10082000704770B50246002400230025002040F6E2
:100830006A16B14200D100BFC1F3421501F01F0397
:10084000012606FA03F3012D02D19689334006E012
:10085000022D02D1168A334001E0968A33400C12F1
:10086000012606FA04F41688344013B10CB10120B5
:1008700000E0002070BDF0B50346002400260025EE
:10088000002040F66A17B94200D100BF1846C1F3F4
:10089000421401F01F06012707FA06F5012C01D1C9
:1008A0000C3004E0022C01D1103000E014301AB1F9
:1008B00007682F43076002E00768AF430760F0BD99
:1008C0002DE9F04786B005460E460024A24600BF3B
:1008D000A1460027B08900B100BF2F462C8A4CF6F4
:1008E000FF700440F08804432C82AC894EF6F3106C
:1008F0000440B08831890843718908430443AC81BE
:10090000AC8A4FF6FF400440B0890443AC8201A892
:10091000FFF7ACFD1F48874202D1DDF810A001E0CF
:10092000DDF80CA0A88900F4004040B10AEBCA0031
:1009300000EB0A1031684900B0FBF1F807E00AEB60
:10094000CA0000EB0A1031688900B0FBF1F864209E
:10095000B8FBF0F004012009642101FB1089A8898B
:1009600000F4004040B1322000EBC900B0FBF1F0D0
:1009700000F00700044308E0322000EB0910642176
:10098000B0FBF1F000F00F0004432C8106B0BDE88D
:10099000F08700000038014001468888C0F3080055
:1009A0007047C1F308028280704700BFFEE7000075
:1009B0000FB4054B10B503A9044A029800F018F8CB
:1009C00010BC5DF814FB0000950B0008200000200F
:1009D00002E008C8121F08C1002AFAD17047704708
:1009E000002001E001C1121F002AFBD17047000066
:1009F0002DE9FF4F89B09B460446002506E02528D7
:100A00000BD05A460B999047641C6D1C2078002827
:100A1000F5D10DB02846BDE8F08F0027B846012279
:100A2000474900E0074314F8013F203B02FA03F076
:100A30000842F7D120782E2819D114F8010F47F079
:100A400004072A280ED06FF02F022078A0F1300181
:100A500009290CD808EB880102EB410100EB0108E1
:100A6000641CF2E70A98641C50F8048B0A90207802
:100A70000028CED0642808D0692806D075281ED05A
:100A80005A460B9990476D1C58E00A994FF00A0995
:100A900001C90A91002802DA40422D2102E03905FD
:100AA00004D52B218DF82010012103E0F90704D093
:100AB0002021F7E78A4608AE0DE00021FAE70A99FF
:100AC0004FF00A0901C90A91F7E74946FFF74CFBC5
:100AD000303106F8011D0028F7D1ADEB060000F11A
:100AE0002009780701D44FF00108C84502DDA8EBC2
:100AF000090000E000208046002706E008A85A46CA
:100B0000C05D0B9990476D1C7F1C5745F6DB04E0D8
:100B100030205A460B9990476D1CB8F10001A8F19E
:100B20000108F5DC05E016F8010B5A460B999047D1
:100B30006D1CB9F10001A9F10109F4DC641C65E741
:100B40000928010001460020114A12684A434FF06B
:100B5000E0235A6100229A611A46126942F00102AA
:100B60001A6100BF4FF0E022106900F001021AB1D3
:100B700000F48032002AF5D04FF0E022126922F012
:100B800001024FF0E0231A6100229A6170470000D1
:100B90001400002070B504460D46A1B20548FFF7C9
:100BA00000FF00BF80210348FFF72EFE0028F9D088
:100BB000204670BD00380140482000F06FF84FF427
:100BC000A060FFF7FDFBFFF797FB4FF4E130FFF765
:100BD000B7FD38E01CA0FFF7EBFE00201D490860C0
:100BE0004FF47A70FFF7AEFF1BA0FFF7E1FE012084
:100BF0001C49C1F894014FF47A70FFF7A3FF1AA0C3
:100C0000FFF7D6FE0020134908604FF47A70FFF713
:100C100099FF18A0FFF7CCFE01201249C1F89401FA
:100C20004FF47A70FFF78EFF15A0FFF7C1FE00208A
:100C3000084908604FF47A70FFF784FF13A0FFF7AC
:100C4000B7FEFFF7BCFAC5E774696D653A350D0A62
:100C5000000000009401234274696D653A340D0A66
:100C6000000000000000234274696D653A330D0AEC
:100C70000000000074696D653A320D0A0000000042
:100C800074696D653A310D0A00000000BDF8C8EBCB
:100C9000B4FDBBFAC4A3CABD0D0A000010B50446DA
:100CA0006FF00400FFF7C2FCE11704EB5171C910AB
:100CB000044A1160104600684FF47A7148430249B3
:100CC000086010BD1800002014000020EC0C000883
:100CD0000000002024000000D0090008100D0008CA
:100CE0002400002064040000E00900080000000067
:100CF00001020304010203040607080902040608AE
:100D000000000000000000000000000000000000E3
:0400000508000131BD
:00000001FF
